:020000040800F2
:1000000000000820D58A0008650E0008670E000869
:10001000690E00086B0E00086D0E0008000000005D
:10002000000000000000000000000000D167000890
:100030006F0E00080000000071680008D568000815
:10004000258B0008258B0008258B0008258B0008D0
:10005000258B0008258B0008258B0008258B0008C0
:10006000258B0008258B0008258B0008258B0008B0
:10007000258B0008258B0008258B0008258B0008A0
:10008000258B0008258B0008258B0008258B000890
:10009000258B0008258B0008258B0008258B000880
:1000A000258B0008258B0008258B0008258B000870
:1000B000258B0008258B0008258B0008258B000860
:1000C000258B0008258B0008258B0008258B000850
:1000D000258B0008258B0008258B0008258B000840
:1000E000258B0008258B0008258B0008258B000830
:1000F000258B0008258B0008258B0008258B000820
:10010000258B0008258B0008258B0008258B00080F
:10011000258B0008A10E0008710E0008258B000831
:10012000258B0008258B0008258B0008258B0008EF
:10013000258B0008258B0008258B0008258B0008DF
:10014000258B0008258B0008258B0008258B0008CF
:10015000258B0008258B0008258B0008258B0008BF
:10016000258B0008258B0008258B0008258B0008AF
:10017000258B0008810E0008258B00080000000078
:10018000258B0008258B0008258B0008258B00088F
:10019000258B0008258B0008258B0008258B00087F
:1001A000910E0008258B0008258B0008258B000880
:1001B000258B0008258B0008258B0008258B00085F
:1001C000258B0008258B0008258B0008258B00084F
:1001D000258B0008258B0008258B0008258B00083F
:1001E000258B0008258B0008258B0008258B00082F
:0801F000258B0008258B000897
:10020000034613F8012B002AFBD1181A0138704756
:1002100001F0FF01102A2BDB10F0070F08D010F8B7
:10022000013B013A8B422DD010F0070F42B3F6D1BB
:10023000F0B441EA012141EA014122F007047FF0D4
:1002400000070023F0E80256083C85EA010586EA2B
:10025000010685FA47F5A3FA87F586FA47F6A5FA67
:1002600087F68EB9EED1F0BC01F0FF0102F0070273
:1002700032B110F8013B013A83EA010313B1F8D11E
:100280000020704701387047002D06BF35460338FF
:10029000073815F0010F07D1013015F4807F02BF38
:1002A000013015F4C03F0130F0BC0138704700BF89
:1002B00053B94AB9002908BF00281CBF4FF0FF31CD
:1002C0004FF0FF3000F00CB8ADF1080C6DE904CE32
:1002D00009F016F9DDF804E0DDE9022304B0704707
:1002E000704700BF0348044B834202D0034B03B165
:1002F000184770475C0100205C01002000000000EE
:100300000548064B1B1AD90F01EBA301491002D077
:10031000034B03B1184770475C0100205C010020CB
:100320000000000010B5064C237843B9FFF7DAFF50
:10033000044B13B10448AFF300800123237010BDB8
:100340005C01002000000000F897000808B5054B8C
:100350001BB105490548AFF30080BDE80840FFF731
:10036000CFBF00BF0000000060010020F897000828
:1003700030B589B00446214B1A6C42F010021A6461
:100380001B6C03F010030193019B02A903A801F069
:100390003DFC069BCBB901F019FC0346184AA2FBB1
:1003A00003239B0C013B1748174A026040F2E732D7
:1003B000C2604360002303618360836102F044FFF5
:1003C000054630B1284609B030BD01F0FFFB4300BF
:1003D000E4E70C4802F0A4FD05460028F2D13620DF
:1003E00004F03AFE0F2C01D90125EBE7002221464B
:1003F000362004F021FE054B1C60E3E70038024084
:1004000083DE1B437801002000100040080000201C
:100410002DE9F04186B000230193029303930493E6
:100420000593304B1B6813B106B0BDE8F0812D4B2E
:1004300001221A602C4B9A6B42F001029A639B6B6B
:1004400003F001030093009B4FF68373019302278F
:100450000297032604960C25059501AC21462348F6
:1004600001F0F2FB48F23713019302974FF00008B6
:10047000CDF80C800496059521461D4801F0E4FB5B
:100480004CF2037301930297CDF80C800496059506
:100490002146184801F0D8FB40F2FF630193029710
:1004A000CDF80C80049605952146134801F0CCFB4D
:1004B0004FF63F0301930297CDF80C800496059503
:1004C00021460E4801F0C0FB4FF62C7301930297B2
:1004D000CDF80C80049605952146094801F0B4FB3F
:1004E000A2E700BFC4010020003802400010024013
:1004F00000180240000C024000200240001402409C
:10050000001C024010B588B001A9002301934B6084
:100510008B60CB600B614B618B610F480F4A0260AF
:10052000436083600822C26010220261436180241C
:100530008461C36103624362836201920292039207
:10054000049205920692079204F012FD08B908B0D1
:1005500010BD00F001FEFAE7C8010020400100A034
:1005600008B5FFF755FF08BD2DE9F04F91B00BAD71
:1005700000240B946C60AC60EC602C61AE4B1A6B89
:1005800042F010021A631A6B02F010020092009AF5
:100590001A6B42F040021A631A6B02F04002019299
:1005A000019A1A6B42F002021A631A6B02F00202FD
:1005B0000292029A1A6B42F008021A631A6B02F056
:1005C00008020392039A1A6B42F004021A631A6B30
:1005D00002F004020492049A1A6B42F001021A63B8
:1005E0001A6B02F001020592059A1A6B42F400722E
:1005F0001A631A6B02F400720692069A1A6B42F49E
:1006000080721A631A6B02F480720792079A1A6B4F
:1006100042F480621A631A6B02F480620892089AAC
:100620001A6B42F020021A631A6B02F02002099240
:10063000099A1A6B42F080021A631B6B03F0800365
:100640000A930A9BDFF804A222464AF22001504690
:1006500001F0FCFB78230B9302260C960D940E946C
:1006600006230F93DFF8E8812946404601F0ECFAB3
:1006700004230B930C960D9403270E9709220F92D7
:100680002946404601F0E0FA4FF4D0430B930C9614
:100690000D940E960B220F922946684801F0D4FA69
:1006A00018230B930C960D940E970A200F90294651
:1006B000634801F0C9FAC0200B900C960D940E9778
:1006C0000B220F92DFF88CB12946584601F0BCFA94
:1006D0004FF480500B900C960D940E9708210F91BB
:1006E000DFF874912946484601F0AEFA4FF4004312
:1006F0000B9312230C930D940E9404230F93A8F5DF
:1007000080582946404601F09FFA80200B90122322
:100710000C9301230D930E970B220F922946484804
:1007200001F092FA40220B920C960D940E970A213A
:100730000F912946424801F087FA4AF220030B93B1
:1007400001230C930D940E942946504601F07CFA37
:1007500045F21B030B930C940D942946504601F06F
:1007600073FA4FF400610B910C960D940E940F9751
:100770002946484601F068FA4FF4C0610B910C9687
:100780000D940E9709210F912946484601F05CFA15
:100790004FF480500B900C960D940E9405200F9002
:1007A0002946404601F050FA4FF451430B930C9404
:1007B0000D942946234801F047FAF8230B930C9433
:1007C0000D942946204801F03FFA4FF480500B90D9
:1007D0000C960D940E944FF0070ACDF83CA02946D4
:1007E000164801F031FA4FF4C0610B910C960D944C
:1007F0000E970B220F922946104801F025FA30235C
:100800000B930C940D942946584601F01DFA0821CB
:100810000B910C960D940E940F972946584601F0B3
:1008200013FA4FF400620B920C960D940E9705206C
:100830000F902946404611E000380240001802405F
:100840000004024000200240002802400024024030
:1008500000100240000C02400008024001F0F4F9D0
:100860004FF400510B910C960D940E942946484676
:1008700001F0EAF904230B930C960D940E970821CE
:100880000F912946584601F0DFF94FF480630B932E
:100890000C960D940E97CDF83CA02946404601F0E9
:1008A000D3F94FF400730B930C960D940E94CDF87E
:1008B0003CA02946404601F0C7F94FF4807ACDF8B4
:1008C0002CA00C960D940E940F942946404601F0EE
:1008D000BBF94FF400510B914FF490130C930D940E
:1008E0002946674801F0B0F9CDF82CA00C960D947C
:1008F0000E940F962946484601F0A6F9C0220B92A5
:100900000C960D940E9708210F912946484601F048
:100910009BF980200B900C960D940E9406210F915C
:100920002946584801F090F948230B930C940D94F4
:100930002946544801F088F980200B900C960D94BC
:100940000E940F97DFF848A12946504601F07CF934
:1009500040220B920C960D940E940F972946504608
:1009600001F072F94FF4E0630B930C970D94294654
:10097000504601F069F932230B930C960D940E96B4
:100980000B220F922946484601F05EF904230B938F
:100990000C970D942946484601F056F904230B9311
:1009A0000C960D940E9709210F912946364801F0B7
:1009B0004BF94FF480500B9012200C9001230D93B3
:1009C0000E9704230F932946584601F03DF94FF442
:1009D00000510B910C960D940E9709210F91294609
:1009E000584601F031F986230B930C960D940E9620
:1009F0000B220F922946404601F026F901230B9362
:100A00004FF488130C930D942946404601F01CF9CD
:100A100050230B930C970D942946404601F014F98E
:100A20004FF400670B970C960D940E940A230F93C6
:100A30002946584601F008F980200B900C940D943B
:100A4000124F2946384601F0FFF840220B920C96CF
:100A50000D940E9409210F912946384601F0F4F8BF
:100A60004FF440430B930C960D940E9405200F9079
:100A70002946054801F0E8F811B0BDE8F08F00BF45
:100A8000002002400018024000040240001C024006
:100A90000014024030B5AFB02BAD00242B942C9441
:100AA0002D942422214622A808F054F91C941D9468
:100AB0001E941F94209421946C22214601A808F0D2
:100AC00049F94948494B0360446004238360C4608A
:100AD00014232B9301232C93294602F097FD002821
:100AE00069D10123229300232393249325932693F2
:100AF0002793289329932A9322A93B4803F032F89D
:100B000000285BD11C231C9321231D930F231E93CC
:100B100019231F930023209321931CA9324802F02C
:100B2000DDFF00284DD104212F4802F0C3FF00282B
:100B30004AD142F210712C4803F08EF8002846D1B9
:100B40000021294802F089FC002843D100230193A9
:100B50000522029203930493012205924FF44871F7
:100B60000691079304210891022109910A930B929F
:100B70003F210C9140F286410D910E921C220F9262
:100B80000D2210924FF4F07211921293139314935A
:100B9000159316931793189319931A931B9301A9FE
:100BA000114802F057FEC0B900210F4802F03EFE86
:100BB000B0B92FB030BD00F0CFFA92E700F0CCFA18
:100BC000A0E700F0C9FAAEE700F0C6FAB1E700F01E
:100BD000C3FAB5E700F0C0FAB8E700F0BDFAE3E702
:100BE00000F0BAFAE5E700BFFC010020006C01400C
:100BF00000B589B0002303930493059306930793EC
:100C00000268124B9A4202D009B05DF804FB03F56A
:100C10004C435A6C42F000625A645A6C02F0006213
:100C20000192019A1A6B42F400721A631B6B03F46F
:100C300000730293029B04230393022304930D2366
:100C4000079303A9024800F0FFFFDDE7006C0140B5
:100C50000024024000B58FB03422002101A808F022
:100C600079F82848284B0360002343608360C36001
:100C70004FF080520261436183613022C2611C22C5
:100C800002624FF4547242624FF4FE7282624FF479
:100C90005E72C26240F20922026380F8343080F84A
:100CA000353080F8363002F037F828BB0022019248
:100CB0004FF44871029103924FF4F07304930220B1
:100CC0000590FF20069007924FF4C060089007201F
:100CD00009904FF040400A900B910C938DF834200E
:100CE0008DF835208DF8362001A9064802F0E2F88B
:100CF00028B90FB05DF804FB00F02EFAD6E700F03B
:100D00002BFAF6E7180200200068014010B5A6B0E3
:100D100004469022002102A808F01CF82268154B16
:100D20009A4201D026B010BD08230293C023079336
:100D3000022309930323089301230A930C9302A827
:100D400003F016FE90B90C4B5A6C42F080625A6464
:100D50005B6C03F080630193019B00220521582006
:100D600004F06AF9582004F077F9DBE700F0F4F9B1
:100D7000E9E700BF006801400038024008B51448A8
:100D8000144B0360A3F1FE53A3F698434360002382
:100D900083600122C260036143618361C3610362B6
:100DA00001F064F850B90021094802F0BDFA40B9D9
:100DB0000021074802F0E5FA30B908BD00F0CCF98F
:100DC000F1E700F0C9F9F3E700F0C6F9F5E700BF75
:100DD000C00200200054004010B5ACB00446002111
:100DE0002791289129912A912B91902203A807F00D
:100DF000B1FF2268184B9A4201D02CB010BD4FF4BD
:100E00008043039303A803F0B3FD10BB134C236B83
:100E100043F002032363236B03F002030193019B5E
:100E20004FF440732793122328930123299300231F
:100E30002A9304232B9327A9094800F005FF236C6C
:100E400043F400132364236C03F400130293029B06
:100E5000D3E700F081F9D9E70054004000380240A0
:100E600000040240FEE7FEE7FEE7FEE7FEE770470C
:100E700008B5024802F0A0F808BD00BF78010020C4
:100E800008B5024801F081FB08BD00BF44340120D1
:100E900008B5024801F0A1FF08BD00BF18020020FC
:100EA0000D4B1B68DA6912F0200F13D05A6AD2B2C8
:100EB0000A4B1B680133C3F30A03094909689942C5
:100EC00008D010B405490868064C22540B605DF840
:100ED000044B7047704700BF180300208C030020AC
:100EE000880300209003002070B5B8B007F034FBF1
:100EF00004F010FB4FF4FA6006F044FD002408E013
:100F00004FF40051614800F0A7FF642006F03AFD5D
:100F10000134092CF4DD01224FF400515B4800F04C
:100F200095FF18AE34465A4D0FCD0FC495E8030017
:100F300084E803003046FFF763F981B2304607F0DA
:100F4000F5FA544804F0CCFA4FF4FA7006F01AFDA2
:100F5000514804F0C5FA4FF4FA5006F013FD344638
:100F60004E4D0FCD0FC495E8070003C424F8022BA3
:100F7000120C22703046FFF743F981B2304607F079
:100F8000D5FA63E06D224649684607F0C1FE68461F
:100F900004F0A6FA4FF4FA61424804F0CDFA78B1B1
:100FA00018AE3446404D0FCD0FC42B682370304629
:100FB000FFF726F981B2304607F0B8FA002443E083
:100FC0003A4C642330223A49204604F02EFA642336
:100FD0000F223849204604F028FA642319223649A2
:100FE000204604F022FA642315223449204604F0F6
:100FF0001CFA02F061FE044602E00A2006F0C2FC80
:1010000002F05AFE031B42F20F7293420DD84021A8
:1010100008A800F071F80028EFD081B208A807F006
:1010200085FA02F049FE0446EAE70221244807F067
:101030007DFAC3E74FF40051144800F00DFF4FF460
:101040007A7006F09FFC0134092CF3DD1D4804F092
:1010500047FA41F288311C4804F06EFA002891D01A
:1010600018ADAC46194C0FCCACE80F0094E8030067
:101070008CE803002846FFF7C3F881B2284607F042
:1010800055FA41F2883006F07DFCDFE7002402408B
:10109000109800082898000834980008589800080C
:1010A000B0980008C0980008409900081803002074
:1010B000C4980008F89800080899000824990008C6
:1010C0003C990008749800089498000898980008C3
:1010D000704770477047000008B5044A0021044873
:1010E00006F0EAFB034B186008BD00BFD499000866
:1010F000E90E00081403002084460020884217D21D
:1011000010B40C4B1A680C4B1B689A420DD0094A5C
:1011100013680A4CE35C0CF8003013680133C3F326
:101120000A03136001308842EBD35DF8044B70472B
:10113000704700BF880300208C030020900300202C
:1011400008B50268034B9A4200D008BD02F0A8FD22
:10115000FBE700BF0010004072B6FEE710B5B8B064
:101160002BAC34220021204607F0F4FD0023269307
:101170002793289329932A9304F09EF82F4B1A6CF7
:1011800042F080521A641B6C03F080530093009B62
:101190002B4B1A6842F440421A601B6803F4404328
:1011A0000193019B03232B934FF480332C93012352
:1011B0002E9310232F93022331934FF48002329207
:1011C000192233924FF4D872349235930922369211
:1011D0003793204600F07CF938BB03F04BFF30BB5F
:1011E0000F23269302232793002328934FF4A05321
:1011F00029934FF480532A93072126A800F02AFC54
:10120000B8B902AC90220021204607F0A3FD4FF4AC
:1012100000130293204603F0ABFB60B90022114695
:10122000104600F077FB38B010BDFFF795FFFFF7D1
:1012300093FFFFF791FFFFF78FFF00BF00380240D9
:101240000070004008B50B480B4B03604FF4E133CE
:10125000436000238360C36003610C2242618361A9
:10126000C3610362436204F0B1F800B908BDFFF73F
:1012700073FF00BF180300200050004008B502F0C3
:1012800004FDFFF76BFFFFF76FF9FFF7DBFFFFF7D9
:10129000E1FC00F0B9F8FFF735F9FFF7FBFBFFF7CA
:1012A0006DFD00F0E9F8064B1A68136843F020035F
:1012B000136006F0BFFAFFF70FFF06F0D9FAFEE75A
:1012C00018030020034AD2F8883043F47003C2F8B0
:1012D0008830704700ED00E010B503460C4A0D4918
:1012E0000D48006840B10C4800680344521A93420C
:1012F00006D8094A136010BD0748084C0460F2E79D
:1013000007F040FD0C2303604FF0FF30F3E700BF10
:101310000000082000040000900B0020703A01201B
:1013200000B583B00D4B1A6C42F080521A641A6CEF
:1013300002F080520092009A5A6C42F480425A6441
:101340005B6C03F480430193019B00220F216FF03B
:10135000010003F071FE03B05DF804FB00380240A9
:10136000F0B589B000230393049305930693079384
:101370000268224B9A4201D009B0F0BD03F5F43364
:101380001A6C42F480121A641A6C02F480120092F1
:10139000009A1A6B42F004021A631A6B02F00402FC
:1013A0000192019A1A6B42F008021A631B6B03F058
:1013B00008030293029B4FF4805303930224049486
:1013C000032706970826079603AD29460C4800F028
:1013D0003BFC04230393049400240594069707968A
:1013E0002946084800F030FC22460521352003F04C
:1013F00023FE352003F030FEBEE700BF0050004062
:1014000000080240000C024008B50E480E4B036075
:10141000002343608360C3608363C36303644364E6
:101420008364C36403F0A0FE28B90121054803F0DA
:10143000D3FE18B908BDFFF78FFEF6E7FFF78CFE65
:10144000F8E700BF940B002000B002400268094B8F
:101450009A4200D0704782B0A3F5F0431A6B42F471
:1014600000021A631B6B03F400030193019B02B09B
:10147000704700BF00B0024008B50848084B036041
:10148000002303714371436183610123036201F00F
:101490000BFF00B908BDFFF75FFEFBE7EC0B002078
:1014A000003002400268094B9A4200D0704782B077
:1014B00003F500631A6B42F480521A631B6B03F44A
:1014C00080530193019B02B0704700BF003002407F
:1014D000002800F0068270B582B00446036813F05D
:1014E000010F29D0954B9B6803F00C03042B1AD0F5
:1014F000924B9B6803F00C03082B0FD06368B3F585
:10150000803F40D0002B54D18C4B1A6822F480329B
:101510001A601A6822F480221A6039E0874B5B68EF
:1015200013F4800FEAD0854B1B6813F4003F03D0FF
:101530006368002B00F0D781236813F0020F74D08A
:101540007E4B9B6813F00C0F5ED07C4B9B6803F0C6
:101550000C03082B53D0E368002B00F08980774AF6
:10156000136843F00103136002F0A6FB0546734BBA
:101570001B6813F0020F72D102F09EFB401B022881
:10158000F5D90320B4E16D4A136843F48033136046
:1015900063682BB302F090FB0546684B1B6813F49D
:1015A000003FC9D102F088FB401B6428F5D9032015
:1015B0009EE1B3F5A02F09D0604B1A6822F4803267
:1015C0001A601A6822F480221A60E1E75B4B1A68FD
:1015D00042F480221A601A6842F480321A60D7E717
:1015E00002F06AFB0546554B1B6813F4003FA3D07D
:1015F00002F062FB401B6428F5D9032078E14F4BD1
:101600005B6813F4800FA6D14C4B1B6813F0020FDC
:1016100003D0E368012B40F06881484A136823F047
:10162000F803216943EAC1031360236813F0080F2C
:1016300046D0636983B3414A536F43F00103536754
:1016400002F03AFB05463D4B5B6F13F0020F37D1BA
:1016500002F032FB401B0228F5D9032048E1374A4B
:10166000136823F0F803216943EAC1031360DCE740
:10167000324A136823F00103136002F01DFB054694
:101680002E4B1B6813F0020FCFD002F015FB401B4E
:101690000228F5D903202BE1284A536F23F00103D8
:1016A000536702F009FB0546244B5B6F13F0020FF2
:1016B00006D002F001FB401B0228F5D9032017E1F8
:1016C000236813F0040F7DD01C4B1B6C13F0805F5C
:1016D0001ED11A4B1A6C42F080521A641B6C03F034
:1016E00080530193019B0125154B1B6813F4807FE8
:1016F00010D0A368012B25D0002B3BD10F4B1A6FC4
:1017000022F001021A671A6F22F004021A671EE023
:101710000025E9E70A4A136843F48073136002F076
:10172000CBFA0646064B1B6813F4807FE1D102F02A
:10173000C3FA801B6428F5D90320D9E000380240A1
:1017400000700040724A136F43F001031367A368EF
:1017500033B302F0B1FA06466D4B1B6F13F0020F64
:101760002FD102F0A9FA801B41F288339842F3D9B5
:101770000320BDE0052B09D0654B1A6F22F0010252
:101780001A671A6F22F004021A67E0E7604B1A6FBB
:1017900042F004021A671A6F42F001021A67D6E794
:1017A00002F08AFA06465A4B1B6F13F0020F08D05C
:1017B00002F082FA801B41F288339842F3D9032069
:1017C00096E0FDB9A369002B00F09180504A926821
:1017D00002F00C02082A59D0022B19D04C4A136887
:1017E00023F08073136002F067FA0446484B1B68CD
:1017F00013F0007F48D002F05FFA001B0228F5D9F1
:10180000032075E0424A136C23F080531364D9E738
:101810003F4A136823F08073136002F04DFA0546C7
:101820003B4B1B6813F0007F06D002F045FA401BCB
:101830000228F5D903205BE0E369226A1343626A58
:1018400043EA8213A26A5208013A43EA0243E26A77
:1018500043EA0263226B43EA02732D4A5360136822
:1018600043F08073136002F027FA0446284B1B688C
:1018700013F0007F06D102F01FFA001B0228F5D9F1
:10188000032035E0002033E0002031E0204A526898
:10189000012B2FD002F48003E1698B422CD102F09E
:1018A0003F03216A8B4229D1616A47F6C073134016
:1018B000B3EB811F24D102F44031A36A5B08013BE2
:1018C000B1EB034F1ED102F07063E16AB3EB016F1D
:1018D0001AD102F0E042236BB2EB037F16D1002055
:1018E00006E001207047012002E0012000E0002016
:1018F00002B070BD0120FBE70120F9E70120F7E706
:101900000120F5E70120F3E70120F1E70120EFE7EF
:101910000038024070B588B00C461546F8B9204E24
:10192000336B43F001033363336B03F00103019323
:10193000019B4FF4807303930223049303230693C4
:1019400000230593079303A9164800F07DF9B368B7
:1019500023F0EC6325431D43B56008B070BD104E05
:10196000336B43F004033363336B03F004030293DC
:10197000029B4FF400730393022304930323069303
:1019800000230593079303A9074800F05DF9B368A6
:1019900023F0784344EAC5041C43B460DDE700BF8C
:1019A00000380240000002400008024008B5264B03
:1019B0009B6803F00C03042B41D0082B41D1224B30
:1019C0005A6802F03F025B6813F4800F12D01E4B7E
:1019D0005968C1F388111D480023A1FB0001FEF7DF
:1019E00067FC194B5B68C3F3014301335B00B0FB39
:1019F000F3F008BD144B5868C0F388104FEA401C40
:101A0000BCEB000C6EEB0E0E4FEA8E1343EA9C63A8
:101A10004FEA8C11B1EB0C0163EB0E03DB0043EAE0
:101A20005173C90011EB000C43F10003990200232C
:101A30004FEA8C2041EA9C51FEF73AFCD1E703487B
:101A4000D7E70348D5E700BF0038024040787D0162
:101A50000024F400002800F0A08070B50D46044674
:101A6000524B1B6803F00F038B420BD24F4A136893
:101A700023F00F030B431360136803F00F038B4233
:101A800040F08D80236813F0020F17D013F0040F7D
:101A900004D0474A936843F4E0539360236813F0FB
:101AA000080F04D0424A936843F460439360404A6D
:101AB000936823F0F003A1680B439360236813F04D
:101AC000010F31D06368012B20D0022B25D0384A7A
:101AD000126812F0020F64D035498A6822F00302BE
:101AE00013438B6002F0E8F80646314B9B6803F025
:101AF0000C036268B3EB820F16D002F0DDF8801B96
:101B000041F288339842F0D9032045E0284A126810
:101B100012F4003FE0D101203EE0254A126812F0A5
:101B2000007FD9D1012037E0204B1B6803F00F0361
:101B3000AB420AD91D4A136823F00F032B431360ED
:101B4000136803F00F03AB422DD1236813F0040F89
:101B500006D0174A936823F4E053E1680B4393607F
:101B6000236813F0080F07D0114A936823F46043E9
:101B7000216943EAC1039360FFF718FF0C4B9B6890
:101B8000C3F303130B4AD35CD8400B4B18600B4BC9
:101B90001868FEF7EDFB002070BD012070470120A2
:101BA000FAE70120F8E70120F6E700BF003C024019
:101BB00000380240009A00080000002008000020C1
:101BC000014B1868704700BF0000002008B5FFF700
:101BD000F7FF044B9B68C3F38223034AD35CD840CE
:101BE00008BD00BF00380240F899000808B5FFF7AB
:101BF000E7FF044B9B68C3F34233034AD35CD840EE
:101C000008BD00BF00380240F89900080F230360A8
:101C10000B4B9A6802F0030242609A6802F0F002ED
:101C200082609A6802F4E052C2609B68DB0803F4A9
:101C3000E0530361034B1B6803F00F030B60704715
:101C400000380240003C024000230F2B00F2F480D9
:101C500070B582B066E085684FEA430E032404FA4B
:101C60000EF425EA0405CC6804FA0EF42C438460D3
:101C7000446824EA02044A68C2F300129A402243EC
:101C800042605DE0DC08083450F8242003F00705CA
:101C9000AD004FF00F0E0EFA05FE22EA0E0E0A6995
:101CA000AA4042EA0E0240F824205DE0092200E04A
:101CB000002202FA0EF22A430234604D45F8242035
:101CC0005F4A94686FEA0C0224EA0C054E6816F429
:101CD000801F01D04CEA0405594CA560E46802EA73
:101CE00004054E6816F4001F01D04CEA0405544C5C
:101CF000E560646802EA04054E6816F4003F01D00E
:101D00004CEA04054E4C6560246822404D6815F489
:101D1000803F01D04CEA0402494C226001330F2B72
:101D200000F2888001229A400C6804EA020C32EA30
:101D30000404F3D14C6804F00304013C012C8AD95B
:101D40004A6802F00302032A09D0C4685D00032236
:101D5000AA4024EA02048A68AA402243C2604A6870
:101D600002F00302022A8DD004684FEA430E0322D8
:101D700002FA0EF224EA02044A6802F0030202FAAE
:101D80000EF2224302604A6812F4403FC6D02D4A48
:101D9000546C44F480445464526C02F480420192C6
:101DA000019A9C08A51C254A52F8255003F0030E01
:101DB0004FEA8E0E0F2202FA0EF225EA0205224A9F
:101DC00090423FF475AF02F58062904222D002F556
:101DD0008062904220D002F5806290421ED002F5CF
:101DE000806290421CD002F5806290421AD002F5C7
:101DF0008062904218D002F58062904216D002F5BF
:101E00008062904214D002F5806290423FF44EAF5F
:101E10000A224EE701224CE702224AE7032248E762
:101E2000042246E7052244E7062242E7072240E76C
:101E300008223EE702B070BD704700BF0038014085
:101E4000003C014000380240000002400AB18161BC
:101E50007047090481617047436901EA030221EA7E
:101E6000030141EA024181617047000000285DD012
:101E700010B5044690F84130002B46D0242384F856
:101E800041302268136823F00103136063682268FD
:101E900023F0706313612268936823F40043936016
:101EA000E368012B36D0A368226843F404439360AF
:101EB000E368022B34D02268536823F40063536034
:101EC000226851681A4B0B4353602268D36823F48D
:101ED0000043D360236962691343A169226843EA1E
:101EE0000123D360E369216A22680B4313602268EF
:101EF000136843F00103136000206064202384F81A
:101F00004130206384F8420010BD80F84030FEF775
:101F100063FFB3E7A368226843F400439360C7E715
:101F20002268536843F400635360C9E70120704797
:101F3000008000022DE9F04383B0D0F8008001EB6F
:101F4000C10300EB83039A6A5B6A9A4254D807463E
:101F50000C469B1A01EBC10200EB8202D2699A4245
:101F600000D31A4602F103094FEA990915E006F178
:101F700003094FEA9909BB7904EBC40507EB850512
:101F8000296A0093B3B2E2B2404602F0E0F92B6A4C
:101F900033442B62AB6A3344AB6208EB441303F562
:101FA00010639B699BB24B4512D304EBC40307EB50
:101FB00083039A6A5B6A9A420AD24BB19B1A04EB7A
:101FC000C40207EB8202D6699E42D0D31E46CEE7FA
:101FD00004EBC40307EB83077A6ABB6A9A420FD803
:101FE00004F00F040122A240D8F8343823EA020397
:101FF000C8F83438002000E0012003B0BDE8F083C9
:102000000020FAE730B583B0002800F08280044653
:10201000056890F89534C3B1032384F89534B5F17D
:10202000A04F17D0206801F047FF237C8DF80030C7
:10203000231D0ECB206801F085FE70B1022384F8C9
:1020400095340125284603B030BD80F8943406F05D
:1020500051FBE1E70023A371E4E70021206802F0CF
:102060008CFB0246B8B903462079984218D903EB95
:10207000C30104EB8101012048750B75CB8500205D
:102080000876C861086203EBC30104EB8101486272
:102090000133DBB2E8E7022384F895340125D1E768
:1020A000904217D902EBC20304EB8303002183F8AB
:1020B000551283F8542283F85812C3F85C12C3F8FF
:1020C000601202EBC20304EB8303C3F86412013213
:1020D000D2B2E5E7237C8DF80030231D0ECB2068BB
:1020E00001F040FF054658B900236374012384F8CA
:1020F0009534237B012B08D0206802F0FDFAA1E77C
:10210000022384F8953401259CE7204601F08EF9DE
:10211000F2E7012596E790F89434012B0ED010B524
:102120000446012380F89434006801F0BFFE206863
:1021300002F0D4FA002084F8940410BD0220704705
:1021400070B504460D460068066C00EB411303F5BC
:1021500030639A68A179012911D038498E4256D04E
:102160003DB905EBC50304EB8303D3F86432002BC0
:102170005ED0E9B2204606F071FB002070BD12F07F
:10218000080F09D02E498E42F7D912F4004FF4D02F
:102190004FF400429A60F0E712F0200F02D02022A4
:1021A0009A60EAE712F0280FE7D125498E4206D956
:1021B00012F4004F03D04FF400429A60DDE705EBC4
:1021C000C50204EB8202D2F874121B69C3F3120336
:1021D000CB1AC2F868327DB905EBC50204EB820266
:1021E000D2F864226AB105EBC50204EB8202D2F890
:1021F00060121944C2F86012E9B2204606F02EFBC4
:10220000BBE704F29C42012102F0F6FAF4E712F473
:10221000004F03D04FF400429A60AEE712F0200F57
:1022200001D020229A60E9B2204606F017FBA4E70D
:1022300004F29C42002102F0DFFA9AE70A31544F7F
:102240000A30544F38B5044603681D6C03EB411344
:10225000D3F8081B0E4A954207D903F5306311F4F1
:10226000004F02D04FF400429A60204606F0EEFA8A
:10227000074B9D4202D9A379012B01D0002038BD24
:1022800004F29C420121206802F0B6FAF6E700BF92
:102290000A30544F90F89434012B0CD010B50446FA
:1022A000012380F894344174006802F007FA00209A
:1022B00084F8940410BD0220704738B505468C465A
:1022C00011F0800F2BD101F00F0E0EEBCE04A40005
:1022D00004F514740444211D0EEBCE0E00EB8E0E9B
:1022E00000208EF855020CF00F0C81F800C0C2F3EC
:1022F0000A028A600B714A780AB1A1F81AC0022B4F
:102300001CD095F89434012B1BD0012385F894340C
:10231000286801F001FF002085F8940438BD01F021
:102320000F0000EBC001890010312944043100EB9B
:10233000C00005EB800001244475D4E700234B71F5
:10234000DFE70220EAE710B504460A4611F0800FE5
:1023500020D101F00F0000EBC0039B0003F51473C4
:102360002344191D00EBC00004EB8000002380F81B
:10237000553202F00F020A7094F89434012B18D0F1
:10238000012384F89434206801F012FF002084F8BF
:10239000940410BD01F00F0000EBC0039B0010334C
:1023A0002344191D00EBC00004EB8000012343759A
:1023B000DFE70220EDE710B5144601F00F0C0CEB3F
:1023C000CC01890001F51471014404310CEBCC0EF1
:1023D00000EB8E0ECEF86022CEF864320023CEF8E9
:1023E00068328EF855328EF854C28279012A04D0B0
:1023F000006801F0C3FF002010BDCEF87042F7E77F
:1024000001F00F0101EBC10100EB8100D0F868027F
:10241000704710B5144601F00F0C0CEBCC0189008D
:102420001031014404310CEBCC0E00EB8E0ECEF8D3
:102430002020CEF824300023CEF8283001238EF857
:1024400015308EF814C082799A4204D0006801F0E9
:1024500095FF002010BDCEF83040F7E738B501F009
:102460000F050279AA4238D304460B4611F0800FBB
:102470001FD101EBC101890001F514710144043140
:1024800003EBC30300EB8303002283F855220123EF
:102490008B700D7094F89434012B20D0012384F8B4
:1024A0009434206802F0AFF885B1002084F89404D9
:1024B00038BD05EBC501890010310144043105EB3D
:1024C000C50300EB830301225A75E0E704F29C4246
:1024D000A179206802F090F9E7E70120E8E70220FF
:1024E000E6E701F00F0302799A4230D310B50446B3
:1024F00011F0800F1ED103EBC301890001F51471A7
:102500000144043103EBC30200EB8202002082F895
:10251000550200228A700B7094F89434012B18D065
:10252000012384F89434206802F09AF8002084F89B
:10253000940410BD03EBC301890010310144043140
:1025400003EBC30200EB820201205075E1E701209A
:1025500070470220EDE708B511F0800F0CD101F0B3
:102560000F0101EBC101890001F51471014404312F
:10257000006801F08DFE08BD01F00F0101EBC10103
:102580008900103101440431F2E72DE9F04F83B0A6
:1025900004460568284602F0ECF810B103B0BDE827
:1025A000F08F0646206802F0B5F80028F6D005F551
:1025B0000067BB68C3F30D23C4F8D434206802F06D
:1025C000A9F810F0020F04D02268536903F0020347
:1025D0005361206802F09EF810F0100F16D02268A8
:1025E000936923F010039361D5F8208008F00F0958
:1025F00008F4F013B3F5802F6AD0B3F5402F00F044
:102600008D802268936943F010039361206802F083
:1026100081F810F4002F40F09380206802F07AF8DF
:1026200010F4802F40F0FC80206802F073F800283E
:10263000C0F27D81206802F06DF810F4006F09D0BF
:10264000BB6813F0010F40F08A812268536903F4DC
:1026500000635361206802F05DF810F0006F15D040
:102660002268536903F00063536194F8CC34002B63
:1026700040F07981012184F8CC1423685B6DC3F3A9
:102680008303C4F8D034204606F0A6F9206802F08F
:1026900041F810F4805F40F06A81206802F03AF857
:1026A00010F4005F40F0B681206802F033F810F0BB
:1026B000080F40F0C781206802F02CF810F0800F5E
:1026C00000F0DA81AB6923F08003AB610126C3E13E
:1026D00047F6F07318EA030F93D04FEA181A4FEA3F
:1026E000C903019309EBC90B04EB8B0BC8F30A1266
:1026F000DBF86012284601F063FFDBF86032CAF3B2
:102700000A0A5344CBF86032DBF86832019A4A4433
:1027100004EB82025344C2F8683272E7082204F2E2
:102720009C41284601F04CFF09EBC90304EB8303ED
:10273000D3F86822C8F30A184244C3F8682260E755
:10274000206801F0EBFF8046B14635E005EB491308
:102750000122C3F8082B49462046FFF7F1FC3CE074
:1027600005EB49130822C3F8082B49462046FFF71A
:1027700069FD35E009EBC90304EB830393F8573295
:10278000012B41D005EB49130222C3F8082B1AF0A4
:10279000200F04D005EB49132022C3F8082B1AF4AC
:1027A000005F05D005EB49134FF40052C3F8082B26
:1027B00009F101094FEA5808B8F1000F3FF42DAFB5
:1027C00018F0010FF4D05FFA89FB5946206801F038
:1027D000B5FF824610F0010FB8D11AF0080FBFD133
:1027E0001AF0100F04D005EB49131022C3F8082B80
:1027F0001AF0020FCBD06B6913F0800FBAD07B6850
:1028000043F480637B60B5E709EBC90304EB830302
:10281000002283F857225946204606F06FF8B1E7A8
:10282000206801F083FF8046B14625E059462046E6
:1028300006F020F81AF0080F04D005EB491308221F
:10284000C3F808291AF0100F04D005EB4913102221
:10285000C3F808291AF0400F04D005EB49134022B1
:10286000C3F808291AF0020F40D11AF0800F59D18D
:1028700009F101094FEA5808B8F1000F3FF4D4AE4E
:1028800018F0010FF4D05FFA89FB5946206801F077
:102890005EFF824610F0010FCCD009F00F0201213B
:1028A00001FA02F27B6B23EA02037B6305EB491317
:1028B000C3F80819A3798B42B8D109EBC90304EB1B
:1028C00083031A6AD9690A441A62B9F1000FADD1BB
:1028D00009EBC90304EB83035B6A002BA6D104F266
:1028E0009C420121206801F087FF9FE74946284666
:1028F00001F0E8FA09EBC90304EB8303DB7D012B4C
:1029000005D005EB49130222C3F80829ADE709EB0E
:10291000C90304EB83030022DA755946204605F00B
:10292000F3FFEEE749462046FFF704FBA0E77B688C
:1029300023F001037B6094F8CC34012B08D02046AF
:1029400005F0D6FF2268536903F00043536171E636
:10295000002184F8CC14204606F03EF8F2E7204629
:1029600005F0AEFF71E6204605F0AAFF8EE67B6813
:1029700023F001037B601021206801F0A3FA1AE024
:1029800005EB46134FF67F31C3F80819D3F8002939
:1029900022F40012C3F80029C3F8081BD3F8002B57
:1029A00022F40012C3F8002BD3F8002B42F000628F
:1029B000C3F8002B01362379B342E1D8FB6943F019
:1029C0000113FB61E37BDBB1D7F8843043F00B03E9
:1029D000C7F884307B6C43F00B037B64D5F8003878
:1029E00023F4FE63C5F8003804F29C42A179206804
:1029F00001F002FF2268536903F4805353614CE6EF
:102A00007A6942F22B0313437B613B6943F00B036A
:102A10003B61E3E7206801F0E1FE206801F06AFB1A
:102A2000E0712668FFF7CCF80146E279304601F004
:102A3000CBF9204605F02FFF2268536903F40053B9
:102A4000536131E6204605F020FF2268536903F008
:102A5000080353612FE601362379B3420CD906EB04
:102A6000C60304EB830393F85732012BF3D1F1B281
:102A70002046FFF770FDEEE7206801F04BFE10F4F2
:102A8000801F25D1206801F045FE10F4001F58D0AA
:102A9000012326E001362379B3421BD905EB461307
:102AA000D3F8002906EBC60304EB83031B7E012B3E
:102AB000F0D1002AEEDA06EBC60304EB8303012211
:102AC000DA7566F07F01C9B22046FFF744FDE1E701
:102AD0000126E0E72268536903F480135361D1E7CC
:102AE000013322799A4227D905EB4312D2F8001B11
:102AF00003EBC30204EB820292F85822012AEFD1C1
:102B00000029EDDAD4F8D42482EA114212F0010F40
:102B1000E6D103EBC30204EB8202012182F85712D3
:102B2000AA6942F08002AA616A6912F0800FD7D1C7
:102B30007B6843F400737B602268536903F40013DD
:102B40005361206801F0E6FD10F0804F10D120683D
:102B500001F0E0FD10F0040F3FF420AD23685D6844
:102B600015F0040F0DD1226853682B43536015E50F
:102B7000204605F0CFFE2268536903F0804353617D
:102B8000E5E7204605F0CCFEEDE7000070B54D68A6
:102B90000368DC68C4F30B4425444FEAC21C03EB12
:102BA000C213D3F8884004F47044C3F888400B681B
:102BB0000468E668C6F30B4E7344013304EBC21499
:102BC00043EA0543C4F88830CD680368DC68C4F381
:102BD0000A0405EB040E03EBC213D3F88C4004F493
:102BE0007044C3F88C408B680468E568C5F30A0537
:102BF0002B44013304EBC21443EA0E43C4F88C3077
:102C0000036803EBC213D3F8944024F00704C3F81D
:102C10009440036803EBC2130C69C3F8944091F825
:102C2000316091F832508C6991F8303043EA0623D4
:102C300043EA0543056805EBC21E43EA0463CEF888
:102C40009C300EF1840E036803EBC213D3F8984056
:102C500024F0FF04C3F89840036803EBC2134C69E7
:102C6000C3F89840036803EBC213D3F8A050294C73
:102C70002C40C3F8A040CC69036803EBC2130D6A73
:102C80002C43C3F8A040036803EBC2134A6AC3F89D
:102C9000AC200B69072B05D8DFE803F03A32343655
:102CA00034040438012503686344D3F8B02002F0EB
:102CB000E022C3F8B0208B6A05FB03F44B680A6876
:102CC0009B1A05FB03F303330268624443EA04439F
:102CD000C2F8B03003686344D3F8B4206FF30A023B
:102CE000C3F8B42003686344CA6AC3F8B420036815
:102CF0006344D3F8842042F00102C3F8842070BDFD
:102D00000325D0E70225CEE70225CCE70225CAE756
:102D10000425C8E7F8F8FFFF002859D010B504468D
:102D200090F8A130002B4ED0022384F8A130226805
:102D3000936923F07043936121688A696368A0688E
:102D40000343E06803432069034313438B616169D4
:102D5000A369226843EA01439360E169236A226818
:102D600043EA0143D360616AA36A226843EA0143EC
:102D70001361E16A236B226843EA0143536194F8CB
:102D8000350094F836301B042168CA6A02F07F428D
:102D9000CA622168CA6A43EA002394F834000343F4
:102DA0001343CB622268536B43F0060353632268DC
:102DB000936943F0010393610020C4F8A400012348
:102DC00084F8A13010BD80F8A030FDF79FFFABE77D
:102DD0000120704770477047704770B5044603681C
:102DE0009D6B5E6B15F0040F02D016F0040F12D12C
:102DF00015F0020F02D016F0020F21D115F0010FCD
:102E000002D016F0010F32D115F0080F02D016F0E3
:102E1000080F3DD170BD5A6B22F004025A6303685B
:102E20000422DA63D0F8A43043F00103C0F8A430E0
:102E300080F8A120002380F8A030FFF7CBFFD7E770
:102E40002268536B23F00203536323680222DA6380
:102E5000D4F8A4301343C4F8A430042384F8A13078
:102E6000002384F8A0302046FFF7B4FFC6E72268AD
:102E7000536B23F00103536322680123D36384F867
:102E8000A130002384F8A0302046FFF7A4FFBBE761
:102E90002268536B23F00803536323680822DA6324
:102EA000012384F8A130002384F8A0302046FFF7E6
:102EB00093FFAFE7F8B590F8A030012B2CD0044673
:102EC0000D461646012780F8A070022380F8A13035
:102ED0004FF0340C0CFB020C0CF1380C8E46BEE8A3
:102EE0000F00ACE80F00BEE80F00ACE80F00BEE832
:102EF0000F00ACE80F00DEF80030CCF800303246AE
:102F000029462046FFF742FE23685F6284F8A170DD
:102F1000002084F8A000F8BD0220FCE77047000004
:102F200090F83D30012B3AD1022380F83D30026801
:102F3000D36843F00103D36003681B4AB3F1804FA9
:102F400018BF93421DD0A2F57C42934219D002F5DE
:102F50008062934215D002F58062934211D002F54F
:102F6000784293420DD002F57052934209D0A2F5F7
:102F70009432934205D01A6842F001021A60002090
:102F800070479968094A0A40062A18BFB2F5803F7F
:102F900007D01A6842F001021A6000207047012031
:102FA00070470020704700BF00000140070001008B
:102FB000704770477047704770B504460368DE6815
:102FC0001D6915F0020F10D016F0020F0DD06FF032
:102FD00002021A610123037703689B6913F0030F50
:102FE00064D0FFF7E6FF0023237715F0040F12D01B
:102FF00016F0040F0FD023686FF004021A61022349
:10300000237723689B6913F4407F55D02046FFF750
:10301000D0FF0023237715F0080F12D016F0080F09
:103020000FD023686FF008021A6104232377236806
:10303000DB6913F0030F46D02046FFF7BAFF0023E9
:10304000237715F0100F12D016F0100F0FD0236851
:103050006FF010021A61082323772368DB6913F4E9
:10306000407F37D02046FFF7A4FF0023237715F0D9
:10307000010F02D016F0010F33D115F4025F02D018
:1030800016F0800F35D115F4807F02D016F0800F36
:1030900037D115F0400F02D016F0400F39D115F09E
:1030A000200F02D016F0200F3BD170BDFFF780FF3C
:1030B0002046FFF77FFF96E72046FFF779FF20467F
:1030C000FFF778FFA5E72046FFF772FF2046FFF7DE
:1030D00071FFB4E72046FFF76BFF2046FFF76AFF5A
:1030E000C3E723686FF001021A612046FEF728F853
:1030F000C3E723686FF402521A61204600F0ABF96F
:10310000C1E723686FF480721A61204600F0A4F9C9
:10311000BFE723686FF040021A612046FFF74BFFBC
:10312000BDE723686FF020021A61204600F092F993
:10313000BBE7000070B403683C4A904214BF002211
:103140000122B0F1804F14BF144642F00104ACB923
:10315000374DA84214BF00250125364EB0420DD090
:1031600065B905F1804505F58235A84214BF0025F3
:10317000012506F50066B04200D01DB123F07003B2
:103180004D682B43002C33D1294CA04214BF00249E
:103190000124284DA8422BD054BB04F1804404F5EF
:1031A0008234A04214BF0024012405F50065A84222
:1031B0001ED0ECB9204CA04214BF0024012405F518
:1031C0009A35A84214D09CB91C4CA04214BF0024CC
:1031D000012405F50065A8420AD04CB9184CA0425C
:1031E00014BF00240124A5F59635A84200D01CB1D7
:1031F00023F44073CC68234323F080034C692343BA
:103200008C68C4620C6884620E4CA04208BF42F015
:1032100001020AB10A690263026842F00402026014
:1032200001224261036070BC704700BF0000014092
:103230000008004000040040004401400018004025
:10324000002000400004014060B310B5044690F82F
:103250003D3013B3022384F83D30214651F8040B6E
:10326000FFF768FF012384F8483084F83E3084F883
:103270003F3084F8403084F8413084F8423084F89C
:10328000433084F8443084F8453084F8463084F87C
:10329000473084F83D30002010BD80F83C30FFF707
:1032A0003DFED7E701207047002838D010B504460E
:1032B000437F1BB30223637723791BBB2368194A1F
:1032C0005A612268936823F018039360637913BBF3
:1032D00023684FF0FF321A612268936823F060037D
:1032E00061690B4393602268936823F08003A169AE
:1032F0000B43936001236377002010BD0377FEF733
:10330000D1F8D7E7E268A168204601F0F1FE002875
:10331000DCD00120F1E7236822691A61DCE7012093
:10332000704700BFB71DC104034690F84120202A12
:1033300023D190F84020012A21D0012280F840209A
:10334000242280F841200068026822F00102026015
:103350001868026822F480520260186802680A4302
:10336000026019680A6842F001020A60202283F8AC
:103370004120002083F8400070470220704702205F
:103380007047034690F84120202A21D190F8402030
:10339000012A1FD0012280F84020242280F84120F9
:1033A0000068026822F0010202601868026822F4D4
:1033B000706242EA0122026019680A6842F0010262
:1033C0000A60202283F84120002083F840007047E3
:1033D000022070470220704710B40468606A31B957
:1033E00040EA0240A06200205DF8044B70478C4622
:1033F000A36A00EB1340002308E003F1400104EB53
:103400008101496800EB11400133DBB20CF1FF315F
:103410008B42F2D340EA02400CF13F0104EB8104FD
:103420006060E0E703685962002070470346026865
:103430000121C0F8D814002083F8CC04936943F02C
:1034400000639361516D024B0B435365704700BF9E
:1034500003000010704770477047027C012A75D046
:1034600003460122027400680022C0F8C4201868D4
:10347000C0F8C820996111F0010F69D010B4186824
:10348000D0F8C4404FF6FF722243C0F8C42011F0B8
:10349000020F06D01868D0F8C42042F4F812C0F821
:1034A000C42011F0040F06D01868D0F8C82042F0EC
:1034B0000102C0F8C82011F0080F06D01868D0F833
:1034C000C82042F00202C0F8C82011F0100F06D048
:1034D0001868D0F8C82042F00C02C0F8C82011F0DB
:1034E000200F06D01868D0F8C82042F01002C0F8AB
:1034F000C82011F0400F06D01868D0F8C82042F05C
:103500002002C0F8C82011F0800F06D01868D0F84B
:10351000C82042F04002C0F8C82011F4807F06D0D5
:103520001868D0F8C82042F08002C0F8C82011F412
:10353000007F06D01968D1F8C82042F4F852C1F8CB
:10354000C820002018745DF8044B704702207047B3
:1035500011F0020F06D01868D0F8C42042F4F81217
:10356000C0F8C42011F0040F06D01868D0F8C820A5
:1035700042F00102C0F8C82011F0080F06D0186808
:10358000D0F8C82042F00202C0F8C82011F0100F95
:1035900006D01868D0F8C82042F00C02C0F8C82045
:1035A00011F0200F06D01868D0F8C82042F01002A1
:1035B000C0F8C82011F0400F06D01868D0F8C82015
:1035C00042F02002C0F8C82011F0800F06D0186821
:1035D000D0F8C82042F04002C0F8C82011F4807F23
:1035E00006D01868D0F8C82042F08002C0F8C82081
:1035F00011F4007F06D01968D1F8C82042F4F852BF
:10360000C1F8C8200020187470470000002800F09E
:10361000068170B584B00D460446437C1BB303237A
:103620006374002300932268D2F8303443F080732F
:10363000C2F830342368D3F8303403F08073009339
:10364000009B00F039FB06462368D3F80C2412F4E3
:10365000805F0BD100F030FB801BB0F57A7FF3D98F
:10366000032004B070BDFDF7C3FAD8E7D3F83014D7
:103670006C4A0A40C3F830242168D1F83024286805
:103680006B68DB0243EA8003A86843EA0043134304
:10369000C1F83034002301932268D2F8303443F06B
:1036A0000103C2F830342368D3F8303403F0010347
:1036B0000193019B012000F005FB00F0FDFA064696
:1036C0002368D3F80C2412F4807F07D100F0F4FAB9
:1036D000801BB0F57A7FF3D90320C2E70022029263
:1036E0005A6842F001025A6023685A6802F00102E7
:1036F0000292029A9A6822F0FF029A602268936806
:10370000A1680B4393602268D2F8A03043F0020313
:10371000C2F8A0302268D2F8A03043F00403C2F807
:10372000A0302268D2F8A43023F00303C2F8A430FA
:103730002268D2F8A430E1680B43C2F8A43000F04C
:10374000BBFA06462368D3F8A43013F0030F10D059
:103750002368D3F8B03003F09403942B1AD000F010
:10376000ABFA831BB3F57A7FF2D9002323740320CD
:1037700077E72368D3F8B03003F01403142B09D093
:1037800000F09AFA801BB0F57A7FF2D900232374F7
:10379000032066E76B6803B90123234A02FB03F3A6
:1037A000AA6802F0030293402A6846F2A81101FBBE
:1037B00002F2B3FBF2F32168D1F8182422F03F02A1
:1037C000C1F818242168D1F818241343C1F818341B
:1037D00023680020C3F8C4002368C3F8C800A061B0
:1037E00003902268536823F00103536023685A68EA
:1037F00002F001020392039AD3F8942022F003020C
:10380000C3F894202268D2F8943061680B4343F0E7
:103810000103C2F8943060610123637421E7012041
:10382000704700BF0386FCFF00093D00037C012BAD
:103830000ED0012303740268136B23F00303136398
:103840000268136B0B43136300230374184670471D
:1038500002207047027C012A00F0238130B4034625
:10386000012202740068426B22F001024263186870
:10387000D0F8002422F00102C0F800241868826BFE
:1038800022F0030282631868826BCC682243826351
:103890001868C26B6FF30D02C2631868C26B0C69C3
:1038A0002243C2631868026C7F4C2240026418688D
:1038B000026C4D692A4302641868426C22404264DB
:1038C0001868426C8C69224342641868C26822F00E
:1038D0000302C2601868C2680C682243C26018689C
:1038E000426922F0070242611C6860694A6A0D6AF7
:1038F0002A43CD692A43024362611868026922F0B3
:103900000F020261186802694C682243026118685C
:10391000D0F8002422F00E02C0F800241868D0F875
:1039200000244C6842EA4402C0F800244A68032A92
:1039300000F0AC801868826C5C4C2240826418688D
:10394000826C8D6A2A4382641868C26C2240C26409
:103950001868C26CCC6A2243C2641868026D6FF3A7
:103960000E0202651868026D0C6B224302651C682A
:10397000626D4F48024062651C68626D4D6B2A4360
:1039800062651C68A26D0240A2651C68A26D8D6B09
:103990002A43A2651C68E26D0240E2651868C26DA8
:1039A000CC6B2243C2651868026E6FF30D0202668B
:1039B0001868026E0C6C224302661868826B22F44F
:1039C000004282631868826B4C6C224382631868E1
:1039D000826922F47F028261186882698C6C42EAF3
:1039E000044282611868826922F0FF0282611868CD
:1039F0008269CC6C224382611868826B22F4005287
:103A000082631868826B0C6D224382631868826B34
:103A100022F4805282631868826B4C6D2243826369
:103A20001868826B22F4006282631868826B8C6D66
:103A3000224382631868826B22F480628263186872
:103A4000826BCC6D224382631868826B22F4007211
:103A500082631868826B0C6E224382631868826BE3
:103A600022F4807282631868826B4C6E22438263F8
:103A70001868826B22F4804282631868826B896EB8
:103A80000A4382630020187430BC704718680269CA
:103A900022F480720261186802698C682243026114
:103AA00048E70220704700BF00E0FFFF00F0FFFF83
:103AB00000FCFFFF037C012B0ED00123037402687E
:103AC000D36A23F01F03D3620268D36A0B43D36225
:103AD000002303741846704702207047027C012AB5
:103AE0003ED030B40346012202740A68486882421C
:103AF00038BF02461C68D4F8980000F0FC20C4F8D7
:103B000098001C68D4F8980042EA02420243C4F8C4
:103B100098201868D0F89C2002F40042C0F89C203D
:103B20001C68D4F89C000A69CD6842EA05428D6899
:103B300042EA05620243C4F89C201868D0F8A42029
:103B400022F47F42C0F8A4201868D0F8A420496964
:103B500042EA0122C0F8A4200020187430BC70474B
:103B600002207047027C012A71D030B40346012242
:103B700002740068826822F47F428260186882685A
:103B80000C6842EA042282601868826F92B28267EF
:103B90001868826F4C6842EA044282671C68A06F12
:103BA0002C4A1040A0671C68A06F8D682843A0674E
:103BB0001C68E06F1040E0671C68E06FCD68284328
:103BC000E0671C68D4F880001040C4F880001C68CE
:103BD000D4F880000D692843C4F880001C68D4F82C
:103BE00084001040C4F884001C68D4F884004D6937
:103BF0002843C4F884001C68D4F8840020F0807046
:103C0000C4F884001C68D4F884008D692843C4F883
:103C100084001C68D4F888001040C4F888001C6830
:103C2000D4F88800CD692843C4F888001C68D4F80B
:103C30008C000240C4F88C201868D0F88C20096AE7
:103C40000A43C0F88C200020187430BC7047022052
:103C5000704700BF0000FFFF037C012B13D001233E
:103C600003740268D2F81C3423F0C063C2F81C3419
:103C70000268D2F81C3443EA4163C2F81C340023C2
:103C80000374184670470220704708B5032001F0FE
:103C9000C1F90020FCF76CFBFDF742FB002008BDDA
:103CA000034A1168034B1B780B441360704700BF35
:103CB000100C002004000020014B1868704700BF62
:103CC000100C002038B50446FFF7F6FF0546B4F1A6
:103CD000FF3F02D0044B1B781C44FFF7EDFF401B55
:103CE000A042FAD338BD00BF0400002082B00023F8
:103CF0000193019B01330193019BB3F1706F1CD8B9
:103D00000369002BF5DA0A23019302E0019B013BD2
:103D10000193019B002BF9D1036943F00103036177
:103D2000019B01330193019BB3F1706F08D80369C4
:103D300013F0010FF4D1002000E0032002B070471F
:103D40000320FBE784B010B5044603A880E80E000A
:103D50009DF81130012B1FD1A36B23F48033A36393
:103D6000E268184B1340E360E36823F44013E36018
:103D70009DF81830012B0AD02046FFF7B7FF9DF8B9
:103D80000E30012B14D0BDE8104004B07047E3683A
:103D900043F48013E360EFE7E36843F04003E3603C
:103DA0002046FFF7A3FFA36B43F48033A363E6E74A
:103DB000A36843F00603A360A36843F02003A36055
:103DC000E1E700BFBFFFBDFF022A0AD00922C36896
:103DD00023F47053C360C36843EA8223C3600020A6
:103DE0007047204B0B44204A934229D91F4B0B4468
:103DF0001F4A934226D91F4B0B441F4A934223D993
:103E00001E4B0B441E4A934220D31E4B0B441E4AAA
:103E100093421DD91D4B0B441D4A93421AD31D4B8F
:103E20000B441D4A934217D31C4B0B441C4A93422C
:103E300014D31C4B0B441C4A934211D20722C6E7F1
:103E40000F22C4E70E22C2E70D22C0E70C22BEE714
:103E50000B22BCE70A22BAE70922B8E70822B6E734
:103E60000622B4E7405327FFFF340C00401E1BFF1F
:103E70003F420F0000DC0BFF7F4F1200808CF9FEE9
:103E800020D6130060B6E5FE5FE3160000D3CEFE39
:103E900040771B00C05BB3FEC091210000CA91FEB9
:103EA00020753800E05459FEE09C4100836843F0DF
:103EB0000103836000207047836823F0010383605F
:103EC0000020704782B000230193019B01330193CE
:103ED000019BB3F1706F15D80369002BF5DA00234D
:103EE0000193890141F020010161019B013301939C
:103EF000019BB3F1706F08D8036913F0200FF4D160
:103F0000002000E0032002B070470320FBE782B0EE
:103F100000230193019B01330193019BB3F1706F67
:103F200013D80369002BF5DA0023019310230361F2
:103F3000019B01330193019BB3F1706F08D80369B2
:103F400013F0100FF4D1002000E0032002B07047FE
:103F50000320FBE7D0F800381943C0F80018002010
:103F60007047000084B0F8B5044607A880E80E004A
:103F7000002306E003F1400204EB820200215160BD
:103F800001330E2BF6D99DF8266006BBD4F8043811
:103F900043F00203C4F80438A36B23F40013A363B3
:103FA000236843F040032360236843F080032360C9
:103FB0000023C4F8003E9DF82130012B11D19DF85B
:103FC0001F304BB900212046FFF7C4FF0DE0A36B63
:103FD00043F40013A363EBE701212046FFF7BAFF88
:103FE00003E003212046FFF7B5FF10212046FFF72D
:103FF00069FF054600B101252046FFF788FF00B1A3
:10400000012504F5006C0023CCF81030CCF81430F6
:10401000CCF81C300DE04FF09040C2F8000902E0EF
:104020000020C2F8000900220A614FF67F328A6040
:1040300001339DF81C1099420ED904EB431202F58E
:104040001061D2F800090028EADA002BE3D14FF022
:104050000060C2F80009E6E700230AE0BBB14FF0B8
:104060009047C2F8007B002202614FF67F328260E7
:104070000133994210D904EB431202F53060D2F8B3
:10408000007B002FEADB0027C2F8007BEBE74FF054
:104090000067C2F8007BE6E7DCF8103023F4807399
:1040A000CCF810300023A3616FF0804363619DF86A
:1040B0001E301BB9A36943F01003A361A2690B4B27
:1040C0001343A3619DF822301BB1A36943F0080399
:1040D000A361012E04D02846BDE8F84004B0704723
:1040E000A269034B1343A361F5E700BF00383C808E
:1040F00004000040D0F8083803F00603022B04D077
:10410000062B04D02BB900207047022070470220F4
:1041100070470F207047000010B591F800C04B7831
:10412000012B21D000F5006ED0F81C380CF00F04E4
:104130000122A24043EA0243C0F81C3800EB4C10B5
:10414000D0F8003B13F4004F0CD1D0F8002B8B6853
:10415000C3F30A03097943EA81431A43134B134318
:10416000C0F8003B002010BDD0F81C280CF00F0E4A
:1041700003FA0EF39BB21343C0F81C3800EB4C104B
:10418000D0F8003913F4004FECD1D0F800298B6837
:10419000C3F30A03097943EA814343EA8C531A4380
:1041A000024B1343C0F80039DCE700BF0080001069
:1041B00030B40B784A78012A26D000EB4313D3F8A9
:1041C000002B002A52DBD0F83C480A7802F00F029C
:1041D0004FF0010C0CFA02F224EA0242C0F83C282B
:1041E000D0F81C28097801F00F010CFA01FC22EA32
:1041F0000C42C0F81C28D3F8001B234A0A40C3F81D
:10420000002B002030BC704700EB4313D3F800298B
:10421000002A1EDBD0F83C580A7802F00F02012475
:1042200004FA02F292B225EA0202C0F83C28D0F861
:104230001C28097801F00F018C40A4B222EA040284
:10424000C0F81C28D3F80019104A0A40C3F8002906
:10425000D7E7D3F8002942F00062C3F80029D3F869
:10426000002942F08042C3F80029D3E7D3F8002B9D
:1042700042F00062C3F8002BD3F8002B42F08042DA
:10428000C3F8002B9FE700BF0078F3EF007833EC12
:1042900010B483B0024600230193487801280BD064
:1042A0000B7802EB4313D3F8000B00282DDB002022
:1042B00003B05DF8044B70470B7802EB4313D3F85F
:1042C0000049002C01DB0020F2E7D3F8004944F05C
:1042D0000064C3F800490B7802EB4313D3F800499C
:1042E00044F08044C3F80049019B01330193019CD1
:1042F00042F210739C42DBD80B7802EB4313D3F8E5
:104300000039002BF0DB0020D2E7D3F8000B40F09F
:104310000060C3F8000B0B7802EB4313D3F8000BDB
:1043200040F08040C3F8000B019B013301930198DA
:1043300042F21073984208D80B7802EB4313D3F87B
:10434000003B002BF0DB0020B2E70120B0E710B506
:104350009DF8084084B903334FEA930E4FF0000CE8
:1043600008E000EB023303F5805351F8044B1C6066
:104370000CF1010CF445F4D3002010BDF0B583B06E
:104380000C784B78012B2DD000EB441C0CF53063DE
:104390001D696FF312051D611D696FF3DC451D6119
:1043A000002C40F0CE800C690CB18C680C618C68DC
:1043B0000C621D69C4F312042C431C611C6944F493
:1043C00000241C61012A00F0DF800B79012B00F032
:1043D000E180DCF8003B43F00443CCF8003B0020D4
:1043E00003B0F0BD0B6973BB00EB4413D3F8105955
:1043F0006FF3DC45C3F81059D3F8105945F4002584
:10440000C3F81059D3F810596FF31205C3F81059B7
:10441000012A54D000EB4414D4F8003943F004438B
:10442000C4F800390B79012B72D00B69002BD6D060
:10443000D0F83438097801F00F0101228A40134383
:10444000C0F83438CBE700EB441303F510631D6963
:104450006FF312051D611D696FF3DC451D6184B9A1
:104460000E698D68AE4200D90D611D6945F40025C5
:104470001D611D690E69C6F3120C45EA0C051D612C
:10448000C6E70D698E683544013DB5FBF6F51E693A
:104490001FFA85FC494F07EAC54535431D610D7973
:1044A000012DE6D11D6925F0C0451D611D694FEA4A
:1044B0004C7C0CF0C04C45EA0C051D61D9E7CB697A
:1044C0001BB100EB4412C2F814390B79012B08D050
:1044D00000EB4414D4F8003943F00443C4F8003925
:1044E0007DE7D0F8083813F4807F08D100EB441240
:1044F000D2F8003943F00053C2F80039E8E700EB86
:104500004412D2F8003943F08053C2F80039DFE793
:10451000D0F8083813F4807F0CD1D4F8003943F078
:104520000053C4F8003900920B8A0A78C968FFF773
:104530000EFF54E7D4F8003943F08053C4F8003933
:10454000F1E70C6954B91C698D68C5F312052C4359
:104550001C611C6944F400241C6133E78D682C4401
:10456000013CB4FBF5F4A4B204FB05F50D621D6932
:10457000124E06EAC4442C431C611C690D6AC5F343
:1045800012052C431C611DE7CA68002A3FF41DAFC9
:104590005A611AE7D0F8083813F4807F06D1DCF8A6
:1045A000003B43F00053CCF8003B12E7DCF8003B43
:1045B00043F08053CCF8003B0BE700BF0000F81F2E
:1045C00010B5844608464FEA920E02F0030200231B
:1045D00005E00CF58051096840F8041B0133734570
:1045E000F7D37AB10CF5805CDCF800400021CBB247
:1045F000DB0024FA03F300F8013B0131013A92B2E7
:10460000002AF4D110BD0B784A78012A14D000EBAF
:104610004310D0F8002B002A06DB2BB1D0F8003B6A
:1046200023F08043C0F8003BD0F8003B43F4001374
:10463000C0F8003B0020704700EB4310D0F8002981
:10464000002A06DB2BB1D0F8003923F08043C0F8F4
:104650000039D0F8003943F40013C0F80039E9E715
:104660000B784A78012A0ED000EB4310D0F8003BBB
:1046700023F40013C0F8003B0B79023BDBB2012BA3
:1046800015D90020704700EB4310D0F8003923F40F
:104690000013C0F800390B79023BDBB2012BF0D8D4
:1046A000D0F8003943F08053C0F80039E9E7D0F87A
:1046B000003B43F08053C0F8003BE2E7D0F80038FD
:1046C00023F4FE63C0F80038D0F80038090101F483
:1046D000FE610B43C0F8003800207047D0F8003E60
:1046E00023F00303C0F8003ED0F8043823F002039F
:1046F000C0F8043800207047D0F8003E23F00303D0
:10470000C0F8003ED0F8043843F00203C0F8043883
:10471000002070474269806910407047D0F818380F
:1047200000F50060C0691840000C7047D0F81838D8
:1047300000F50060C069184080B2704700EB41117D
:10474000D1F8082B00F50060406910407047D0F8A0
:104750001028D0F8343801F00F0C23FA0CF3DB01E9
:10476000DBB2134300EB411000F510608068184085
:104770007047406900F00100704738B50546C368CE
:1047800023F0C043C360012913D019BBC36843F0B1
:104790008043C36000240A20FFF794FA0A342846B5
:1047A000FFF7E7FF08B1C72CF5D9C82C14D00020BB
:1047B00038BDC36843F00053C36000240A20FFF7EC
:1047C00081FA0A342846FFF7D4FF0128EDD0C72C20
:1047D000F4D9EAE70120EBE70120E9E7D0F8003956
:1047E0006FF30A03C0F80039D0F8043843F480733B
:1047F000C0F804380020704710B4046C154B9C427C
:1048000003D9D0F8003B002B16DB0024C0F8104B76
:10481000D0F8104B44F40024C0F8104BD0F8104BE3
:1048200044F01804C0F8104BD0F8104B44F0C044CA
:10483000C0F8104B012903D000205DF8044B7047ED
:10484000C0F8142BD0F8003B43F08023C0F8003BA5
:10485000F2E700BF0A30544F10B40B68CBB90268BE
:104860006FF30E024B688C682343CC6823430C69BA
:1048700023434C6923438C692343CC6923430C6A4B
:104880002343496A0B431343036000205DF8044B44
:104890007047036823F4F843CA690C6A22434C6AE0
:1048A00022431343036042686FF30E024B688C6827
:1048B0002343CC6823430C6923434C692343896910
:1048C0000B4313434360E0E710B43ABB826802F045
:1048D00070420B68013B4C6804F1FF3C43EA0C1347
:1048E0008C6804F1FF3C43EA0C23CC6804F1FF3CE4
:1048F00043EA0C330C6904F1FF3C43EA0C434C6976
:1049000004F1FF3C43EA0C538969013943EA01632E
:104910001343836000205DF8044B70478368134A9B
:104920001A40CB6803F1FF3C4B69013B1B0543EA8E
:104930000C331A438260C26802F070420B68013B7C
:104940004C6804F1FF3C43EA0C138C6804F1FF3C13
:1049500043EA0C230C6904F1FF3C43EA0C438969E8
:10496000013943EA01631343C360D3E7FF0F0FFF2D
:10497000F0B583B00446066816F001060DD0B54BBD
:104980009A6822F400029A609A68416B0A439A601E
:10499000436B002B00F067810026256815F4002585
:1049A00011D0AC4AD2F88C3023F44013E16B0B43A6
:1049B000C2F88C30E36BB3F5801F00F05681002BFA
:1049C00000F055810025236813F4801F0FD0A14A01
:1049D000D2F88C3023F44003216C0B43C2F88C30A6
:1049E000236CB3F5800F00F0448103B901252368DF
:1049F00013F0807F00D0012613F0200F40F03B81A0
:104A0000236813F0100F0CD0924BD3F88C2022F0B7
:104A10008072C3F88C20D3F88C20A16B0A43C3F8B2
:104A20008C20236813F4804F08D08A4AD2F8903043
:104A300023F44033616E0B43C2F89030236813F4C3
:104A4000004F08D0834AD2F8903023F44023A16E5F
:104A50000B43C2F89030236813F4803F08D07D4A9E
:104A6000D2F8903023F44013E16E0B43C2F890303B
:104A7000236813F4003F08D0764AD2F8903023F42C
:104A80004003216F0B43C2F89030236813F0400FAE
:104A900008D0704AD2F8903023F00303616C0B43C6
:104AA000C2F89030236813F0800F08D0694AD2F81A
:104AB000903023F00C03A16C0B43C2F890302368B4
:104AC00013F4807F08D0634AD2F8903023F030038B
:104AD000E16C0B43C2F89030236813F4007F08D0D8
:104AE0005C4AD2F8903023F0C003216D0B43C2F82A
:104AF0009030236813F4806F08D0564AD2F8903073
:104B000023F44073616D0B43C2F89030236813F4B3
:104B1000006F08D04F4AD2F8903023F44063A16D63
:104B20000B43C2F89030236813F4805F08D0494AE1
:104B3000D2F8903023F44053E16D0B43C2F890302B
:104B4000236813F4005F08D0424AD2F8903023F46F
:104B50004043216E0B43C2F89030236813F4800F5A
:104B600008D03C4AD2F8903023F08063A16F0B4309
:104B7000C2F89030236813F4001F0DD0354AD2F8E4
:104B8000903023F00063E16F0B43C2F89030E36F85
:104B9000B3F1006F00F0D580236813F0080F00D048
:104BA000012513F4802F08D02A4AD2F8903023F040
:104BB0004073616F0B43C2F89030236813F4000F09
:104BC00009D0244AD2F8903023F08053D4F88010D2
:104BD0000B43C2F89030236813F0806F09D01D4A50
:104BE000D2F8903023F00053D4F884100B43C2F86D
:104BF0009030236813F0006F09D0164AD2F88C3039
:104C000023F00073D4F888100B43C2F88C3023686B
:104C100013F0805F09D00F4AD2F88C3023F0806304
:104C2000D4F88C100B43C2F88C3026B9236813F0EB
:104C3000007F00F00681074A136823F08063136049
:104C4000FFF73AF80646034B1B6813F0006F7AD063
:104C500002E000BF00380240FFF72EF8801B6428F6
:104C6000F1D90320F0E0012697E60126A7E6012509
:104C7000A9E60126B9E67F4B1A6C42F080521A640D
:104C80001B6C03F080530193019B7B4A136843F430
:104C900080731360FFF710F80746774B1B6813F417
:104CA000807F06D1FFF708F8C01B6428F5D90320E0
:104CB000CAE0704B1B6F13F4407315D0226B02F4E3
:104CC00040729A4210D06B4B1A6F22F44072196FE7
:104CD00041F480311967196F21F4803119671A671F
:104CE0001B6F13F0010F12D1236B03F44072B2F566
:104CF000407F1DD05F4A936823F4F81393605D49A9
:104D00000B6F226BC2F30B0213430B6778E6FEF7BF
:104D1000D3FF0746574B1B6F13F0020FE4D1FEF78A
:104D2000CBFFC01B41F288339842F3D903208BE0BC
:104D30005048826822F4F812504919400A438260B0
:104D4000DDE7012528E7236813F0010F13D0636B1B
:104D50008BB9484AD2F88430D2F88410606803F4E2
:104D6000403343EA801301F070610B43A16843EACA
:104D70000173C2F88430236813F4002F03D0E26B70
:104D8000B2F5801F06D013F4801F1ED0236CB3F53C
:104D9000800F1AD1374AD2F88430D2F88410606874
:104DA00003F4403343EA8013E06843EA006301F010
:104DB000E0410B43C2F88430D2F88C3023F01F035B
:104DC000616A01390B43C2F88C30236813F0807F8D
:104DD00011D0284AD2F88400D2F88410666823697A
:104DE0001B0443EA861300F07060034301F0E041C6
:104DF0000B43C2F88430236813F0007F0DD0626843
:104E000023691B0443EA8213E26843EA0263A2684F
:104E100043EA0273174AC2F88430164A136843F013
:104E200080631360FEF748FF0646124B1B6813F0C1
:104E3000006F06D1FEF740FF801B6428F5D90320E0
:104E400002E0012D02D0002003B0F0BD094A136832
:104E500023F080531360FEF72FFF0546054B1B68B8
:104E600013F0005F0CD0FEF727FF401B6428F5D934
:104E70000320E9E70038024000700040FFFCFF0F0C
:104E8000236813F4002F01D0E26B22B113F4801FCA
:104E90001DD0236CDBB9354AD2F88830D2F888109F
:104EA000606903F4403343EA8013A06943EA006376
:104EB00001F0E0410B43C2F88830D2F88C3023F483
:104EC000F853A16A013943EA0123C2F88C30236800
:104ED00013F4001F03D0E36FB3F1006F31D02368E8
:104EE00013F0080F19D0214AD2F88810D2F8883070
:104EF000606903F4403343EA801301F070610B43AF
:104F0000E16943EA0173C2F88830D2F88C3023F4A7
:104F10004033E16A0B43C2F88C30144A136843F003
:104F200080531360FEF7C8FE0446104B1B6813F055
:104F3000005F19D1FEF7C0FE001B6428F5D90320DD
:104F400082E70A4AD2F88800D2F888106569236A95
:104F50001B0443EA851300F07060034301F0E04155
:104F60000B43C2F88830BAE700206DE700380240F2
:104F7000E0B138B50D46044690F82C308BB10223D1
:104F800084F82C30214651F8040BFFF765FC626869
:104F900029462068FFF798FC012384F82C30002074
:104FA00038BD80F82D30FBF7DBFAE8E701207047C9
:104FB000002804DB0901C9B2044B1954704700F002
:104FC0000F000901C9B2024B1954704700E400E018
:104FD00014ED00E000B500F00700C0F1070CBCF1D3
:104FE000040F28BF4FF0040C031D062B0FD9C31E5E
:104FF0004FF0FF3E0EFA0CF021EA000199400EFA44
:1050000003FE22EA0E0241EA02005DF804FB0023DF
:10501000EEE700000649CB6823F4E0631B041B0C99
:10502000000200F4E0600343024A1A43CA6070477A
:1050300000ED00E00000FA0510B50446054BD86805
:10504000C0F30220FFF7C6FF01462046FFF7B0FF7E
:1050500010BD00BF00ED00E0002807DB00F01F02DC
:10506000400901239340024A42F82030704700BFB4
:1050700000E100E010B582B01B4B1A6C42F0805288
:105080001A641B6C03F080530193019B174A136849
:1050900043F480331360FEF70FFE0446134B5B6846
:1050A00013F4803F08D1FEF707FE001BB0F57A7FAE
:1050B000F4D9032002B010BD0C4A136843F4003346
:1050C0001360FEF7F9FD0446084B5B6813F4003FDC
:1050D00007D1FEF7F1FD001BB0F57A7FF4D903206C
:1050E000E8E70020E6E700BF00380240007000401B
:1050F00011F0010F30D010B41F231C46013B34B116
:1051000003F01F0C21FA0CFC1CF0010FF5D0182A3B
:1051100024D8DFE802F00F232323232323231D2396
:1051200023232323232319232323232323230D0092
:10513000062B17D80368596101688B6823F01803A0
:1051400013438B6000200AE0072BF3D9012006E00F
:105150000F2BEFD9012002E00120704701205DF8FC
:10516000044B70470120FAE7002832D010B50446FE
:1051700090F8513043B3022384F851302268136809
:1051800023F4403361680B4313602268536B23F0B0
:105190000703A1680B4353632268136C6FF30D037D
:1051A000E1680B43136421684B6B23F440132069BF
:1051B0006269520542EA005213434B630020606566
:1051C000012384F8513010BD80F85030FCF73EF9CF
:1051D000D1E701207047000090F85020012A67D0E5
:1051E00030B40346012280F85020022280F851207A
:1051F00001EB410003EBC000446A826A44EA0242C8
:10520000056B42EA0552406B42EA4052093C012CD0
:1052100020D901EB410003EBC000C06A42EA006202
:1052200059BB1C68656A23482840104360621868AF
:1052300001EB410203EBC202146A8461526A093A2B
:10524000012A10D9012283F85120002083F8500050
:1052500030BC704701EB410003EBC000C06A00F0B6
:105260007F400243DCE701EB410103EBC101CA6A65
:10527000196822F07F428A62E4E71C68E5690D48FC
:1052800028401043E061186801EB410203EBC202C1
:10529000146A0461526A093A012AD3D801EB410128
:1052A00003EBC101CA6A196822F07F420A62C9E7AA
:1052B00002207047F0FFCC00024A136843F4807369
:1052C000136070470070004010B504460268136810
:1052D00023F40043136002681368C1690B43136031
:1052E00083680269134342691343C2691343016827
:1052F0000868224A02400A6021680A6813430B606A
:105300002268536823F44053536022685368E1686D
:105310000B4353602268936823F4306393602168E1
:105320008B68A269206A024313438B602368144987
:10533000144A934218BF8B420ED1FCF757FCE36925
:10534000B3F5004F0BD0636800EB5300B0FBF3F0F4
:1053500080B22368D86010BDFCF738FCEFE76268C4
:10536000530803EB4003B3FBF2F39BB223F00F02AD
:10537000C3F3420313432268D360ECE7F3E9FFEF82
:1053800000100140001401402DE9F84307460E4685
:1053900015469946DDF820803B68DC6936EA04044E
:1053A0000CBF01240024AC420DD1B8F1FF3FF3D073
:1053B000B8F1000F05D0FEF77FFCA0EB09004045D7
:1053C000EAD9032000E00020BDE8F88358B310B507
:1053D000044690F869300BB3242384F869302268BE
:1053E000136823F0010313602046FFF76DFF226866
:1053F000536823F4904353602268936823F02A0390
:1054000093602268136843F0010313600020E06694
:10541000202384F8693084F86A3010BD80F8683041
:10542000FBF79EFFD8E7012070472DE9F04182B0DD
:1054300004460F4690461D4690F86930202B03D055
:1054400090F86930222B3FD1B8F1000F18BF002F20
:105450003CD094F86830012B3CD0012384F86830AC
:105460000023E366212384F86930FEF725FC064615
:10547000A4F85080A4F85280B4F8522092B2AAB195
:1054800000953346002280212046FFF77DFF18BBA0
:10549000394611F8012B23689A62B4F8522092B26F
:1054A000013A92B2A4F852200F46E5E70095334640
:1054B00040212046FFF768FF80B9202384F8693037
:1054C000002384F8683002E0022000E0012002B0EE
:1054D000BDE8F0810220FAE70320F8E70320F6E7B1
:1054E00010B5C0B00346094A4FF48071684603F016
:1054F000CDFB6846FAF784FE642382B2694604480D
:10550000FFF793FF002040B010BD00BF6099000876
:105510001803002008B50648FFF7E2FF6420FEF7F5
:10552000D1FB0448FFF7DCFF6420FEF7CBFB08BD8E
:10553000689900086C9900082DE9F04182B0054691
:105540000F46FEF7B9FB06462846FAF759FE804695
:10555000002409E00134A04506D100201BE001240D
:1055600002E00120FEF7AEFBFEF7A6FB801BB8426F
:1055700010D201210DF10700FBF7BEFD0028F0D08D
:105580002A5D9DF807309A42E4D02A789342E6D00B
:105590000024E9E7022002B0BDE8F08103460020C4
:1055A00002E00130C0B201331A78002AF9D1704705
:1055B0000B7803704B7843708B78CA7843EA0223E8
:1055C00043800B794A7943EA022383808B79CA7935
:1055D00043EA0223C380704710B50446802103F0DC
:1055E00050FA0021204603F04CFA10BD30B583B0CC
:1055F00005460C460023ADF806304A88130A013BE5
:105600000E2B00F2BB80DFE803F0152F43B9B99DE4
:10561000AAB9B9B9B9B9B9B90800D0F8B432DB69D7
:1056200023B10DF10601007C98470AE02146FFF7FF
:10563000D3FFA6E0D0F8B4321B680DF10601007C60
:105640009847E288002A00F0A380BDF80630002BBE
:1056500000F099809A4228BF1A46ADF8062001460C
:10566000284600F057FD8CE0037C43B9D0F8B832EF
:105670009B6A0DF10600984702234370E1E7D0F8DA
:10568000B832DB6A0DF10600984702234370D8E771
:10569000D2B2052A52D8DFE802F003101D2A37449F
:1056A000D0F8B4325B6823B10DF10601007C984755
:1056B000C7E72146FFF790FF63E0D0F8B4329B685C
:1056C00023B10DF10601007C9847BAE72146FFF7A8
:1056D00083FF56E0D0F8B432DB6823B10DF1060148
:1056E000007C9847ADE72146FFF776FF49E0D0F808
:1056F000B4321B6923B10DF10601007C9847A0E785
:105700002146FFF769FF3CE0D0F8B4325B6923B172
:105710000DF10601007C984793E72146FFF75CFFF7
:105720002FE0D0F8B4329B6923B10DF10601007C63
:10573000984786E72146FFF74FFF22E02146FFF713
:105740004BFF1EE0037C33B9D0F8B8325B6B0DF130
:105750000600984775E72146FFF73EFF11E0037CFE
:1057600043B9D0F8B8321B6B0DF1060098470723F8
:10577000437066E72146FFF72FFF02E02146FFF75F
:105780002BFF03B030BD21462846FFF725FFF8E781
:10579000284600F0EEFCF4E738B504468B88F3B9F0
:1057A000CB88E3B94B887F2B19D803F07F0590F89D
:1057B0009C32032B0CD080F89E52294603F071F9DD
:1057C000204600F0D6FC35B1022384F89C3209E073
:1057D000FFF702FF06E0012384F89C3202E0204636
:1057E000FFF7FAFE38BD000070B504460E468D780E
:1057F0002F4B1D70012D10D890F89C32DAB2022B7D
:105800000FD0032A26D0FFF7E7FE294B1978204650
:1058100000F0B6FA0325284670BDFFF7DDFE03252C
:10582000F9E7A5B14560294600F0A1FA054638B16F
:1058300031462046FFF7D0FE022384F89C32EAE787
:10584000204600F096FC032384F89C32E3E700F046
:1058500090FCE0E7CDB141688D4225D0C9B200F09F
:105860008FFA134B19786160204600F080FA0546E4
:10587000B0B131462046FFF7AFFE2179204600F057
:105880007FFA022384F89C32C5E7022380F89C3219
:105890004560294600F074FA204600F06AFCBAE739
:1058A000204600F066FCB6E700F063FC0025B2E796
:1058B000140C002008B5CB88012B0BD190F89C323A
:1058C000DAB2022B09D9032A11D10122011D00F0FD
:1058D00021FC01E0FFF780FE08BD52B23AB101465B
:1058E000002341F8083F012200F014FCF4E7FFF721
:1058F00073FEF1E708B590F89C32013B022B12D8F9
:10590000CB88022B0CD10123C360D0F8A4320BB199
:105910000323C360022200F10C0100F0FBFB08BD71
:10592000FFF75AFEFBE7FFF757FEF8E708B54B888D
:10593000012B04D0022B07D0FFF74EFE08BDC0F8A4
:10594000A43200F016FCF9E78B881B0A80F8A0321D
:1059500000F00FFCF2E708B590F89C32013B022BF7
:1059600009D84B88012B00D008BD0023C0F8A43211
:1059700000F0FFFBF8E7FFF72FFEF5E738B50C78EE
:1059800004F06004202C06D0402C04D06CB1FFF74A
:1059900023FE002407E0D0F8D432AE3350F8233091
:1059A0009B6898470446204638BD4D78092D1DD880
:1059B000DFE805F012191C161C08051C0F0BFFF779
:1059C00015FEF0E7FFF7E8FEEDE7FFF70DFF0446F1
:1059D000E9E7FFF76FFFE6E7FFF78CFF2C46E2E70A
:1059E000FFF7A4FFDFE7FFF7B6FFDCE7FFF7F4FD03
:1059F000D9E770B505460C460B7803F06003202B01
:105A000007D0402B05D023B1FFF7E6FD0026304636
:105A100070BD95F89C32013B022B26D821790129D3
:105A200005D921462846FFF7D7FD0026EFE728468F
:105A300000F079FA68B900F1AE0255F822209168B9
:105A400089B1C5F8D402936821462846984706468E
:105A500000E00326E388002BD9D1002ED7D12846B9
:105A600000F087FBD3E70326F4E721462846FFF73B
:105A7000B3FD0026CBE72DE9F04106460D468B88A5
:105A8000DFB20C7804F06004202C08D0402C06D043
:105A9000DCB1FFF7A1FD00242046BDE8F0813946C6
:105AA000304600F042FA0446002840F0FE80C6F876
:105AB000D40200F1AE0356F823309B68002BEBD0E4
:105AC0002946304698470446E6E791F80180B8F148
:105AD000010F31D0B8F1030F05D0B8F1000F66D037
