:020000040800F2
:100000000000082085A60008210C0008250C000827
:10001000350C0008370C0008390C000800000000FF
:1000200000000000000000000000000081830008C4
:100030003B0C0008000000002184000885840008B3
:10004000D5A60008D5A60008D5A60008D5A60008A4
:10005000D5A60008D5A60008D5A60008D5A6000894
:10006000D5A60008D5A60008D5A60008D5A6000884
:10007000D5A60008D5A60008D5A60008D5A6000874
:10008000D5A60008D5A60008D5A60008D5A6000864
:10009000D5A60008D5A60008D5A60008D5A6000854
:1000A000D5A60008D5A60008D5A60008D5A6000844
:1000B000D5A60008D5A60008D5A60008D5A6000834
:1000C000D5A60008D5A60008D5A60008D5A6000824
:1000D000D5A60008D5A60008D5A60008D5A6000814
:1000E000D5A60008D5A60008D5A60008D5A6000804
:1000F000D5A60008D5A60008D5A60008D5A60008F4
:10010000D5A60008D5A60008D5A60008D5A60008E3
:10011000D5A600086D0C00083D0C0008D5A6000807
:10012000D5A60008D5A60008D5A60008D5A60008C3
:10013000D5A60008D5A60008D5A60008D5A60008B3
:10014000D5A60008D5A60008D5A60008D5A60008A3
:10015000D5A60008D5A60008D5A60008D5A6000893
:10016000D5A60008D5A60008D5A60008D5A6000883
:10017000D5A600084D0C0008D5A600080000000018
:10018000D5A60008D5A60008D5A60008D5A6000863
:10019000D5A60008D5A60008D5A60008D5A6000853
:1001A0005D0C0008D5A60008D5A60008D5A6000855
:1001B000D5A60008D5A60008D5A60008D5A6000833
:1001C000D5A60008D5A60008D5A60008D5A6000823
:1001D000D5A60008D5A60008D5A60008D5A6000813
:1001E000D5A60008D5A60008D5A60008D5A6000803
:0801F000D5A60008D5A6000801
:10020000034613F8012B002AFBD1181A0138704756
:1002100001F0FF01102A2BDB10F0070F08D010F8B7
:10022000013B013A8B422DD010F0070F42B3F6D1BB
:10023000F0B441EA012141EA014122F007047FF0D4
:1002400000070023F0E80256083C85EA010586EA2B
:10025000010685FA47F5A3FA87F586FA47F6A5FA67
:1002600087F68EB9EED1F0BC01F0FF0102F0070273
:1002700032B110F8013B013A83EA010313B1F8D11E
:100280000020704701387047002D06BF35460338FF
:10029000073815F0010F07D1013015F4807F02BF38
:1002A000013015F4C03F0130F0BC0138704700BF89
:1002B00053B94AB9002908BF00281CBF4FF0FF31CD
:1002C0004FF0FF3000F00CB8ADF1080C6DE904CE32
:1002D0000AF02CFFDDF804E0DDE9022304B07047EA
:1002E000704700BF0348044B834202D0034B03B165
:1002F00018477047800100208001002000000000A6
:100300000548064B1B1AD90F01EBA301491002D077
:10031000034B03B118477047800100208001002083
:100320000000000010B5064C237843B9FFF7DAFF50
:10033000044B13B10448AFF300800123237010BDB8
:10034000800100200000000024B4000808B5054B1F
:100350001BB105490548AFF30080BDE80840FFF731
:10036000CFBF00BF000000008401002024B40008BB
:1003700030B589B00446214B1A6C42F010021A6461
:100380001B6C03F010030193019B02A903A801F069
:1003900075FD069BCBB901F051FD0346184AA2FB3F
:1003A00003239B0C013B1748174A026040F2E732D7
:1003B000C2604360002303618360836103F018F926
:1003C000054630B1284609B030BD01F037FD430085
:1003D000E4E70C4802F078FF05460028F2D1362009
:1003E00005F094F90F2C01D90125EBE700222146F5
:1003F000362005F07BF9054B1C60E3E7003802402E
:1004000083DE1B439C0100200010004008000020F8
:100410002DE9F04186B000230193029303930493E6
:100420000593304B1B6813B106B0BDE8F0812D4B2E
:1004300001221A602C4B9A6B42F001029A639B6B6B
:1004400003F001030093009B4FF68373019302278F
:100450000297032604960C25059501AC21462348F6
:1004600001F02AFD48F23713019302974FF000087C
:10047000CDF80C800496059521461D4801F01CFD21
:100480004CF2037301930297CDF80C800496059506
:100490002146184801F010FD40F2FF6301930297D6
:1004A000CDF80C80049605952146134801F004FD13
:1004B0004FF63F0301930297CDF80C800496059503
:1004C00021460E4801F0F8FC4FF62C730193029779
:1004D000CDF80C80049605952146094801F0ECFC06
:1004E000A2E700BFE80100200038024000100240EF
:1004F00000180240000C024000200240001402409C
:10050000001C024008B5FFF783FF08BD2DE9F04F3E
:1005100091B00BAD00240B946C60AC60EC602C616E
:10052000AE4B1A6B42F010021A631A6B02F0100203
:100530000092009A1A6B42F040021A631A6B02F0A2
:1005400040020192019A1A6B42F002021A631A6B7E
:1005500002F002020292029A1A6B42F008021A6337
:100560001A6B02F008020392039A1A6B42F004021B
:100570001A631A6B02F004020492049A1A6B42F096
:1005800001021A631A6B02F001020592059A1A6BB6
:1005900042F400721A631A6B02F400720692069A11
:1005A0001A6B42F480721A631A6B02F4807207921B
:1005B000079A1A6B42F480621A631A6B02F4806223
:1005C0000892089A1A6B42F020021A631A6B02F022
:1005D00020020992099A1A6B42F080021A631B6B7F
:1005E00003F080030A930A9BDFF804A222464AF232
:1005F0002001504601F008FE78230B9302260C964A
:100600000D940E9406230F93DFF8E88129464046A7
:1006100001F052FC04230B930C960D9403270E97C4
:1006200009220F922946404601F046FC4FF4D04380
:100630000B930C960D940E960B220F922946684848
:1006400001F03AFC18230B930C960D940E970A2098
:100650000F902946634801F02FFCC0200B900C96A8
:100660000D940E970B220F92DFF88CB12946584655
:1006700001F022FC4FF480500B900C960D940E97D5
:1006800008210F91DFF874912946484601F014FCC7
:100690004FF400430B9312230C930D940E940423F8
:1006A0000F93A8F580582946404601F005FC8020AC
:1006B0000B9012230C9301230D930E970B220F9294
:1006C0002946484801F0F8FB40220B920C960D9405
:1006D0000E970A210F912946424801F0EDFB4AF29C
:1006E00020030B9301230C930D940E94294650463E
:1006F00001F0E2FB45F21B030B930C940D94294689
:10070000504601F0D9FB4FF400610B910C960D940B
:100710000E940F972946484601F0CEFB4FF4C06176
:100720000B910C960D940E9709210F91294648467E
:1007300001F0C2FB4FF480500B900C960D940E9478
:1007400005200F902946404601F0B6FB4FF4514377
:100750000B930C940D942946234801F0ADFBF8232C
:100760000B930C940D942946204801F0A5FB4FF4FF
:1007700080500B900C960D940E944FF0070ACDF814
:100780003CA02946164801F097FB4FF4C0610B913D
:100790000C960D940E970B220F922946104801F0EB
:1007A0008BFB30230B930C940D942946584601F093
:1007B00083FB08210B910C960D940E940F972946FC
:1007C000584601F079FB4FF400620B920C960D94A1
:1007D0000E9705200F902946404611E00038024050
:1007E000001802400004024000200240002802409D
:1007F0000024024000100240000C024000080240A9
:1008000001F05AFB4FF400510B910C960D940E948D
:100810002946484601F050FB04230B930C960D9497
:100820000E9708210F912946584601F045FB4FF4D9
:1008300080630B930C960D940E97CDF83CA029463F
:10084000404601F039FB4FF400730B930C960D9466
:100850000E94CDF83CA02946404601F02DFB4FF404
:10086000807ACDF82CA00C960D940E940F94294606
:10087000404601F021FB4FF400510B914FF49013CF
:100880000C930D942946674801F016FBCDF82CA077
:100890000C960D940E940F962946484601F00CFBD9
:1008A000C0220B920C960D940E9708210F912946A9
:1008B000484601F001FB80200B900C960D940E949D
:1008C00006210F912946584801F0F6FA48230B9368
:1008D0000C940D942946544801F0EEFA80200B90B8
:1008E0000C960D940E940F97DFF848A129465046B8
:1008F00001F0E2FA40220B920C960D940E940F97A1
:100900002946504601F0D8FA4FF4E0630B930C9758
:100910000D942946504601F0CFFA32230B930C96E2
:100920000D940E960B220F922946484601F0C4FA08
:1009300004230B930C970D942946484601F0BCFA0A
:1009400004230B930C960D940E9709210F912946C1
:10095000364801F0B1FA4FF480500B9012200C9001
:1009600001230D930E9704230F932946584601F057
:10097000A3FA4FF400510B910C960D940E97092198
:100980000F912946584601F097FA86230B930C964F
:100990000D940E960B220F922946404601F08CFAD8
:1009A00001230B934FF488130C930D942946404672
:1009B00001F082FA50230B930C970D942946404680
:1009C00001F07AFA4FF400670B970C960D940E9491
:1009D0000A230F932946584601F06EFA80200B90A7
:1009E0000C940D94124F2946384601F065FA4022C6
:1009F0000B920C960D940E9409210F9129463846BE
:100A000001F05AFA4FF440430B930C960D940E9458
:100A100005200F902946054801F04EFA11B0BDE8B7
:100A2000F08F00BF00200240001802400004024086
:100A3000001C02400014024000B589B0002303935B
:100A400004930593069307930268124B9A4202D0CF
:100A500009B05DF804FB03F54C435A6C42F00062A8
:100A60005A645A6C02F000620192019A1A6B42F4C5
:100A700000721A631B6B03F400730293029B04233E
:100A80000393022304930D23079303A9024801F063
:100A900013FADDE7006C01400024024008B502684B
:100AA000064B9A4200D008BD054A536C23F0006300
:100AB00053640421034801F001FBF4E7006C01409A
:100AC000003802400024024010B5A6B0044690222F
:100AD000002102A809F016FF2268154B9A4201D0A6
:100AE00026B010BD08230293C02307930223099365
:100AF0000323089301230A930C9302A804F058F9E6
:100B000090B90C4B5A6C42F080625A645B6C03F0F3
:100B100080630193019B00220521582004F0E6FD2B
:100B2000582004F0F3FDDBE700F028FCE9E700BF04
:100B3000006801400038024008B51448144B0360B7
:100B4000A3F1FE53A3F69843436000238360012280
:100B5000C260036143618361C361036201F05AFBB8
:100B600050B90021094802F0B3FD40B900210748FF
:100B700002F0DBFD30B908BD00F000FCF1E700F049
:100B8000FDFBF3E700F0FAFBF5E700BF940200205D
:100B90000054004010B5ACB00446002127912891C4
:100BA00029912A912B91902203A809F0ABFE22688B
:100BB000184B9A4201D02CB010BD4FF480430393E0
:100BC00003A804F0F5F810BB134C236B43F00203A9
:100BD0002363236B03F002030193019B4FF44073E3
:100BE0002793122328930123299300232A93042374
:100BF0002B9327A9094801F05FF9236C43F40013F4
:100C00002364236C03F400130293029BD3E700F0E8
:100C1000B5FBD9E700540040003802400004024010
:100C2000FEE7000008B51721014809F057FAFEE772
:100C300070B40008FEE7FEE7FEE7704708B502481B
:100C400002F08EFB08BD00BF9C01002008B50248E1
:100C500001F06FFE08BD00BF143F012008B5024837
:100C600002F08FFA08BD00BFEC0100200D4B1B689D
:100C7000DA6912F0200F13D05A6AD2B20A4B1B68FD
:100C80000133C3F30A0309490968994208D010B433
:100C900005490868064C22540B605DF8044B704708
:100CA000704700BFF00A0020640B0020600B00209A
:100CB000680B002008B541F2883008F03BFC4FF487
:100CC0007A7008F037FCFAE7704770477047000009
:100CD00008B5074A0021074808F0C6FB064B186014
:100CE000064A0021064808F0BFFB064B186008BD05
:100CF00064B90008450D0008EC0A002040B900085E
:100D0000B50C0008E80A0020014600E00130027836
:100D10004AB1A2F12003DBB25E2BF7D80B4603F8F1
:100D2000012B1946F2E700230B70704710B50446FB
:100D3000FFF766FA81B2204609F0D0F9642008F086
:100D4000F9FB10BDF0B5E1B009F0DEF940F6B830BE
:100D500008F0F0FBA848FFF7E9FFA848FFF7E6FF17
:100D6000A748FFF7E3FF05F06DF9002306E09A00BE
:100D700002F14042A349594011600133B3F5802F7D
:100D8000F5D30023B3F5802F09D29A0002F1404237
:100D900011689C4A5A40914203D10133F2E7012382
:100DA00000E0002383B19848FFF7C0FF9748FFF7A2
:100DB000BDFF05F053FC48B19548FFF7B7FF4FF46E
:100DC0007A7008F0B7FBFAE79248EDE79248FFF730
:100DD000ADFF9248FFF7AAFF05F0B2FA642008F0D1
:100DE000A9FB8F48FFF7A2FF4FF04041002005F01C
:100DF000E5F9002005F022FA0121002005F024FA8F
:100E00008848FFF793FF8848FFF790FF874805F071
:100E100055FA8748FFF78AFF8648FFF787FF4FF0AC
:100E2000FF3005F031FA4FF07F4005F039FA824883
:100E3000FFF77CFF8148FFF779FF05F045FD80480B
:100E400005F028FD002858D17E48FFF76FFF7E4847
:100E5000FFF76CFF00F048FC00F00EFC7B48FFF74A
:100E600065FF7B48FFF762FF4FF07F4005F00CFA0B
:100E70004FF4F0734FF448720021084605F02CFA45
:100E80007448FFF753FF7448FFF750FF6FF0FF00FF
:100E900005F0FAF9654805F011FA01236F4A32218D
:100EA000002005F087FC4FF0FF3005F0EDF901233D
:100EB0006B4A6421002005F07DFC6A48FFF736FF8D
:100EC0006948FFF733FF694805F0E4FC4FF4FA7016
:100ED00008F030FB664805F0DDFC6648FFF726FFAA
:100EE00043F69821644805F001FD50B96348FFF7C7
:100EF0001DFF6348FFF71AFF19E06248FFF716FF6E
:100F0000A5E76148FFF712FFF3E76D225F496846E6
:100F100009F0D6FC684605F0BDFC4FF4FA615C4868
:100F200005F0E4FC60B347F2305008F003FB594889
:100F3000FFF7FCFE4FF07F4005F0A6F964234FF465
:100F40004872C821002005F0C7F9534805F09CF904
:100F50000123524AFA21002005F02CFC504805F0EC
:100F600099FC41F288314F4805F0C0FC0028CCD0F4
:100F70004D48FFF7DBFE41F2883008F0DBFAD6E798
:100F80004A4C642330224A49204604F0F4FE64238C
:100F90000F224849204604F0EEFE642319224649F8
:100FA000204604F0E8FE642315224449204604F05C
:100FB000E2FE03F055F80446002502E0012008F0A7
:100FC000B9FA03F04DF8031B41F28732934279D806
:100FD00040F2FE739D4275D8012140A800F09EF9B1
:100FE0000028EBD06E1C9DF80021354B5A5503F0BC
:100FF00037F804463546E4E7A8B40008CCB4000846
:10100000DCB400085555AAAA88B40008F8B4000852
:101010000CB5000898B400081CB500082CB50008F1
:1010200040B5000864B5000874B500082800002029
:1010300088B5000898B50008B0B50008C4B5000828
:10104000D8B50008DCB50008F4B5000810B60008F3
:1010500024B6000844B6000854B600086CB6000870
:1010600084B600089CB60008ACB60008C4B60008F8
:10107000D0B60008F4B600080CB7000818B700088E
:1010800058B70008E8B5000830B70008E0B7000816
:10109000F0B7000874B70008D3D3D3FF90B70008A7
:1010A000A4B70008C4B70008C8B70008F00A0020B9
:1010B000F4B7000828B8000838B8000854B8000889
:1010C000E8020020684800234355684909F042FCC3
:1010D000044600283FF427AF04342046FFF714FEEF
:1010E0006348FFF723FE2046FFF720FE6148FFF725
:1010F0001DFE614A20AB1068516803C338220021ED
:10110000184609F0FFFB5D490891002309930A93F3
:101110000B930C930D930E930F93109111931293C5
:1011200013931493159316931793189119931A9375
:101130001B931C931D931E931F933B21204609F084
:10114000E9FB0546002843D0061B3F2E00DD3F2665
:1011500020AF32462146384609F0E9FB0023BB5553
:1011600001353B21284609F0D5FB044680B3461BD8
:101170001F2E00DD1F2608AF32462946384609F0EB
:10118000D6FB0023BB5501343B21204609F0C2FBAE
:101190000546E8B1061B1F2E00DD1F2610AF3246A4
:1011A0002146384609F0C3FB0023BB5501353B21DE
:1011B000284609F0AFFB58B1441B1F2C00DD1F244B
:1011C00018AE22462946304609F0B1FB00233355BC
:1011D0004FF07F4005F058F84FF4BE734FF448725B
:1011E0006421002005F078F8254805F067F86FF4D1
:1011F0007F0005F049F80123224A7821002005F0FC
:10120000D9FA4FF0FF3005F03FF8012320AAB421AE
:10121000002005F0CFFA1C4805F050F86FF0FF00F1
:1012200005F032F830AC08A9204609F0E5FB0123AF
:1012300022464FF48271002005F0BCFA134805F0F5
:101240003DF8134805F020F840AC18AB10AA11493E
:10125000204609F035FB012322464FF4BE710020E1
:1012600005F0A8FA5FE600BFE80200206CB80008AD
:1012700074B8000880B80008A0B800084E2F4100DC
:101280002000002084B8000818000020280000205A
:10129000D3D3D3FF8CB80008BFF34F8FBFF36F8F4A
:1012A000064B5A6922F400325A610022C3F85022D8
:1012B000BFF34F8FBFF36F8F704700BF00ED00E0AB
:1012C00010B4154B0022C3F88420BFF34F8F5A6926
:1012D00022F480325A61BFF34F8FD3F88040C4F3B9
:1012E0004E3000E01846C4F3C90243F6E07303EA47
:1012F000401343EA82730849C1F874321346013A35
:10130000002BF2D1431E0028ECD1BFF34F8FBFF367
:101310006F8F5DF8044B704700ED00E084460020BD
:10132000884217D210B40C4B1A680C4B1B689A42B7
:101330000DD0094A13680A4CE35C0CF800301368BE
:101340000133C3F30A03136001308842EBD35DF825
:10135000044B7047704700BF600B0020640B0020F7
:10136000680B002008B50268034B9A4200D008BD04
:1013700002F06AFEFBE700BF0010004072B6FEE715
:1013800010B5B8B02BAC34220021204609F0BAFACF
:10139000002326932793289329932A9304F032FC61
:1013A0002F4B1A6C42F080521A641B6C03F080536E
:1013B0000093009B2B4B1A6842F440421A601B6852
:1013C00003F440430193019B03232B934FF4803399
:1013D0002C9301232E9310232F93022331934FF448
:1013E00080023292192233924FF4D872349235939C
:1013F000092236923793204600F0A2F938BB04F058
:10140000DDF930BB0F232693022327930023289373
:101410004FF4A05329934FF480532A93072126A811
:1014200000F050FCB8B902AC90220021204609F02F
:1014300069FA4FF400130293204603F0B9FC60B937
:1014400000221146104600F09DFB38B010BDFFF79A
:1014500095FFFFF793FFFFF791FFFFF78FFF00BFA7
:10146000003802400070004008B50B480B4B036089
:101470004FF4E133436000238360C36003610C22B7
:1014800042618361C3610362436204F045FC00B9B9
:1014900008BDFFF773FF00BFF00A002000500040B6
:1014A00000B585B004F040F901238DF800304FF00D
:1014B0004043019317238DF8083003238DF80B3038
:1014C00000238DF80F308DF80E308DF80D308DF82B
:1014D00001308DF80A308DF809308DF80C306846EF
:1014E00004F040F9042004F02DF905B05DF804FB88
:1014F00008B5FFF7D1FEFFF7E3FEFFF7D1FF02F0DB
:1015000098FDFFF73DFFFFF701F8FFF7ADFFFFF78D
:1015100013FB00F0E9F8064B1A68136843F0200348
:10152000136007F05FFFFFF7D3FB07F079FFFEE7DB
:10153000F00A0020034AD2F8883043F47003C2F85E
:101540008830704700ED00E010B503460C4A0D49A5
:101550000D48006840B10C4800680344521A934299
:1015600006D8094A136010BD0748084C0460F2E72A
:1015700009F016FA0C2303604FF0FF30F3E700BFC9
:1015800000000820000400006813002040450120EE
:1015900000B583B00D4B1A6C42F080521A641A6C7D
:1015A00002F080520092009A5A6C42F480425A64CF
:1015B0005B6C03F480430193019B00220F216FF0C9
:1015C000010004F093F803B05DF804FB003802401A
:1015D000F0B589B000230393049305930693079312
:1015E0000268224B9A4201D009B0F0BD03F5F433F2
:1015F0001A6C42F480121A641A6C02F4801200927F
:10160000009A1A6B42F004021A631A6B02F0040289
:101610000192019A1A6B42F008021A631B6B03F0E5
:1016200008030293029B4FF4805303930224049413
:10163000032706970826079603AD29460C4800F0B5
:101640003BFC042303930494002405940697079617
:101650002946084800F030FC22460521352004F0D8
:1016600045F8352004F052F8BEE700BF00500040B6
:1016700000080240000C024008B50E480E4B036003
:10168000002343608360C3608363C3630364436474
:101690008364C36404F053F928B90121054804F0B8
:1016A00041FA18B908BDFFF769FEF6E7FFF766FED5
:1016B000F8E700BF6C13002000B002400268094B3D
:1016C0009A4200D0704782B0A3F5F0431A6B42F4FF
:1016D00000021A631B6B03F400030193019B02B029
:1016E000704700BF00B0024008B50848084B0360CF
:1016F000002303714371436183610123036201F09D
:10170000A7FF00B908BDFFF739FEFBE7C4130020AF
:10171000003002400268094B9A4200D0704782B004
:1017200003F500631A6B42F480521A631B6B03F4D7
:1017300080530193019B02B0704700BF003002400C
:10174000002800F0068270B582B00446036813F0EA
:10175000010F29D0954B9B6803F00C03042B1AD082
:10176000924B9B6803F00C03082B0FD06368B3F512
:10177000803F40D0002B54D18C4B1A6822F4803229
:101780001A601A6822F480221A6039E0874B5B687D
:1017900013F4800FEAD0854B1B6813F4003F03D08D
:1017A0006368002B00F0D781236813F0020F74D018
:1017B0007E4B9B6813F00C0F5ED07C4B9B6803F054
:1017C0000C03082B53D0E368002B00F08980774A84
:1017D000136843F00103136002F042FC0546734BAB
:1017E0001B6813F0020F72D102F03AFC401B022872
:1017F000F5D90320B4E16D4A136843F480331360D4
:1018000063682BB302F02CFC0546684B1B6813F48D
:10181000003FC9D102F024FC401B6428F5D9032005
:101820009EE1B3F5A02F09D0604B1A6822F48032F4
:101830001A601A6822F480221A60E1E75B4B1A688A
:1018400042F480221A601A6842F480321A60D7E7A4
:1018500002F006FC0546554B1B6813F4003FA3D06D
:1018600002F0FEFB401B6428F5D9032078E14F4BC2
:101870005B6813F4800FA6D14C4B1B6813F0020F6A
:1018800003D0E368012B40F06881484A136823F0D5
:10189000F803216943EAC1031360236813F0080FBA
:1018A00046D0636983B3414A536F43F001035367E2
:1018B00002F0D6FB05463D4B5B6F13F0020F37D1AC
:1018C00002F0CEFB401B0228F5D9032048E1374A3D
:1018D000136823F0F803216943EAC1031360DCE7CE
:1018E000324A136823F00103136002F0B9FB054686
:1018F0002E4B1B6813F0020FCFD002F0B1FB401B40
:101900000228F5D903202BE1284A536F23F0010365
:10191000536702F0A5FB0546244B5B6F13F0020FE3
:1019200006D002F09DFB401B0228F5D9032017E1E9
:10193000236813F0040F7DD01C4B1B6C13F0805FE9
:101940001ED11A4B1A6C42F080521A641B6C03F0C1
:1019500080530193019B0125154B1B6813F4807F75
:1019600010D0A368012B25D0002B3BD10F4B1A6F51
:1019700022F001021A671A6F22F004021A671EE0B1
:101980000025E9E70A4A136843F48073136002F004
:1019900067FB0646064B1B6813F4807FE1D102F01B
:1019A0005FFB801B6428F5D90320D9E00038024092
:1019B00000700040724A136F43F001031367A3687D
:1019C00033B302F04DFB06466D4B1B6F13F0020F55
:1019D0002FD102F045FB801B41F288339842F3D9A6
:1019E0000320BDE0052B09D0654B1A6F22F00102E0
:1019F0001A671A6F22F004021A67E0E7604B1A6F49
:101A000042F004021A671A6F42F001021A67D6E721
:101A100002F026FB06465A4B1B6F13F0020F08D04C
:101A200002F01EFB801B41F288339842F3D9032059
:101A300096E0FDB9A369002B00F09180504A9268AE
:101A400002F00C02082A59D0022B19D04C4A136814
:101A500023F08073136002F003FB0446484B1B68BD
:101A600013F0007F48D002F0FBFA001B0228F5D9E2
:101A7000032075E0424A136C23F080531364D9E7C6
:101A80003F4A136823F08073136002F0E9FA0546B9
:101A90003B4B1B6813F0007F06D002F0E1FA401BBD
:101AA0000228F5D903205BE0E369226A1343626AE6
:101AB00043EA8213A26A5208013A43EA0243E26A05
:101AC00043EA0263226B43EA02732D4A53601368B0
:101AD00043F08073136002F0C3FA0446284B1B687E
:101AE00013F0007F06D102F0BBFA001B0228F5D9E3
:101AF000032035E0002033E0002031E0204A526826
:101B0000012B2FD002F48003E1698B422CD102F02B
:101B10003F03216A8B4229D1616A47F6C0731340A3
:101B2000B3EB811F24D102F44031A36A5B08013B6F
:101B3000B1EB034F1ED102F07063E16AB3EB016FAA
:101B40001AD102F0E042236BB2EB037F16D10020E2
:101B500006E001207047012002E0012000E00020A3
:101B600002B070BD0120FBE70120F9E70120F7E793
:101B70000120F5E70120F3E70120F1E70120EFE77D
:101B80000038024070B588B00C461546F8B9204EB2
:101B9000336B43F001033363336B03F001030193B1
:101BA000019B4FF480730393022304930323069352
:101BB00000230593079303A9164800F07DF9B36845
:101BC00023F0EC6325431D43B56008B070BD104E93
:101BD000336B43F004033363336B03F0040302936A
:101BE000029B4FF400730393022304930323069391
:101BF00000230593079303A9074800F05DF9B36834
:101C000023F0784344EAC5041C43B460DDE700BF19
:101C100000380240000002400008024008B5264B90
:101C20009B6803F00C03042B41D0082B41D1224BBD
:101C30005A6802F03F025B6813F4800F12D01E4B0B
:101C40005968C1F388111D480023A1FB0001FEF76C
:101C50002FFB194B5B68C3F3014301335B00B0FBFF
:101C6000F3F008BD144B5868C0F388104FEA401CCD
:101C7000BCEB000C6EEB0E0E4FEA8E1343EA9C6336
:101C80004FEA8C11B1EB0C0163EB0E03DB0043EA6E
:101C90005173C90011EB000C43F1000399020023BA
:101CA0004FEA8C2041EA9C51FEF702FBD1E7034842
:101CB000D7E70348D5E700BF0038024040787D01F0
:101CC0000024F400002800F0A08070B50D46044602
:101CD000524B1B6803F00F038B420BD24F4A136821
:101CE00023F00F030B431360136803F00F038B42C1
:101CF00040F08D80236813F0020F17D013F0040F0B
:101D000004D0474A936843F4E0539360236813F088
:101D1000080F04D0424A936843F460439360404AFA
:101D2000936823F0F003A1680B439360236813F0DA
:101D3000010F31D06368012B20D0022B25D0384A07
:101D4000126812F0020F64D035498A6822F003024B
:101D500013438B6002F084F90646314B9B6803F015
:101D60000C036268B3EB820F16D002F079F9801B86
:101D700041F288339842F0D9032045E0284A12689E
:101D800012F4003FE0D101203EE0254A126812F033
:101D9000007FD9D1012037E0204B1B6803F00F03EF
:101DA000AB420AD91D4A136823F00F032B4313607B
:101DB000136803F00F03AB422DD1236813F0040F17
:101DC00006D0174A936823F4E053E1680B4393600D
:101DD000236813F0080F07D0114A936823F4604377
:101DE000216943EAC1039360FFF718FF0C4B9B681E
:101DF000C3F303130B4AD35CD8400B4B18600B4B57
:101E00001868FEF7B5FA002070BD01207047012068
:101E1000FAE70120F8E70120F6E700BF003C0240A6
:101E20000038024090B9000800000020080000209F
:101E3000014B1868704700BF0000002008B5FFF78D
:101E4000F7FF044B9B68C3F38223034AD35CD8405B
:101E500008BD00BF0038024088B9000808B5FFF788
:101E6000E7FF044B9B68C3F34233034AD35CD8407B
:101E700008BD00BF0038024088B900080F23036086
:101E80000B4B9A6802F0030242609A6802F0F0027B
:101E900082609A6802F4E052C2609B68DB0803F437
:101EA000E0530361034B1B6803F00F030B607047A3
:101EB00000380240003C024000230F2B00F2F48067
:101EC00070B582B066E085684FEA430E032404FAD9
:101ED0000EF425EA0405CC6804FA0EF42C43846061
:101EE000446824EA02044A68C2F300129A4022437A
:101EF00042605DE0DC08083450F8242003F0070558
:101F0000AD004FF00F0E0EFA05FE22EA0E0E0A6922
:101F1000AA4042EA0E0240F824205DE0092200E0D7
:101F2000002202FA0EF22A430234604D45F82420C2
:101F30005F4A94686FEA0C0224EA0C054E6816F4B6
:101F4000801F01D04CEA0405594CA560E46802EA00
:101F500004054E6816F4001F01D04CEA0405544CE9
:101F6000E560646802EA04054E6816F4003F01D09B
:101F70004CEA04054E4C6560246822404D6815F417
:101F8000803F01D04CEA0402494C226001330F2B00
:101F900000F2888001229A400C6804EA020C32EABE
:101FA0000404F3D14C6804F00304013C012C8AD9E9
:101FB0004A6802F00302032A09D0C4685D000322C4
:101FC000AA4024EA02048A68AA402243C2604A68FE
:101FD00002F00302022A8DD004684FEA430E032266
:101FE00002FA0EF224EA02044A6802F0030202FA3C
:101FF0000EF2224302604A6812F4403FC6D02D4AD6
:10200000546C44F480445464526C02F48042019253
:10201000019A9C08A51C254A52F8255003F0030E8E
:102020004FEA8E0E0F2202FA0EF225EA0205224A2C
:1020300090423FF475AF02F58062904222D002F5E3
:102040008062904220D002F5806290421ED002F55C
:10205000806290421CD002F5806290421AD002F554
:102060008062904218D002F58062904216D002F54C
:102070008062904214D002F5806290423FF44EAFED
:102080000A224EE701224CE702224AE7032248E7F0
:10209000042246E7052244E7062242E7072240E7FA
:1020A00008223EE702B070BD704700BF0038014013
:1020B000003C0140003802400000024000230F2B8A
:1020C00000F29B80F0B52DE0092500E0002505FA1F
:1020D0000CF5A54275D004685D004FF0030C0CFAB6
:1020E00005FC24EA0C0404604FEAD30E0EF1080E3E
:1020F00050F82E4003F00706B6000F25B54024EA3D
:10210000050440F82E40C46824EA0C04C460446806
:1021100024EA02024260826822EA0C0282600133F1
:102120000F2B69D801229A4002EA010632EA010423
:10213000F5D14FEA930E0EF10205304C54F82540CC
:1021400003F0030C4FEA8C0C0F2505FA0CF73C400A
:102150002B4DA842BAD005F58065A84221D005F5DF
:102160008065A8421FD005F58065A8421DD005F501
:102170008065A8421BD005F58065A84219D005F5F9
:102180008065A84217D005F58065A84215D005F5F1
:102190008065A84213D005F58065A84294D00A2531
:1021A00095E7012593E7022591E703258FE70425AD
:1021B0008DE705258BE7062589E7072587E70825AD
:1021C00085E7104C256825EA06052560656825EA3F
:1021D00006056560E56825EA0605E560A56825EA67
:1021E0000605A560054E0EF1020456F8245025EAB6
:1021F000070546F824506EE7F0BD704700380140EF
:1022000000000240003C01400AB1816170470904AE
:102210008161704700285DD010B5044690F84130C8
:10222000002B46D0242384F841302268136823F021
:10223000010313606368226823F0706313612268EE
:10224000936823F400439360E368012B36D0A368BE
:10225000226843F404439360E368022B34D022687D
:10226000536823F400635360226851681A4B0B4390
:1022700053602268D36823F40043D3602369626902
:102280001343A169226843EA0123D360E369216A09
:1022900022680B4313602268136843F00103136044
:1022A00000206064202384F84130206384F84200D9
:1022B00010BD80F84030FEF76DFCB3E7A3682268DC
:1022C00043F400439360C7E72268536843F4006314
:1022D0005360C9E701207047008000022DE9F043F8
:1022E00083B0D0F8008001EBC10300EB83039A6A4E
:1022F0005B6A9A4254D807460C469B1A01EBC1020E
:1023000000EB8202D2699A4200D31A4602F1030915
:102310004FEA990915E006F103094FEA9909BB79DB
:1023200004EBC40507EB8505296A0093B3B2E2B25A
:10233000404602F0E0F92B6A33442B62AB6A334427
:10234000AB6208EB441303F510639B699BB24B45EA
:1023500012D304EBC40307EB83039A6A5B6A9A42C5
:102360000AD24BB19B1A04EBC40207EB8202D66976
:102370009E42D0D31E46CEE704EBC40307EB83078F
:102380007A6ABB6A9A420FD804F00F040122A24075
:10239000D8F8343823EA0203C8F83438002000E0C3
:1023A000012003B0BDE8F0830020FAE730B583B028
:1023B000002800F082800446056890F89534C3B187
:1023C000032384F89534B5F1A04F17D0206801F0AD
:1023D00047FF237C8DF80030231D0ECB206801F0D1
:1023E00085FE70B1022384F895340125284603B098
:1023F00030BD80F8943407F055FFE1E70023A37166
:10240000E4E70021206802F08CFB0246B8B90346DD
:102410002079984218D903EBC30104EB8101012014
:1024200048750B75CB8500200876C861086203EB00
:10243000C30104EB810148620133DBB2E8E7022308
:1024400084F895340125D1E7904217D902EBC203F5
:1024500004EB8303002183F8551283F8542283F898
:102460005812C3F85C12C3F8601202EBC20304EB0B
:102470008303C3F864120132D2B2E5E7237C8DF8FE
:102480000030231D0ECB206801F040FF054658B9EF
:1024900000236374012384F89534237B012B08D037
:1024A000206802F0FDFAA1E7022384F895340125A3
:1024B0009CE7204601F08EF9F2E7012596E790F8B7
:1024C0009434012B0ED010B50446012380F89434C7
:1024D000006801F0BFFE206802F0D4FA002084F802
:1024E000940410BD0220704770B504460D46006884
:1024F000066C00EB411303F530639A68A17901295A
:1025000011D038498E4256D03DB905EBC50304EBD6
:102510008303D3F86432002B5ED0E9B2204607F083
:1025200075FF002070BD12F0080F09D02E498E42B1
:10253000F7D912F4004FF4D04FF400429A60F0E75C
:1025400012F0200F02D020229A60EAE712F0280F42
:10255000E7D125498E4206D912F4004F03D04FF43B
:1025600000429A60DDE705EBC50204EB8202D2F877
:1025700074121B69C3F31203CB1AC2F868327DB917
:1025800005EBC50204EB8202D2F864226AB105EBC6
:10259000C50204EB8202D2F860121944C2F860123C
:1025A000E9B2204607F032FFBBE704F29C4201216A
:1025B00002F0F6FAF4E712F4004F03D04FF40042B1
:1025C0009A60AEE712F0200F01D020229A60E9B2A3
:1025D000204607F01BFFA4E704F29C42002102F012
:1025E000DFFA9AE70A31544F0A30544F38B504469F
:1025F00003681D6C03EB4113D3F8081B0E4A954288
:1026000007D903F5306311F4004F02D04FF40042B4
:102610009A60204607F0F2FE074B9D4202D9A3794B
:10262000012B01D0002038BD04F29C42012120681A
:1026300002F0B6FAF6E700BF0A30544F90F894342F
:10264000012B0CD010B50446012380F8943441745A
:10265000006802F007FA002084F8940410BD0220FC
:10266000704738B505468C4611F0800F2BD101F02C
:102670000F0E0EEBCE04A40004F514740444211DC7
:102680000EEBCE0E00EB8E0E00208EF855020CF0F5
:102690000F0C81F800C0C2F30A028A600B714A78FD
:1026A0000AB1A1F81AC0022B1CD095F89434012B62
:1026B0001BD0012385F89434286801F001FF002025
:1026C00085F8940438BD01F00F0000EBC0018900CB
:1026D00010312944043100EBC00005EB80000124D7
:1026E0004475D4E700234B71DFE70220EAE710B519
:1026F00004460A4611F0800F20D101F00F0000EBD4
:10270000C0039B0003F514732344191D00EBC000A4
:1027100004EB8000002380F8553202F00F020A70AB
:1027200094F89434012B18D0012384F89434206851
:1027300001F012FF002084F8940410BD01F00F0096
:1027400000EBC0039B0010332344191D00EBC000B5
:1027500004EB800001234375DFE70220EDE710B5AD
:10276000144601F00F0C0CEBCC01890001F514713B
:10277000014404310CEBCC0E00EB8E0ECEF860223F
:10278000CEF864320023CEF868328EF855328EF8D7
:1027900054C28279012A04D0006801F0C3FF0020EE
:1027A00010BDCEF87042F7E701F00F0101EBC10157
:1027B00000EB8100D0F86802704710B5144601F0B4
:1027C0000F0C0CEBCC0189001031014404310CEBEF
:1027D000CC0E00EB8E0ECEF82020CEF82430002355
:1027E000CEF8283001238EF815308EF814C0827987
:1027F0009A4204D0006801F095FF002010BDCEF889
:102800003040F7E738B501F00F050279AA4238D316
:1028100004460B4611F0800F1FD101EBC101890066
:1028200001F514710144043103EBC30300EB83038E
:10283000002283F8552201238B700D7094F8943494
:10284000012B20D0012384F89434206802F0AFF8E3
:1028500085B1002084F8940438BD05EBC5018900DA
:1028600010310144043105EBC50300EB8303012261
:102870005A75E0E704F29C42A179206802F090F9D1
:10288000E7E70120E8E70220E6E701F00F0302791D
:102890009A4230D310B5044611F0800F1ED103EBDD
:1028A000C301890001F514710144043103EBC30233
:1028B00000EB8202002082F8550200228A700B7021
:1028C00094F89434012B18D0012384F894342068B0
:1028D00002F09AF8002084F8940410BD03EBC301C1
:1028E000890010310144043103EBC30200EB820282
:1028F00001205075E1E7012070470220EDE708B59F
:1029000011F0800F0CD101F00F0101EBC101890022
:1029100001F5147101440431006801F08DFE08BD19
:1029200001F00F0101EBC1018900103101440431B4
:10293000F2E72DE9F04F83B004460568284602F01F
:10294000ECF810B103B0BDE8F08F0646206802F045
:10295000B5F80028F6D005F50067BB68C3F30D2372
:10296000C4F8D434206802F0A9F810F0020F04D0A3
:102970002268536903F002035361206802F09EF855
:1029800010F0100F16D02268936923F010039361A2
:10299000D5F8208008F00F0908F4F013B3F5802F64
:1029A0006AD0B3F5402F00F08D802268936943F020
:1029B00010039361206802F081F810F4002F40F0BA
:1029C0009380206802F07AF810F4802F40F0FC80A9
:1029D000206802F073F80028C0F27D81206802F0C0
:1029E0006DF810F4006F09D0BB6813F0010F40F0D0
:1029F0008A812268536903F400635361206802F0FE
:102A00005DF810F0006F15D02268536903F0006381
:102A1000536194F8CC34002B40F07981012184F883
:102A2000CC1423685B6DC3F38303C4F8D034204611
:102A300007F0AAFD206802F041F810F4805F40F032
:102A40006A81206802F03AF810F4005F40F0B68125
:102A5000206802F033F810F0080F40F0C7812068BA
:102A600002F02CF810F0800F00F0DA81AB6923F04F
:102A70008003AB610126C3E147F6F07318EA030F48
:102A800093D04FEA181A4FEAC903019309EBC90B17
:102A900004EB8B0BC8F30A12DBF86012284601F036
:102AA00063FFDBF86032CAF30A0A5344CBF86032A2
:102AB000DBF86832019A4A4404EB82025344C2F8BC
:102AC000683272E7082204F29C41284601F04CFF6C
:102AD00009EBC90304EB8303D3F86822C8F30A188F
:102AE0004244C3F8682260E7206801F0EBFF8046AB
:102AF000B14635E005EB49130122C3F8082B4946DE
:102B00002046FFF7F1FC3CE005EB49130822C3F82F
:102B1000082B49462046FFF769FD35E009EBC9035C
:102B200004EB830393F85732012B41D005EB491393
:102B30000222C3F8082B1AF0200F04D005EB49132A
:102B40002022C3F8082B1AF4005F05D005EB4913C7
:102B50004FF40052C3F8082B09F101094FEA580855
:102B6000B8F1000F3FF42DAF18F0010FF4D05FFA69
:102B700089FB5946206801F0B5FF824610F0010F2D
:102B8000B8D11AF0080FBFD11AF0100F04D005EB1E
:102B900049131022C3F8082B1AF0020FCBD06B692F
:102BA00013F0800FBAD07B6843F480637B60B5E795
:102BB00009EBC90304EB8303002283F8572259462B
:102BC000204607F073FCB1E7206801F083FF8046E0
:102BD000B14625E05946204607F024FC1AF0080FBC
:102BE00004D005EB49130822C3F808291AF0100F86
:102BF00004D005EB49131022C3F808291AF0400F3E
:102C000004D005EB49134022C3F808291AF0020F3B
:102C100040D11AF0800F59D109F101094FEA580843
:102C2000B8F1000F3FF4D4AE18F0010FF4D05FFA02
:102C300089FB5946206801F05EFF824610F0010FC3
:102C4000CCD009F00F02012101FA02F27B6B23EADA
:102C500002037B6305EB4913C3F80819A3798B4280
:102C6000B8D109EBC90304EB83031A6AD9690A4492
:102C70001A62B9F1000FADD109EBC90304EB83036C
:102C80005B6A002BA6D104F29C420121206801F06E
:102C900087FF9FE74946284601F0E8FA09EBC90398
:102CA00004EB8303DB7D012B05D005EB49130222E6
:102CB000C3F80829ADE709EBC90304EB830300223D
:102CC000DA755946204607F0F7FBEEE749462046FD
:102CD000FFF704FBA0E77B6823F001037B6094F817
:102CE000CC34012B08D0204607F0DAFB2268536968
:102CF00003F00043536171E6002184F8CC142046B0
:102D000007F042FCF2E7204607F0B2FB71E62046EE
:102D100007F0AEFB8EE67B6823F001037B60102199
:102D2000206801F0A3FA1AE005EB46134FF67F3155
:102D3000C3F80819D3F8002922F40012C3F80029B7
:102D4000C3F8081BD3F8002B22F40012C3F8002BA1
:102D5000D3F8002B42F00062C3F8002B0136237930
:102D6000B342E1D8FB6943F00113FB61E37BDBB1C4
:102D7000D7F8843043F00B03C7F884307B6C43F002
:102D80000B037B64D5F8003823F4FE63C5F80038E4
:102D900004F29C42A179206801F002FF2268536985
:102DA00003F4805353614CE67A6942F22B031343D8
:102DB0007B613B6943F00B033B61E3E7206801F073
:102DC000E1FE206801F06AFBE0712668FFF730F849
:102DD0000146E279304601F0CBF9204607F033FB9B
:102DE0002268536903F40053536131E6204607F02B
:102DF00024FB2268536903F0080353612FE6013670
:102E00002379B3420CD906EBC60304EB830393F892
:102E10005732012BF3D1F1B22046FFF770FDEEE7F8
:102E2000206801F04BFE10F4801F25D1206801F0CE
:102E300045FE10F4001F58D0012326E00136237907
:102E4000B3421BD905EB4613D3F8002906EBC603A2
:102E500004EB83031B7E012BF0D1002AEEDA06EB94
:102E6000C60304EB83030122DA7566F07F01C9B261
:102E70002046FFF744FDE1E70126E0E722685369B9
:102E800003F480135361D1E7013322799A4227D9A1
:102E900005EB4312D2F8001B03EBC30204EB8202E2
:102EA00092F85822012AEFD10029EDDAD4F8D4247F
:102EB00082EA114212F0010FE6D103EBC30204EBE8
:102EC0008202012182F85712AA6942F08002AA61A7
:102ED0006A6912F0800FD7D17B6843F400737B607E
:102EE0002268536903F400135361206801F0E6FD82
:102EF00010F0804F10D1206801F0E0FD10F0040FB9
:102F00003FF420AD23685D6815F0040F0DD12268F1
:102F100053682B43536015E5204607F0D3FA226827
:102F2000536903F080435361E5E7204607F0D0FA88
:102F3000EDE7000070B54D680368DC68C4F30B442E
:102F400025444FEAC21C03EBC213D3F8884004F4B3
:102F50007044C3F888400B680468E668C6F30B4EFB
:102F60007344013304EBC21443EA0543C4F88830C8
:102F7000CD680368DC68C4F30A0405EB040E03EBB8
:102F8000C213D3F88C4004F47044C3F88C408B68AF
:102F90000468E568C5F30A052B44013304EBC21449
:102FA00043EA0E43C4F88C30036803EBC213D3F832
:102FB000944024F00704C3F89440036803EBC21361
:102FC0000C69C3F8944091F8316091F832508C69E3
:102FD00091F8303043EA062343EA0543056805EBE0
:102FE000C21E43EA0463CEF89C300EF1840E0368DF
:102FF00003EBC213D3F8984024F0FF04C3F89840C1
:10300000036803EBC2134C69C3F89840036803EBF1
:10301000C213D3F8A050294C2C40C3F8A040CC696F
:10302000036803EBC2130D6A2C43C3F8A040036886
:1030300003EBC2134A6AC3F8AC200B69072B05D80F
:10304000DFE803F03A3234363404043801250368EB
:103050006344D3F8B02002F0E022C3F8B0208B6ABA
:1030600005FB03F44B680A689B1A05FB03F3033363
:103070000268624443EA0443C2F8B0300368634420
:10308000D3F8B4206FF30A02C3F8B4200368634492
:10309000CA6AC3F8B42003686344D3F8842042F0BA
:1030A0000102C3F8842070BD0325D0E70225CEE7D6
:1030B0000225CCE70225CAE70425C8E7F8F8FFFF98
:1030C000002859D010B5044690F8A130002B4ED0FE
:1030D000022384F8A1302268936923F0704393613E
:1030E00021688A696368A0680343E0680343206934
:1030F000034313438B616169A369226843EA014377
:103100009360E169236A226843EA0143D360616AFC
:10311000A36A226843EA01431361E16A236B2268D0
:1031200043EA0143536194F8350094F836301B04A8
:103130002168CA6A02F07F42CA622168CA6A43EA09
:10314000002394F8340003431343CB622268536B8B
:1031500043F0060353632268936943F001039361CC
:103160000020C4F8A400012384F8A13010BD80F829
:10317000A030FDF7A9FCABE701207047704770470E
:10318000704770B5044603689D6B5E6B15F0040FC5
:1031900002D016F0040F12D115F0020F02D016F073
:1031A000020F21D115F0010F02D016F0010F32D11C
:1031B00015F0080F02D016F0080F3DD170BD5A6B04
:1031C00022F004025A6303680422DA63D0F8A430C0
:1031D00043F00103C0F8A43080F8A120002380F858
:1031E000A030FFF7CBFFD7E72268536B23F0020331
:1031F000536323680222DA63D4F8A4301343C4F87B
:10320000A430042384F8A130002384F8A0302046A1
:10321000FFF7B4FFC6E72268536B23F00103536343
:1032200022680123D36384F8A130002384F8A030FE
:103230002046FFF7A4FFBBE72268536B23F0080387
:10324000536323680822DA63012384F8A130002342
:1032500084F8A0302046FFF793FFAFE7F8B590F869
:10326000A030012B2CD004460D461646012780F8CD
:10327000A070022380F8A1304FF0340C0CFB020C3C
:103280000CF1380C8E46BEE80F00ACE80F00BEE82B
:103290000F00ACE80F00BEE80F00ACE80F00DEF84E
:1032A0000030CCF80030324629462046FFF742FE77
:1032B00023685F6284F8A170002084F8A000F8BD44
:1032C0000220FCE77047000090F83D30012B3AD116
:1032D000022380F83D300268D36843F00103D360D5
:1032E00003681B4AB3F1804F18BF93421DD0A2F56B
:1032F0007C42934219D002F58062934215D002F5C8
:103300008062934211D002F5784293420DD002F5CB
:103310007052934209D0A2F59432934205D01A68B4
:1033200042F001021A60002070479968094A0A4079
:10333000062A18BFB2F5803F07D01A6842F0010292
:103340001A6000207047012070470020704700BFBE
:103350000000014007000100704770477047704748
:1033600070B504460368DE681D6915F0020F10D0C1
:1033700016F0020F0DD06FF002021A6101230377DD
:1033800003689B6913F0030F64D0FFF7E6FF002387
:10339000237715F0040F12D016F0040F0FD0236816
:1033A0006FF004021A610223237723689B6913F4E8
:1033B000407F55D02046FFF7D0FF0023237715F03C
:1033C000080F12D016F0080F0FD023686FF0080214
:1033D0001A61042323772368DB6913F0030F46D0B7
:1033E0002046FFF7BAFF0023237715F0100F12D005
:1033F00016F0100F0FD023686FF010021A61082327
:1034000023772368DB6913F4407F37D02046FFF72A
:10341000A4FF0023237715F0010F02D016F0010F4F
:1034200033D115F4025F02D016F0800F35D115F4B8
:10343000807F02D016F0800F37D115F0400F02D0F8
:1034400016F0400F39D115F0200F02D016F0200FE2
:103450003BD170BDFFF780FF2046FFF77FFF96E767
:103460002046FFF779FF2046FFF778FFA5E72046C3
:10347000FFF772FF2046FFF771FFB4E72046FFF722
:103480006BFF2046FFF76AFFC3E723686FF0010276
:103490001A612046FDF766FFC3E723686FF4025206
:1034A0001A61204600F0ABF9C1E723686FF480721F
:1034B0001A61204600F0A4F9BFE723686FF04002CC
:1034C0001A612046FFF74BFFBDE723686FF020022B
:1034D0001A61204600F092F9BBE7000070B403685F
:1034E0003C4A904214BF00220122B0F1804F14BF29
:1034F000144642F00104ACB9374DA84214BF002570
:103500000125364EB0420DD065B905F1804505F56F
:103510008235A84214BF0025012506F50066B04299
:1035200000D01DB123F070034D682B43002C33D124
:10353000294CA04214BF00240124284DA8422BD0BE
:1035400054BB04F1804404F58234A04214BF00242B
:10355000012405F50065A8421ED0ECB9204CA0421C
:1035600014BF0024012405F59A35A84214D09CB953
:103570001C4CA04214BF0024012405F50065A8429C
:103580000AD04CB9184CA04214BF00240124A5F560
:103590009635A84200D01CB123F44073CC68234375
:1035A00023F080034C6923438C68C4620C688462F6
:1035B0000E4CA04208BF42F001020AB10A69026340
:1035C000026842F00402026001224261036070BCA2
:1035D000704700BF000001400008004000040040A8
:1035E0000044014000180040002000400004014059
:1035F00060B310B5044690F83D3013B3022384F84D
:103600003D30214651F8040BFFF768FF012384F891
:10361000483084F83E3084F83F3084F8403084F8F5
:10362000413084F8423084F8433084F8443084F8E0
:10363000453084F8463084F8473084F83D30002027
:1036400010BD80F83C30FFF73DFED7E70120704702
:10365000002838D010B50446437F1BB3022363779C
:1036600023791BBB2368194A5A612268936823F0A7
:1036700018039360637913BB23684FF0FF321A611C
:103680002268936823F0600361690B4393602268AA
:10369000936823F08003A1690B4393600123637750
:1036A000002010BD0377FEF735F8D7E7E268A16880
:1036B000204602F0C1F80028DCD00120F1E72368A1
:1036C00022691A61DCE70120704700BFB71DC10401
:1036D000034690F84120202A23D190F84020012A67
:1036E00021D0012280F84020242280F84120006867
:1036F000026822F0010202601868026822F4805217
:103700000260186802680A43026019680A6842F099
:1037100001020A60202283F84120002083F8400043
:1037200070470220704702207047034690F84120FE
:10373000202A21D190F84020012A1FD0012280F8B0
:103740004020242280F841200068026822F0010213
:1037500002601868026822F4706242EA0122026084
:1037600019680A6842F001020A60202283F84120A9
:10377000002083F840007047022070470220704705
:1037800010B40468606A31B940EA0240A0620020C7
:103790005DF8044B70478C46A36A00EB134000238E
:1037A00008E003F1400104EB8101496800EB11409E
:1037B0000133DBB20CF1FF318B42F2D340EA02401D
:1037C0000CF13F0104EB81046060E0E7036859629B
:1037D00000207047034602680121C0F8D814002079
:1037E00083F8CC04936943F000639361516D024BFD
:1037F0000B435365704700BF0300001070477047CC
:10380000704742EA811242EA0322009B42EA0342E5
:10381000C26670472DE9F843054689461746984623
:1038200000F01EFC06462C68636F13F0010F07D1F1
:1038300000F016FC801BB0F57A7FF4D9032008E075
:1038400047EA891343EA0823089A43EA0243E366F6
:103850000020BDE8F8830000002800F0068170B564
:1038600084B00D460446437C1BB3032363740023DA
:1038700000932268D2F8303443F08073C2F83034B9
:103880002368D3F8303403F080730093009B00F07A
:10389000E7FB06462368D3F80C2412F4805F0BD1B3
:1038A00000F0DEFB801BB0F57A7FF3D9032004B073
:1038B00070BDFDF7C1F8D8E7D3F830146C4A0A4060
:1038C000C3F830242168D1F8302428686B68DB0203
:1038D00043EA8003A86843EA00431343C1F8303445
:1038E000002301932268D2F8303443F00103C2F878
:1038F00030342368D3F8303403F001030193019B83
:10390000012000F0B3FB00F0ABFB06462368D3F8C0
:103910000C2412F4807F07D100F0A2FB801BB0F5CD
:103920007A7FF3D90320C2E7002202925A6842F05C
:1039300001025A6023685A6802F001020292029A58
:103940009A6822F0FF029A6022689368A1680B438C
:1039500093602268D2F8A03043F00203C2F8A0308E
:103960002268D2F8A03043F00403C2F8A0302268E5
:10397000D2F8A43023F00303C2F8A4302268D2F8AE
:10398000A430E1680B43C2F8A43000F069FB06469E
:103990002368D3F8A43013F0030F10D02368D3F8B2
:1039A000B03003F09403942B1AD000F059FB831B22
:1039B000B3F57A7FF2D900232374032077E72368D5
:1039C000D3F8B03003F01403142B09D000F048FBF7
:1039D000801BB0F57A7FF2D900232374032066E7B9
:1039E0006B6803B90123234A02FB03F3AA6802F0C0
:1039F000030293402A6846F2A81101FB02F2B3FBCE
:103A0000F2F32168D1F8182422F03F02C1F81824FB
:103A10002168D1F818241343C1F818342368002012
:103A2000C3F8C4002368C3F8C800A06103902268EB
:103A3000536823F00103536023685A6802F00102BF
:103A40000392039AD3F8942022F00302C3F894203F
:103A50002268D2F8943061680B4343F00103C2F846
:103A6000943060610123637421E70120704700BF37
:103A70000386FCFF00093D0000284AD030B585B020
:103A8000044603234374002500950268D2F80434E9
:103A900023F00803C2F804340368D3F8042402F0C6
:103AA00008020092009A01955A6822F001025A60B9
:103AB00003685A6802F001020192019AD3F8A0202B
:103AC00022F00602C3F8A02002950268D2F8303432
:103AD00023F00103C2F830340368D3F8302402F035
:103AE00001020292029A0395D3F8302422F08072E8
:103AF000C3F830240368D3F8303403F080730393A1
:103B0000039BFCF7CBFF656165742574284605B0FF
:103B100030BD012070470000027C012A00F02381A3
:103B200030B40346012202740068426B22F00102A5
:103B300042631868D0F8002422F00102C0F8002483
:103B40001868826B22F0030282631868826BCC686B
:103B5000224382631868C26B6FF30D02C263186858
:103B6000C26B0C692243C2631868026C7F4C22400E
:103B700002641868026C4D692A4302641868426C3A
:103B8000224042641868426C8C692243426418687F
:103B9000C26822F00302C2601868C2680C6822433F
:103BA000C2601868426922F0070242611C686069BD
:103BB0004A6A0D6A2A43CD692A4302436261186842
:103BC000026922F00F020261186802694C68224300
:103BD00002611868D0F8002422F00E02C0F8002418
:103BE0001868D0F800244C6842EA4402C0F8002467
:103BF0004A68032A00F0AC801868826C5C4C224052
:103C000082641868826C8D6A2A4382641868C26C68
:103C10002240C2641868C26CCC6A2243C26418682D
:103C2000026D6FF30E0202651868026D0C6B224381
:103C300002651C68626D4F48024062651C68626DD7
:103C40004D6B2A4362651C68A26D0240A2651C6828
:103C5000A26D8D6B2A43A2651C68E26D0240E2658D
:103C60001868C26DCC6B2243C2651868026E6FF390
:103C70000D0202661868026E0C6C22430266186818
:103C8000826B22F4004282631868826B4C6C224380
:103C900082631868826922F47F02826118688269EF
:103CA0008C6C42EA044282611868826922F0FF0249
:103CB000826118688269CC6C224382611868826BC9
:103CC00022F4005282631868826B0C6D2243826377
:103CD0001868826B22F4805282631868826B4C6D84
:103CE000224382631868826B22F400628263186840
:103CF000826B8C6D224382631868826B22F480622F
:103D000082631868826BCC6D224382631868826B71
:103D100022F4007282631868826B0C6E2243826305
:103D20001868826B22F4807282631868826B4C6E12
:103D3000224382631868826B22F48042826318688F
:103D4000826B896E0A4382630020187430BC70470E
:103D50001868026922F480720261186802698C682E
:103D60002243026148E70220704700BF00E0FFFFE6
:103D700000F0FFFF00FCFFFF037C012B0ED00123AE
:103D800003740268D36A23F01F03D3620268D36A04
:103D90000B43D36200230374184670470220704718
:103DA000027C012A21D082B0034601220274002045
:103DB000009019684A6842F001024A601A68516826
:103DC00001F00101009100990190D2F8041441F032
:103DD0000801C2F804141A68D2F8042402F0080298
:103DE0000192019A187402B0704702207047027C59
:103DF000012A21D082B003460122027400200090E3
:103E000019684A6822F001024A601A68516801F094
:103E10000101009100990190D2F8041421F00801E9
:103E2000C2F804141A68D2F8042402F008020192BD
:103E3000019A187402B070470220704710B582B022
:103E40000446007C01280AD00120207404980090C8
:103E50002046FFF7DFFC0023237402B010BD0220D0
:103E6000FBE72DE9F04782B01D460A9EDDF82C8065
:103E7000037C012B53D004468A4617460123037462
:103E800000F0EEF881462268536F13F0010F0AD15B
:103E900000F0E6F8A0EB0900B0F57A7FF3D9002333
:103EA0002374032038E0AC46032D28BF4FF0030CE9
:103EB000002305E018F803100133D80081400E43B9
:103EC0006345F7D31667A5EB0C0608EB0C000FE073
:103ED00010F80CE04FEACC020EFA02FE43EA0E03A1
:103EE0000CF1010C8C45F3D322681367761A084451
:103EF00036B13146042E28BF042100239C46F1E749
:103F00006B1CC3F307220092DBB23A46514620688D
:103F1000FFF777FC0020207402B0BDE8F087022094
:103F2000FAE72DE9F04182B01C46089F037C012B83
:103F30007DD006468846154601230374022C2CD8F2
:103F4000142F4CD036D8042F41D0062F51D1002346
:103F50000093099B3A4641463068FFF752FC00F057
:103F60007FF80746002C5DDD3368596F11F01001B2
:103F700043D000F075F8C01BB0F57A7F4ED8336897
:103F80005A6F12F0400FEDD1D3F8C03013F0200F6C
:103F9000E8D000233374012046E0C4F307230093E4
:103FA000E3B23722FFF736FC0028C9D00023337470
:103FB000012039E0242F1CD10A9B5B7800930A9BD7
:103FC0001B783A4641463068FFF71BFCC7E70023E1
:103FD00000933A4641463068FFF713FCBFE70023E1
:103FE00000930A9B1B783A4641463068FFF709FC6C
:103FF000B5E700233374012016E01A6F2346042C22
:1040000028BF042307E04FEAC10C22FA0CFC05F894
:1040100001CB013C01319942F5D3AAE70023337467
:10402000032001E00020307402B0BDE8F0810220DE
:10403000FAE708B5032001F047FB0020FCF798F9E8
:10404000FDF7A6FA002008BD034A1168034B1B7850
:104050000B441360704700BFE813002004000020E9
:10406000014B1868704700BFE813002038B50446BC
:10407000FFF7F6FF0546B4F1FF3F02D0044B1B7873
:104080001C44FFF7EDFF401BA042FAD338BD00BF30
:104090000400002082B000230193019B01330193AF
:1040A000019BB3F1706F1CD80369002BF5DA0A236A
:1040B000019302E0019B013B0193019B002BF9D18D
:1040C000036943F001030361019B01330193019BE9
:1040D000B3F1706F08D8036913F0010FF4D1002019
:1040E00000E0032002B070470320FBE784B010B566
:1040F000044603A880E80E009DF81130012B1FD163
:10410000A36B23F48033A363E268184B1340E3608E
:10411000E36823F44013E3609DF81830012B0AD0C4
:104120002046FFF7B7FF9DF80E30012B14D0BDE8F5
:10413000104004B07047E36843F48013E360EFE796
:10414000E36843F04003E3602046FFF7A3FFA36B5F
:1041500043F48033A363E6E7A36843F00603A36058
:10416000A36843F02003A360E1E700BFBFFFBDFFEA
:10417000022A0AD00922C36823F47053C360C368BB
:1041800043EA8223C36000207047204B0B44204A3F
:10419000934229D91F4B0B441F4A934226D91F4BE8
:1041A0000B441F4A934223D91E4B0B441E4A934291
:1041B00020D31E4B0B441E4A93421DD91D4B0B446A
:1041C0001D4A93421AD31D4B0B441D4A934217D3E9
:1041D0001C4B0B441C4A934214D31C4B0B441C4AEB
:1041E000934211D20722C6E70F22C4E70E22C2E78C
:1041F0000D22C0E70C22BEE70B22BCE70A22BAE779
:104200000922B8E70822B6E70622B4E7405327FFA1
:10421000FF340C00401E1BFF3F420F0000DC0BFF71
:104220007F4F1200808CF9FE20D6130060B6E5FEA9
:104230005FE3160000D3CEFE40771B00C05BB3FEE9
:10424000C091210000CA91FE20753800E05459FE4B
:10425000E09C4100836843F00103836000207047C5
:10426000836823F0010383600020704782B000233D
:104270000193019B01330193019BB3F1706F15D83A
:104280000369002BF5DA00230193890141F0200135
:104290000161019B01330193019BB3F1706F08D859
:1042A000036913F0200FF4D1002000E0032002B0D6
:1042B00070470320FBE782B000230193019B013389
:1042C0000193019BB3F1706F13D80369002BF5DAEA
:1042D0000023019310230361019B01330193019B90
:1042E000B3F1706F08D8036913F0100FF4D10020F8
:1042F00000E0032002B070470320FBE7D0F800384D
:104300001943C0F8001800207047000084B0F8B5C9
:10431000044607A880E80E00002306E003F14002EF
:1043200004EB82020021516001330E2BF6D99DF877
:10433000266006BBD4F8043843F00203C4F80438FE
:10434000A36B23F40013A363236843F040032360AB
:10435000236843F0800323600023C4F8003E9DF8E7
:104360002130012B11D19DF81F304BB9002120467F
:10437000FFF7C4FF0DE0A36B43F40013A363EBE767
:1043800001212046FFF7BAFF03E003212046FFF793
:10439000B5FF10212046FFF769FF054600B1012552
:1043A0002046FFF788FF00B1012504F5006C0023CB
:1043B000CCF81030CCF81430CCF81C300DE04FF0B5
:1043C0009040C2F8000902E00020C2F80009002273
:1043D0000A614FF67F328A6001339DF81C109942C2
:1043E0000ED904EB431202F51061D2F8000900283F
:1043F000EADA002BE3D14FF00060C2F80009E6E7EB
:1044000000230AE0BBB14FF09047C2F8007B0022C6
:1044100002614FF67F3282600133994210D904EB7A
:10442000431202F53060D2F8007B002FEADB002750
:10443000C2F8007BEBE74FF00067C2F8007BE6E7CD
:10444000DCF8103023F48073CCF810300023A36123
:104450006FF0804363619DF81E301BB9A36943F080
:104460001003A361A2690B4B1343A3619DF8223093
:104470001BB1A36943F00803A361012E04D02846B1
:10448000BDE8F84004B07047A269034B1343A36131
:10449000F5E700BF00383C8004000040D0F8083841
:1044A00003F00603022B04D0062B04D02BB9002006
:1044B000704702207047022070470F2070470000AD
:1044C00010B591F800C04B78012B21D000F5006E9B
:1044D000D0F81C380CF00F040122A24043EA02433A
:1044E000C0F81C3800EB4C10D0F8003B13F4004F20
:1044F0000CD1D0F8002B8B68C3F30A03097943EA87
:1045000081431A43134B1343C0F8003B002010BDF6
:10451000D0F81C280CF00F0E03FA0EF39BB21343D5
:10452000C0F81C3800EB4C10D0F8003913F4004FE1
:10453000ECD1D0F800298B68C3F30A03097943EA68
:10454000814343EA8C531A43024B1343C0F80039AA
:10455000DCE700BF0080001030B40B784A78012AF5
:1045600026D000EB4313D3F8002B002A52DBD0F8FF
:104570003C480A7802F00F024FF0010C0CFA02F2EC
:1045800024EA0242C0F83C28D0F81C28097801F03F
:104590000F010CFA01FC22EA0C42C0F81C28D3F8E7
:1045A000001B234A0A40C3F8002B002030BC704790
:1045B00000EB4313D3F80029002A1EDBD0F83C5847
:1045C0000A7802F00F02012404FA02F292B225EAFC
:1045D0000202C0F83C28D0F81C28097801F00F012D
:1045E0008C40A4B222EA0402C0F81C28D3F80019B7
:1045F000104A0A40C3F80029D7E7D3F8002942F04F
:104600000062C3F80029D3F8002942F08042C3F8C1
:104610000029D3E7D3F8002B42F00062C3F8002B47
:10462000D3F8002B42F08042C3F8002B9FE700BF75
:104630000078F3EF007833EC10B483B00246002327
:104640000193487801280BD00B7802EB4313D3F881
:10465000000B00282DDB002003B05DF8044B7047F1
:104660000B7802EB4313D3F80049002C01DB002048
:10467000F2E7D3F8004944F00064C3F800490B782E
:1046800002EB4313D3F8004944F08044C3F80049D7
:10469000019B01330193019C42F210739C42DBD8D1
:1046A0000B7802EB4313D3F80039002BF0DB00202A
:1046B000D2E7D3F8000B40F00060C3F8000B0B7892
:1046C00002EB4313D3F8000B40F08040C3F8000B1B
:1046D000019B01330193019842F21073984208D86C
:1046E0000B7802EB4313D3F8003B002BF0DB0020E8
:1046F000B2E70120B0E710B59DF8084084B9033354
:104700004FEA930E4FF0000C08E000EB023303F584
:10471000805351F8044B1C600CF1010CF445F4D3A8
:10472000002010BDF0B583B00C784B78012B2DD054
:1047300000EB441C0CF530631D696FF312051D611D
:104740001D696FF3DC451D61002C40F0CE800C69C3
:104750000CB18C680C618C680C621D69C4F3120486
:104760002C431C611C6944F400241C61012A00F0E4
:10477000DF800B79012B00F0E180DCF8003B43F097
:104780000443CCF8003B002003B0F0BD0B6973BBC1
:1047900000EB4413D3F810596FF3DC45C3F81059FC
:1047A000D3F8105945F40025C3F81059D3F810591F
:1047B0006FF31205C3F81059012A54D000EB4414CA
:1047C000D4F8003943F00443C4F800390B79012BC5
:1047D00072D00B69002BD6D0D0F83438097801F0AC
:1047E0000F0101228A401343C0F83438CBE700EBB5
:1047F000441303F510631D696FF312051D611D69F4
:104800006FF3DC451D6184B90E698D68AE4200D935
:104810000D611D6945F400251D611D690E69C6F312
:10482000120C45EA0C051D61C6E70D698E6835441A
:10483000013DB5FBF6F51E691FFA85FC494F07EAF5
:10484000C54535431D610D79012DE6D11D6925F062
:10485000C0451D611D694FEA4C7C0CF0C04C45EA17
:104860000C051D61D9E7CB691BB100EB4412C2F8FE
:1048700014390B79012B08D000EB4414D4F800391B
:1048800043F00443C4F800397DE7D0F8083813F446
:10489000807F08D100EB4412D2F8003943F0005376
:1048A000C2F80039E8E700EB4412D2F8003943F0CF
:1048B0008053C2F80039DFE7D0F8083813F4807F5E
:1048C0000CD1D4F8003943F00053C4F800390092F9
:1048D0000B8A0A78C968FFF70EFF54E7D4F800394D
:1048E00043F08053C4F80039F1E70C6954B91C69EE
:1048F0008D68C5F312052C431C611C6944F4002427
:104900001C6133E78D682C44013CB4FBF5F4A4B280
:1049100004FB05F50D621D69124E06EAC4442C43E2
:104920001C611C690D6AC5F312052C431C611DE74F
:10493000CA68002A3FF41DAF5A611AE7D0F8083858
:1049400013F4807F06D1DCF8003B43F00053CCF831
:10495000003B12E7DCF8003B43F08053CCF8003B0F
:104960000BE700BF0000F81F10B5844608464FEA69
:10497000920E02F00302002305E00CF58051096855
:1049800040F8041B01337345F7D37AB10CF5805C12
:10499000DCF800400021CBB2DB0024FA03F300F87E
:1049A000013B0131013A92B2002AF4D110BD0B78DB
:1049B0004A78012A14D000EB4310D0F8002B002ACB
:1049C00006DB2BB1D0F8003B23F08043C0F8003B5E
:1049D000D0F8003B43F40013C0F8003B00207047C0
:1049E00000EB4310D0F80029002A06DB2BB1D0F8E9
:1049F000003923F08043C0F80039D0F8003943F47F
:104A00000013C0F80039E9E70B784A78012A0ED084
:104A100000EB4310D0F8003B23F40013C0F8003B38
:104A20000B79023BDBB2012B15D90020704700EB5C
:104A30004310D0F8003923F40013C0F800390B7983
:104A4000023BDBB2012BF0D8D0F8003943F08053A1
:104A5000C0F80039E9E7D0F8003B43F08053C0F8D4
:104A6000003BE2E7D0F8003823F4FE63C0F80038DA
:104A7000D0F80038090101F4FE610B43C0F800389A
:104A800000207047D0F8003E23F00303C0F8003E3A
:104A9000D0F8043823F00203C0F80438002070472F
:104AA000D0F8003E23F00303C0F8003ED0F80438ED
:104AB00043F00203C0F8043800207047426980695F
:104AC00010407047D0F8183800F50060C0691840F1
:104AD000000C7047D0F8183800F50060C069184025
:104AE00080B2704700EB4111D1F8082B00F500604F
:104AF000406910407047D0F81028D0F8343801F0E1
:104B00000F0C23FA0CF3DB01DBB2134300EB411073
:104B100000F51060806818407047406900F001009F
:104B2000704738B50546C36823F0C043C360012908
:104B300013D019BBC36843F08043C36000240A202C
:104B4000FFF794FA0A342846FFF7E7FF08B1C72CAD
:104B5000F5D9C82C14D0002038BDC36843F00053E9
:104B6000C36000240A20FFF781FA0A342846FFF7C1
:104B7000D4FF0128EDD0C72CF4D9EAE70120EBE7F8
:104B80000120E9E7D0F800396FF30A03C0F80039D3
:104B9000D0F8043843F48073C0F80438002070471C
:104BA00010B4046C154B9C4203D9D0F8003B002B89
:104BB00016DB0024C0F8104BD0F8104B44F400244E
:104BC000C0F8104BD0F8104B44F01804C0F8104B4C
:104BD000D0F8104B44F0C044C0F8104B012903D06A
:104BE00000205DF8044B7047C0F8142BD0F8003B50
:104BF00043F08023C0F8003BF2E700BF0A30544F77
:104C00004B6A0BB14FF00053C3600B6A0BBB4FF004
:104C100080438360CB69F3B94FF0004343604B6B33
:104C2000013B83614B6B8A6B1344013B03624B6B0B
:104C30008A6B13440A6C1344013B83624B6B8A6B8F
:104C400013440A6C1344CA6B1344013B03630020F2
:104C500070470023DDE70023E0E710B40B68CBB911
:104C600002686FF30E024B688C682343CC682343C1
:104C70000C6923434C6923438C692343CC69234348
:104C80000C6A2343496A0B431343036000205DF819
:104C9000044B7047036823F4F843CA690C6A224343
:104CA0004C6A22431343036042686FF30E024B6861
:104CB0008C682343CC6823430C6923434C6923430A
:104CC00089690B4313434360E0E7000010B43ABB2B
:104CD000826802F070420B68013B4C6804F1FF3CB3
:104CE00043EA0C138C6804F1FF3C43EA0C23CC68C4
:104CF00004F1FF3C43EA0C330C6904F1FF3C43EA46
:104D00000C434C6904F1FF3C43EA0C5389690139B7
:104D100043EA01631343836000205DF8044B70474E
:104D20008368134A1A40CB6803F1FF3C4B69013B8F
:104D30001B0543EA0C331A438260C26802F07042DA
:104D40000B68013B4C6804F1FF3C43EA0C138C6890
:104D500004F1FF3C43EA0C230C6904F1FF3C43EAF5
:104D60000C438969013943EA01631343C360D3E704
:104D7000FF0F0FFF10B402696FF315020B684C6848
:104D800023438C6804F1FF3C43EA4C13C96843EAAF
:104D900041231343036100205DF8044B70474369CE
:104DA0006FF34D0343EA4103436100207047000065
:104DB000F0B583B00446066816F001060DD0B54B79
:104DC0009A6822F400029A609A68416B0A439A60DA
:104DD000436B002B00F067810026256815F4002541
:104DE00011D0AC4AD2F88C3023F44013E16B0B4362
:104DF000C2F88C30E36BB3F5801F00F05681002BB6
:104E000000F055810025236813F4801F0FD0A14ABC
:104E1000D2F88C3023F44003216C0B43C2F88C3061
:104E2000236CB3F5800F00F0448103B9012523689A
:104E300013F0807F00D0012613F0200F40F03B815B
:104E4000236813F0100F0CD0924BD3F88C2022F073
:104E50008072C3F88C20D3F88C20A16B0A43C3F86E
:104E60008C20236813F4804F08D08A4AD2F89030FF
:104E700023F44033616E0B43C2F89030236813F47F
:104E8000004F08D0834AD2F8903023F44023A16E1B
:104E90000B43C2F89030236813F4803F08D07D4A5A
:104EA000D2F8903023F44013E16E0B43C2F89030F7
:104EB000236813F4003F08D0764AD2F8903023F4E8
:104EC0004003216F0B43C2F89030236813F0400F6A
:104ED00008D0704AD2F8903023F00303616C0B4382
:104EE000C2F89030236813F0800F08D0694AD2F8D6
:104EF000903023F00C03A16C0B43C2F89030236870
:104F000013F4807F08D0634AD2F8903023F0300346
:104F1000E16C0B43C2F89030236813F4007F08D093
:104F20005C4AD2F8903023F0C003216D0B43C2F8E5
:104F30009030236813F4806F08D0564AD2F890302E
:104F400023F44073616D0B43C2F89030236813F46F
:104F5000006F08D04F4AD2F8903023F44063A16D1F
:104F60000B43C2F89030236813F4805F08D0494A9D
:104F7000D2F8903023F44053E16D0B43C2F89030E7
:104F8000236813F4005F08D0424AD2F8903023F42B
:104F90004043216E0B43C2F89030236813F4800F16
:104FA00008D03C4AD2F8903023F08063A16F0B43C5
:104FB000C2F89030236813F4001F0DD0354AD2F8A0
:104FC000903023F00063E16F0B43C2F89030E36F41
:104FD000B3F1006F00F0D580236813F0080F00D004
:104FE000012513F4802F08D02A4AD2F8903023F0FC
:104FF0004073616F0B43C2F89030236813F4000FC5
:1050000009D0244AD2F8903023F08053D4F880108D
:105010000B43C2F89030236813F0806F09D01D4A0B
:10502000D2F8903023F00053D4F884100B43C2F828
:105030009030236813F0006F09D0164AD2F88C30F4
:1050400023F00073D4F888100B43C2F88C30236827
:1050500013F0805F09D00F4AD2F88C3023F08063C0
:10506000D4F88C100B43C2F88C3026B9236813F0A7
:10507000007F00F00681074A136823F08063136005
:10508000FEF7EEFF0646034B1B6813F0006F7AD065
:1050900002E000BF00380240FEF7E2FF801B6428F8
:1050A000F1D90320F0E0012697E60126A7E60125C5
:1050B000A9E60126B9E67F4B1A6C42F080521A64C9
:1050C0001B6C03F080530193019B7B4A136843F4EC
:1050D00080731360FEF7C4FF0746774B1B6813F419
:1050E000807F06D1FEF7BCFFC01B6428F5D90320E2
:1050F000CAE0704B1B6F13F4407315D0226B02F49F
:1051000040729A4210D06B4B1A6F22F44072196FA2
:1051100041F480311967196F21F4803119671A67DA
:105120001B6F13F0010F12D1236B03F44072B2F521
:10513000407F1DD05F4A936823F4F81393605D4964
:105140000B6F226BC2F30B0213430B6778E6FEF77B
:1051500087FF0746574B1B6F13F0020FE4D1FEF792
:105160007FFFC01B41F288339842F3D903208BE0C4
:105170005048826822F4F812504919400A4382606C
:10518000DDE7012528E7236813F0010F13D0636BD7
:105190008BB9484AD2F88430D2F88410606803F49E
:1051A000403343EA801301F070610B43A16843EA86
:1051B0000173C2F88430236813F4002F03D0E26B2C
:1051C000B2F5801F06D013F4801F1ED0236CB3F5F8
:1051D000800F1AD1374AD2F88430D2F88410606830
:1051E00003F4403343EA8013E06843EA006301F0CC
:1051F000E0410B43C2F88430D2F88C3023F01F0317
:10520000616A01390B43C2F88C30236813F0807F48
:1052100011D0284AD2F88400D2F884106668236935
:105220001B0443EA861300F07060034301F0E04181
:105230000B43C2F88430236813F0007F0DD06268FE
:1052400023691B0443EA8213E26843EA0263A2680B
:1052500043EA0273174AC2F88430164A136843F0CF
:1052600080631360FEF7FCFE0646124B1B6813F0CA
:10527000006F06D1FEF7F4FE801B6428F5D90320E9
:1052800002E0012D02D0002003B0F0BD094A1368EE
:1052900023F080531360FEF7E3FE0546054B1B68C1
:1052A00013F0005F0CD0FEF7DBFE401B6428F5D93D
:1052B0000320E9E70038024000700040FFFCFF0FC8
:1052C000236813F4002F01D0E26B22B113F4801F86
:1052D0001DD0236CDBB9354AD2F88830D2F888105B
:1052E000606903F4403343EA8013A06943EA006332
:1052F00001F0E0410B43C2F88830D2F88C3023F43F
:10530000F853A16A013943EA0123C2F88C302368BB
:1053100013F4001F03D0E36FB3F1006F31D02368A3
:1053200013F0080F19D0214AD2F88810D2F888302B
:10533000606903F4403343EA801301F070610B436A
:10534000E16943EA0173C2F88830D2F88C3023F463
:105350004033E16A0B43C2F88C30144A136843F0BF
:1053600080531360FEF77CFE0446104B1B6813F05D
:10537000005F19D1FEF774FE001B6428F5D90320E5
:1053800082E70A4AD2F88800D2F888106569236A51
:105390001B0443EA851300F07060034301F0E04111
:1053A0000B43C2F88830BAE700206DE700380240AE
:1053B00010B40368D9B210390A4AA2FB014212099B
:1053C000094CA25CC2655F2907D96FF30903043356
:1053D0008365806D5DF8044B70476FF30903836547
:1053E000F7E700BFABAAAAAAA0B90008836A82693E
:1053F00092B9012B0AD0022B02D00BB100207047CA
:10540000C36A13F0807F28D100207047C36AB3F1CC
:10541000C07F24D000207047B2F5005F09D0022B76
:1054200025D9032B25D1C36A13F0807F23D1002017
:105430007047032B03D8DFE803F01404140A00209C
:105440007047C36A13F0807F0DD100207047C36A94
:10545000B3F1C07F09D000207047012070470120C0
:1054600070470120704701207047012070470120DC
:1054700070470020704701207047000070B5044657
:10548000FEF7EEFD002C5CD00546022384F8353093
:10549000002384F834302268136823F0010313607A
:1054A00023681A6812F0010F0AD0FEF7D9FD431BDA
:1054B000052BF5D920236365032084F8350070BDE2
:1054C0001A68214911406268A0680243E0680243FB
:1054D0002069024360690243A0690243E069024314
:1054E000206A02430A43616A04291ED01A602668B2
:1054F000756925F00705636A1D43042B07D1A36A6C
:105500001D43E36A1BB12046FFF770FF90B9756138
:105510002046FFF74DFFE26D3F239340836000205C
:105520006065012384F83530C9E7E16A206B0143E7
:105530000A43DBE740236365002384F8353001200C
:10554000BDE70120BBE700BF3F8010E000282DD061
:1055500038B5044690F83530D8B2022B25D02268F1
:10556000136823F001031360236800251D6023687E
:105570005D6023689D602368DD6023681D6123688A
:1055800021225A612046FFF713FFE26D3F2393402B
:105590008360E56325646564A564E56425656565E8
:1055A00084F8355084F83450284638BD01207047BF
:1055B000E0B138B50D46044690F82C308BB102238B
:1055C00084F82C30214651F8040BFFF746FB626843
:1055D00029462068FFF77AFB012384F82C3000204D
:1055E00038BD80F82D30FAF78DFFE8E701207047CD
:1055F00038B5044690F82C30D8B2022B05D00D46B1
:10560000052818BF012801D0012038BD022384F8E5
:105610002C302068FFF7AEFB2B68022B04D001234F
:1056200084F82C300020F0E7052384F82C3000208B
:10563000EBE710B5044690F82C30D8B2022B04D01A
:1056400094F82C30012B01D0012010BD022384F8E6
:105650002C302068FFF7A3FB012384F82C300020B6
:10566000F3E70000002804DB0901C9B2044B195418
:10567000704700F00F000901C9B2024B195470477E
:1056800000E400E014ED00E000B500F00700C0F118
:10569000070CBCF1040F28BF4FF0040C031D062BB0
:1056A0000FD9C31E4FF0FF3E0EFA0CF021EA0001A5
:1056B00099400EFA03FE22EA0E0241EA02005DF86A
:1056C00004FB0023EEE700000649CB6823F4E06307
:1056D0001B041B0C000200F4E0600343024A1A435F
:1056E000CA60704700ED00E00000FA0510B50446FE
:1056F000054BD868C0F30220FFF7C6FF01462046DD
:10570000FFF7B0FF10BD00BF00ED00E0002807DB91
:1057100000F01F02400901239340024A42F8203062
:10572000704700BF00E100E0BFF35F8F044B5A6A8F
:1057300022F480325A620022C3F89420704700BFDE
:1057400000ED00E040F00100054BC3F894005A6AF8
:1057500042F480325A62BFF34F8FBFF36F8F7047AE
:1057600000ED00E04378144AC2F89830D2F8A03037
:1057700023F00103C2F8A0304368C2F89C30017BDB
:10578000C37A1B0643EA0173817A43EAC143417B32
:1057900043EA8143817B43EA4143C17B43EA0143BE
:1057A000417A43EA0123017A43EA410301780B433A
:1057B000C2F8A030704700BF00ED00E010B582B025
:1057C0001B4B1A6C42F080521A641B6C03F080531E
:1057D0000193019B174A136843F480331360FEF76B
:1057E0003FFC0446134B5B6813F4803F08D1FEF77F
:1057F00037FC001BB0F57A7FF4D9032002B010BD4E
:105800000C4A136843F400331360FEF729FC044686
:10581000084B5B6813F4003F07D1FEF721FC001B27
:10582000B0F57A7FF4D90320E8E70020E6E700BF6F
:10583000003802400070004011F0010F30D010B469
:105840001F231C46013B34B103F01F0C21FA0CFC52
:105850001CF0010FF5D0182A24D8DFE802F00F233E
:105860002323232323231D23232323232323192318
:105870002323232323230D00062B17D80368596104
:1058800001688B6823F0180313438B6000200AE043
:10589000072BF3D9012006E00F2BEFD9012002E0FE
:1058A0000120704701205DF8044B70470120FAE7A2
:1058B00030B505686C6C04F0404C039C44EA03442A
:1058C0004CEA04046C640368DA634368B3F5403F50
:1058D00002D00368D96030BD01F07F4C01F47F0332
:1058E00001F47F45CAB28468032C1CD8DFE804F0B9
:1058F0000402070F21F07F4103689963EBE7DB0C9B
:10590000AD0ADB0243EA451343EAD201F4E74FEA6A
:10591000DC7CDB0CED0A9B0243EA451343EACC3303
:1059200043EAD201E8E74FEA1C7C1B0D2D0B1B025A
:1059300043EA051343EA0C3343EA1211DCE700287B
:1059400032D010B5044690F8513043B3022384F8A6
:1059500051302268136823F4403361680B431360AD
:105960002268536B23F00703A1680B43536322683B
:10597000136C6FF30D03E1680B43136421684B6BE9
:1059800023F4401320696269520542EA005213432E
:105990004B6300206065012384F8513010BD80F80E
:1059A0005030FBF78BFED1E70120704710B582B075
:1059B000044690F85000012812D0012084F85000CD
:1059C000022084F85100049800902046FFF770FFF1
:1059D0002268136843F001031360002002B010BD79
:1059E0000220FBE770B582B004460D460023019308
:1059F00003681B6813F0010F11D12268D369526A42
:105A0000134313F0200F47D1236812229A60012319
:105A100084F85130002084F8500002B070BDFEF7C9
:105A20001FFB064623685A6812F0020FE5D15A6838
:105A30000192019A12F0210F14D1B5F1FF3FF1D07C
:105A4000FEF70EFB801BA84201D8002DEAD1636D42
:105A500043F020036365032084F85100002384F899
:105A60005030DAE7019A12F0200F03D0626D42F055
:105A700002026265019A12F0010F03D0626D42F0DA
:105A80000102626521229A60042384F851300023C8
:105A900084F850300120C0E7FEF7E2FA064623689A
:105AA0005A6812F0100FAFD15A680192019A12F0A1
:105AB000290F14D1B5F1FF3FF1D0FEF7D1FA801BC9
:105AC000A84201D8002DEAD1636D43F0200363653D
:105AD000032084F85100002384F850309DE7019A98
