:020000040800F2
:100000000000082051B40008C90C0008CD0C0008FD
:10001000DD0C0008DF0C0008E10C00080000000007
:100020000000000000000000000000002191000816
:10003000E30C000800000000C191000825920008B0
:10004000A1B40008A1B40008A1B40008A1B400083C
:10005000A1B40008A1B40008A1B40008A1B400082C
:10006000A1B40008A1B40008A1B40008A1B400081C
:10007000A1B40008A1B40008A1B40008A1B400080C
:10008000A1B40008A1B40008A1B40008A1B40008FC
:10009000A1B40008A1B40008A1B40008A1B40008EC
:1000A000A1B40008A1B40008A1B40008A1B40008DC
:1000B000A1B40008A1B40008A1B40008A1B40008CC
:1000C000A1B40008A1B40008A1B40008A1B40008BC
:1000D000A1B40008A1B40008A1B40008A1B40008AC
:1000E000A1B40008A1B40008A1B40008A1B400089C
:1000F000A1B40008A1B40008A1B40008A1B400088C
:10010000A1B40008A1B40008A1B40008A1B400087B
:10011000A1B40008150D0008E50C0008A1B4000802
:10012000A1B40008A1B40008A1B40008A1B400085B
:10013000A1B40008A1B40008A1B40008A1B400084B
:10014000A1B40008A1B40008A1B40008A1B400083B
:10015000A1B40008A1B40008A1B40008A1B400082B
:10016000A1B40008A1B40008A1B40008A1B400081B
:10017000A1B40008F50C0008A1B4000800000000BC
:10018000A1B40008A1B40008A1B40008A1B40008FB
:10019000A1B40008A1B40008A1B40008A1B40008EB
:1001A000050D0008A1B40008A1B40008A1B400081E
:1001B000A1B40008A1B40008A1B40008A1B40008CB
:1001C000A1B40008A1B40008A1B40008A1B40008BB
:1001D000A1B40008A1B40008A1B40008A1B40008AB
:1001E000A1B40008A1B40008A1B40008A1B400089B
:0801F000A1B40008A1B400084D
:10020000034613F8012B002AFBD1181A0138704756
:1002100001F0FF01102A2BDB10F0070F08D010F8B7
:10022000013B013A8B422DD010F0070F42B3F6D1BB
:10023000F0B441EA012141EA014122F007047FF0D4
:1002400000070023F0E80256083C85EA010586EA2B
:10025000010685FA47F5A3FA87F586FA47F6A5FA67
:1002600087F68EB9EED1F0BC01F0FF0102F0070273
:1002700032B110F8013B013A83EA010313B1F8D11E
:100280000020704701387047002D06BF35460338FF
:10029000073815F0010F07D1013015F4807F02BF38
:1002A000013015F4C03F0130F0BC0138704700BF89
:1002B00053B94AB9002908BF00281CBF4FF0FF31CD
:1002C0004FF0FF3000F00CB8ADF1080C6DE904CE32
:1002D0000CF040FBDDF804E0DDE9022304B07047D8
:1002E000704700BF0348044B834202D0034B03B165
:1002F00018477047B4010020B4010020000000003E
:100300000548064B1B1AD90F01EBA301491002D077
:10031000034B03B118477047B4010020B40100201B
:100320000000000010B5064C237843B9FFF7DAFF50
:10033000044B13B10448AFF300800123237010BDB8
:10034000B4010020000000004CCC000808B5054BAB
:100350001BB105490548AFF30080BDE80840FFF731
:10036000CFBF00BF00000000B80100204CCC000847
:1003700030B589B00446214B1A6C42F010021A6461
:100380001B6C03F010030193019B02A903A801F069
:1003900005FE069BCBB901F0E1FD0346184AA2FB1E
:1003A00003239B0C013B1748174A026040F2E732D7
:1003B000C2604360002303618360836103F046FDF4
:1003C000054630B1284609B030BD01F0C7FD4300F5
:1003D000E4E70C4803F0A6FB05460028F2D13620DE
:1003E00005F0C2FD0F2C01D90125EBE700222146C3
:1003F000362005F0A9FD054B1C60E3E700380240FC
:1004000083DE1B43D00100200010004008000020C4
:100410002DE9F04186B000230193029303930493E6
:100420000593304B1B6813B106B0BDE8F0812D4B2E
:1004300001221A602C4B9A6B42F001029A639B6B6B
:1004400003F001030093009B4FF68373019302278F
:100450000297032604960C25059501AC21462348F6
:1004600001F0BAFD48F23713019302974FF00008EC
:10047000CDF80C800496059521461D4801F0ACFD91
:100480004CF2037301930297CDF80C800496059506
:100490002146184801F0A0FD40F2FF630193029746
:1004A000CDF80C80049605952146134801F094FD83
:1004B0004FF63F0301930297CDF80C800496059503
:1004C00021460E4801F088FD4FF62C7301930297E8
:1004D000CDF80C80049605952146094801F07CFD75
:1004E000A2E700BF1C0200200038024000100240BA
:1004F00000180240000C024000200240001402409C
:10050000001C024008B5FFF783FF08BD2DE9F04F3E
:1005100091B00BAD00240B946C60AC60EC602C616E
:10052000AE4B1A6B42F010021A631A6B02F0100203
:100530000092009A1A6B42F040021A631A6B02F0A2
:1005400040020192019A1A6B42F002021A631A6B7E
:1005500002F002020292029A1A6B42F008021A6337
:100560001A6B02F008020392039A1A6B42F004021B
:100570001A631A6B02F004020492049A1A6B42F096
:1005800001021A631A6B02F001020592059A1A6BB6
:1005900042F400721A631A6B02F400720692069A11
:1005A0001A6B42F480721A631A6B02F4807207921B
:1005B000079A1A6B42F480621A631A6B02F4806223
:1005C0000892089A1A6B42F020021A631A6B02F022
:1005D00020020992099A1A6B42F080021A631B6B7F
:1005E00003F080030A930A9BDFF804A222464AF232
:1005F0002001504601F098FE78230B9302260C96BA
:100600000D940E9406230F93DFF8E88129464046A7
:1006100001F0E2FC04230B930C960D9403270E9734
:1006200009220F922946404601F0D6FC4FF4D043F0
:100630000B930C960D940E960B220F922946684848
:1006400001F0CAFC18230B930C960D940E970A2008
:100650000F902946634801F0BFFCC0200B900C9618
:100660000D940E970B220F92DFF88CB12946584655
:1006700001F0B2FC4FF480500B900C960D940E9745
:1006800008210F91DFF874912946484601F0A4FC37
:100690004FF400430B9312230C930D940E940423F8
:1006A0000F93A8F580582946404601F095FC80201C
:1006B0000B9012230C9301230D930E970B220F9294
:1006C0002946484801F088FC40220B920C960D9474
:1006D0000E970A210F912946424801F07DFC4AF20B
:1006E00020030B9301230C930D940E94294650463E
:1006F00001F072FC45F21B030B930C940D942946F8
:10070000504601F069FC4FF400610B910C960D947A
:100710000E940F972946484601F05EFC4FF4C061E5
:100720000B910C960D940E9709210F91294648467E
:1007300001F052FC4FF480500B900C960D940E94E7
:1007400005200F902946404601F046FC4FF45143E6
:100750000B930C940D942946234801F03DFCF8239B
:100760000B930C940D942946204801F035FC4FF46E
:1007700080500B900C960D940E944FF0070ACDF814
:100780003CA02946164801F027FC4FF4C0610B91AC
:100790000C960D940E970B220F922946104801F0EB
:1007A0001BFC30230B930C940D942946584601F002
:1007B00013FC08210B910C960D940E940F9729466B
:1007C000584601F009FC4FF400620B920C960D9410
:1007D0000E9705200F902946404611E00038024050
:1007E000001802400004024000200240002802409D
:1007F0000024024000100240000C024000080240A9
:1008000001F0EAFB4FF400510B910C960D940E94FD
:100810002946484601F0E0FB04230B930C960D9407
:100820000E9708210F912946584601F0D5FB4FF449
:1008300080630B930C960D940E97CDF83CA029463F
:10084000404601F0C9FB4FF400730B930C960D94D6
:100850000E94CDF83CA02946404601F0BDFB4FF474
:10086000807ACDF82CA00C960D940E940F94294606
:10087000404601F0B1FB4FF400510B914FF490133F
:100880000C930D942946674801F0A6FBCDF82CA0E7
:100890000C960D940E940F962946484601F09CFB49
:1008A000C0220B920C960D940E9708210F912946A9
:1008B000484601F091FB80200B900C960D940E940D
:1008C00006210F912946584801F086FB48230B93D7
:1008D0000C940D942946544801F07EFB80200B9027
:1008E0000C960D940E940F97DFF848A129465046B8
:1008F00001F072FB40220B920C960D940E940F9710
:100900002946504601F068FB4FF4E0630B930C97C7
:100910000D942946504601F05FFB32230B930C9651
:100920000D940E960B220F922946484601F054FB77
:1009300004230B930C970D942946484601F04CFB79
:1009400004230B930C960D940E9709210F912946C1
:10095000364801F041FB4FF480500B9012200C9070
:1009600001230D930E9704230F932946584601F057
:1009700033FB4FF400510B910C960D940E97092107
:100980000F912946584601F027FB86230B930C96BE
:100990000D940E960B220F922946404601F01CFB47
:1009A00001230B934FF488130C930D942946404672
:1009B00001F012FB50230B930C970D9429464046EF
:1009C00001F00AFB4FF400670B970C960D940E9400
:1009D0000A230F932946584601F0FEFA80200B9017
:1009E0000C940D94124F2946384601F0F5FA402236
:1009F0000B920C960D940E9409210F9129463846BE
:100A000001F0EAFA4FF440430B930C960D940E94C8
:100A100005200F902946054801F0DEFA11B0BDE827
:100A2000F08F00BF00200240001802400004024086
:100A3000001C02400014024000B589B0002303935B
:100A400004930593069307930268124B9A4202D0CF
:100A500009B05DF804FB03F54C435A6C42F00062A8
:100A60005A645A6C02F000620192019A1A6B42F4C5
:100A700000721A631B6B03F400730293029B04233E
:100A80000393022304930D23079303A9024801F063
:100A9000A3FADDE7006C01400024024008B50268BB
:100AA000064B9A4200D008BD054A536C23F0006300
:100AB00053640421034801F091FBF4E7006C01400A
:100AC000003802400024024010B5A6B0044690222F
:100AD000002102A80AF0C0FE2268134B9A4201D0FE
:100AE00026B010BD082302934FF4C0730793072369
:100AF000099302A804F08AFD90B90C4B5A6C42F09D
:100B000080625A645B6C03F080630193019B002256
:100B10000521582005F018FA582005F025FADFE7DE
:100B200000F09EFCE9E700BF006801400038024089
:100B30000120704708B50AF04BFF162303604FF001
:100B4000FF3008BD08B54FF0FF31FFF7F3FFFEE7B8
:100B500070B50C461646002506E0AFF3008021462E
:100B600001F8010B01350C46B542F6DB304670BD8D
:100B700070B50C461646002504E014F8010BAFF3DF
:100B800000800135B542F8DB304670BD4FF0FF30D4
:100B900070474FF400534B600020704701207047AE
:100BA0000020704708B51448144B0360A3F1FE53AE
:100BB000A3F698434360002383600122C26003616F
:100BC00043618361C361036201F088FD50B9002174
:100BD000094803F0ABF940B90021074803F0D3F905
:100BE00030B908BD00F03CFCF1E700F039FCF3E758
:100BF00000F036FCF5E700BFC802002000540040BA
:100C000010B5ACB0044600212791289129912A9172
:100C10002B91902203A80AF01FFE2268184B9A42DB
:100C200001D02CB010BD4FF48043039303A804F00F
:100C3000EDFC10BB134C236B43F002032363236BC7
:100C400003F002030193019B4FF440732793122397
:100C500028930123299300232A9304232B9327A964
:100C6000094801F0B9F9236C43F400132364236CA1
:100C700003F400130293029BD3E700F0F1FBD9E7E2
:100C800000540040003802400004024002680B4B50
:100C90009A4200D0704710B5094A136C23F4001330
:100CA0001364084C4FF48071204601F097FA4FF41A
:100CB0000071204601F092FA10BD00BF00540040C0
:100CC0000038024000040240FEE7000008B517218A
:100CD00001480AF0C3F8FEE798CC0008FEE7FEE7FB
:100CE000FEE7704708B5024802F068FF08BD00BF84
:100CF000D001002008B5024802F049FA08BD00BF43
:100D0000C03B012008B5024802F069FE08BD00BFE3
:100D1000200200200D4B1B68DA6912F0200F13D05F
:100D20005A6AD2B20A4B1B680133C3F30A0309495A
:100D30000968994208D010B405490868064C225445
:100D40000B605DF8044B7047704700BF2C07002014
:100D5000A00700209C070020A407002070477047D0
:100D60007047000008B5074A0021074809F052FA09
:100D7000064B1860064A0021064809F04BFA064B5C
:100D8000186008BD18D10008D90D000824070020FC
:100D9000F4D000082113000820070020014600E0DD
:100DA000013002784AB1A2F12003DBB25E2BF7D802
:100DB0000B4603F8012B1946F2E700230B7070472E
:100DC00010B50446FFF71CFA81B220460AF046F837
:100DD000642009F085FA10BD70B5F2B00AF07AF817
:100DE00040F6B83009F07CFA9448FFF7E9FF9448E0
:100DF000FFF7E6FF05F054FD00230DE003EB430190
:100E000001F14042002010708E4A4FF0FF0C02F8B2
:100E100001C00132505401338B4A9342EED98B48C2
:100E2000FFF7CEFF8A48FFF7CBFF05F0B9FD4FF47F
:100E3000FA7009F055FA06F033F838B18548FFF733
:100E4000BFFF4FF47A7009F04BFAFAE74FF4FA70EB
:100E500009F046FA05F096FE4FF04041002005F0FB
:100E6000DBFD002005F01AFE0121002005F01CFE2C
:100E7000794B5A6962AC794920460AF007FC204652
:100E8000FFF79EFF7648FFF79BFF7648FFF798FF36
:100E900000F0BAFC00F080FC5822734973480AF055
:100EA000C4FD002304E003F140420021117001332E
:100EB0006F4A9342F7D300230CE003EB430101F1A7
:100EC0004042002010705F4A505401320A44FF2112
:100ED00011700133B3F57A5FEFD36648FFF770FF07
:100EE0006548FFF76DFF4FF4F0714FF4487006F05E
:100EF0003BFA002859D16148FFF762FF6048FFF7CD
:100F00005FFF06F017FB5F4806F0FAFA4FF4FA703D
:100F100009F0E6F95C4806F0F3FA5C48FFF750FF89
:100F200043F698215A4806F017FB002841D159484A
:100F3000FFF746FF0124584B1C705848FFF740FF4D
:100F4000574805F0DDFD6FF0FF0005F0CDFD2346AD
:100F5000544A1E21002006F057F8534A52AB10683D
:100F6000516803C31189927A19809A703522002141
:100F70000DF253100AF070FC4C4C42943C220021BC
:100F800043A80AF069FC3A9400233B933C933D93B9
:100F90003E933F93409341933294339334933593EC
:100FA000369337933893399336E14148FFF708FF7A
:100FB000A4E74048FFF704FFBCE73F48FFF700FF06
:100FC00001AC67223D4920460AF060FB204606F04E
:100FD00097FA4FF4FA613A4806F0BEFA002840F05A
:100FE00032813848FFF7ECFE6423672236493748E0
:100FF00005F0EFFA03F062FC0446002502E0012050
:1010000009F06EF903F05AFC031B41F28732934258
:1010100060D840F2FE339D425CD8012111A800F057
:10102000EFF90028EBD06E1C9DF84420284B5A5550
:1010300003F044FC04463546E4E700BFB0CC0008AA
:10104000D0CC0008010000C07F380100E4CC0008CB
:10105000FCCC000818CD00089811002028CD00080D
:1010600044CD000854CD0008A80F00205C120020D9
:101070000094110068CD000878CD00088CCD0008E0
:10108000ACCD0008C4CD0008D0CD0008F4CD0008D8
:101090000CCE000818CE00082807002048CE000813
:1010A000280000205CCE000800D000084E2F410030
:1010B0009CCD000830CE0008E0CE0008FCCE000831
:1010C0000CCF000810CF00082CCF00082C07002000
:1010D000200300207D4B00225A557D48FFF770FE0B
:1010E000802D68D911AC8022784920460AF09DFCF9
:1010F00000238DF8C4302046FFF762FE7548FFF7E5
:101100005FFE754971480AF03DFC0446002800F076
:101110009A8004340522714920460AF0B2FB28B9AE
:101120003A2120460AF0A0FB00B1441C6C4920463D
:101130000AF0CCFB0146002800F0858052AC3F222B
:1011400020460AF0B0FB2046FFF728FE6449002045
:101150000AF0BCFB0146002875D042AC3F22204675
:101160000AF0A1FB2046FFF719FE5D4900200AF0B6
:10117000ADFB0146002866D03AAC1F2220460AF09B
:1011800092FB2046FFF70AFE554900200AF09EFB1D
:101190000146002857D032AC1F2220460AF083FBBC
:1011A0003B2120460AF060FB08B10022027032A801
:1011B000FFF7F4FD47E04548FFF702FEA1E7494B82
:1011C000002283F8FD2083F8FE2083F8FF204648A4
:1011D00005F096FC454805F087FC11AC32AB3AAA05
:1011E000434920460AF052FA012322464FF4D271B5
:1011F000002005F009FF08F009FA02463D4B5B6943
:1012000001AC3D4920460AF041FA2046FFF7D8FDDF
:1012100047F2305009F064F83848FFF7D1FD3848FC
:10122000FFF7CEFD374806F06BF9642009F058F857
:10123000354806F065F941F28831344806F08CF9FA
:1012400000283FF4BAAE4FF07F4005F04DFC4FF45C
:10125000A5734FF448729621002005F05FFC2C48DE
:1012600005F04EFC6FF0FF0005F03EFC0123294A1B
:10127000B421002005F0C8FE4FF0FF3005F034FC2B
:10128000012352AA4FF48271002005F0BDFE2248CE
:1012900005F036FC6FF47F0005F026FC012342AA1E
:1012A0004FF4A071002005F0AFFE1C4A1368591CD2
:1012B000116013F0010F82D00A4BFF2283F8FD204A
:1012C00083F8FE2083F8FF2081E700BF2003002081
:1012D00094CF000804CE0008A4CF0008ACCF0008CB
:1012E000B4CF0008009311C028000020D3D3D3FF4F
:1012F000C0CF000898110020D4CF000874CE000899
:1013000090CE0008A8CE0008B4CE0008DCCE0008BD
:1013100020000020B8CF0008180000201C03002087
:1013200010B594B002E0642008F0DAFF104B1B788F
:10133000002BF8D00F48FFF743FD11E001ACBDF8DA
:101340004A30BDF846200C4920460AF09FF9204655
:10135000FFF736FD642008F0C3FF322008F0C0FF1D
:1013600011A806F043F89DF84430002BE6D1F4E7CD
:10137000280700200CD0000824D00008BFF34F8FAE
:10138000BFF36F8F064B5A6922F400325A61002274
:10139000C3F85022BFF34F8FBFF36F8F704700BF6A
:1013A00000ED00E010B4154B0022C3F88420BFF319
:1013B0004F8F5A6922F480325A61BFF34F8FD3F8AE
:1013C0008040C4F34E3000E01846C4F3C90243F62F
:1013D000E07303EA401343EA82730849C1F87432A8
:1013E0001346013A002BF2D1431E0028ECD1BFF383
:1013F0004F8FBFF36F8F5DF8044B704700ED00E037
:1014000084460020884217D210B40C4B1A680C4B4B
:101410001B689A420DD0094A13680A4CE35C0CF829
:10142000003013680133C3F30A03136001308842AC
:10143000EBD35DF8044B7047704700BF9C0700205A
:10144000A0070020A407002008B50268034B9A42B9
:1014500000D008BD03F026FAFBE700BF00100040F3
:1014600072B6FEE710B5B8B02BAC3422002120468E
:101470000AF0F2F9002326932793289329932A93BD
:1014800004F0EEFF2F4B1A6C42F080521A641B6C72
:1014900003F080530093009B2B4B1A6842F44042A8
:1014A0001A601B6803F440430193019B03232B93B1
:1014B0004FF480332C9301232E9310232F93022378
:1014C00031934FF480023292192233924FF4D87242
:1014D00034923593092236923793204600F0C0F9B2
:1014E00038BB04F099FD30BB0F23269302232793CA
:1014F000002328934FF4A05329934FF480532A9349
:10150000072126A800F06EFCB8B902AC9022002199
:1015100020460AF0A1F94FF400130293204604F08C
:1015200075F860B900221146104600F0BBFB38B0D8
:1015300010BDFFF795FFFFF793FFFFF791FFFFF750
:101540008FFF00BF003802400070004008B50B4814
:101550000B4B03604FF4E133436000238360C360AF
:1015600003610C2242618361C3610362436205F03F
:1015700001F800B908BDFFF773FF00BF2C0700207A
:101580000050004000B585B004F0FCFC01238DF84C
:1015900000304FF04043019317238DF808300323A8
:1015A0008DF80B3000238DF80F308DF80E308DF84C
:1015B0000D308DF801308DF80A308DF809308DF836
:1015C0000C30684604F0FCFC042004F0E9FC05B093
:1015D0005DF804FB08B5FFF7D1FEFFF7E3FEFFF768
:1015E000D1FF03F054F9FFF73DFFFEF78FFF174CD3
:1015F00001224FF40051204600F096FE4FF4FA709D
:1016000003F062F900224FF40051204600F08CFEF6
:101610004FF4FA7003F058F901224FF400512046BC
:1016200000F082FEFFF792FFFFF7BCFA00F0ECF843
:10163000074B1A68136843F02003136008F0A8FDF5
:10164000FFF790FB08F0C2FDFEE700BF0024024058
:101650002C070020034AD2F8883043F47003C2F804
:101660008830704700ED00E010B503460C4A0D4984
:101670000D48006840B10C4800680344521A934278
:1016800006D8094A136010BD0748084C0460F2E709
:101690000AF09EF90C2303604FF0FF30F3E700BF20
:1016A0000000082000040000A40F0020F0410120E9
:1016B00000B583B00D4B1A6C42F080521A641A6C5C
:1016C00002F080520092009A5A6C42F480425A64AE
:1016D0005B6C03F480430193019B00220F216FF0A8
:1016E000010004F031FC03B05DF804FB0038024057
:1016F000F0B589B0002303930493059306930793F1
:101700000268224B9A4201D009B0F0BD03F5F433D0
:101710001A6C42F480121A641A6C02F4801200925D
:10172000009A1A6B42F004021A631A6B02F0040268
:101730000192019A1A6B42F008021A631B6B03F0C4
:1017400008030293029B4FF48053039302240494F2
:10175000032706970826079603AD29460C4800F094
:101760003BFC0423039304940024059406970796F6
:101770002946084800F030FC22460521352004F0B7
:10178000E3FB352004F0F0FBBEE700BF0050004053
:1017900000080240000C024008B50E480E4B0360E2
:1017A000012383600023C3608363C36303644364D2
:1017B0008364C36404F0F1FC28B90121054804F0F6
:1017C000DFFD18B908BDFFF74BFEF6E7FFF748FE4F
:1017D000F8E700BFA80F002000B002400268094BE4
:1017E0009A4200D0704782B0A3F5F0431A6B42F4DE
:1017F00000021A631B6B03F400030193019B02B008
:10180000704700BF00B0024008B50848084B0360AD
:10181000002303714371436183610123036202F07A
:1018200045FB00B908BDFFF71BFEFBE700100020D9
:10183000003002400268094B9A4200D0704782B0E3
:1018400003F500631A6B42F480521A631B6B03F4B6
:1018500080530193019B02B0704700BF00300240EB
:10186000002800F0068270B582B00446036813F0C9
:10187000010F29D0954B9B6803F00C03042B1AD061
:10188000924B9B6803F00C03082B0FD06368B3F5F1
:10189000803F40D0002B54D18C4B1A6822F4803208
:1018A0001A601A6822F480221A6039E0874B5B685C
:1018B00013F4800FEAD0854B1B6813F4003F03D06C
:1018C0006368002B00F0D781236813F0020F74D0F7
:1018D0007E4B9B6813F00C0F5ED07C4B9B6803F033
:1018E0000C03082B53D0E368002B00F08980774A63
:1018F000136843F00103136002F0E0FF0546734BE9
:101900001B6813F0020F72D102F0D8FF401B0228AF
:10191000F5D90320B4E16D4A136843F480331360B2
:1019200063682BB302F0CAFF0546684B1B6813F4CB
:10193000003FC9D102F0C2FF401B6428F5D9032043
:101940009EE1B3F5A02F09D0604B1A6822F48032D3
:101950001A601A6822F480221A60E1E75B4B1A6869
:1019600042F480221A601A6842F480321A60D7E783
:1019700002F0A4FF0546554B1B6813F4003FA3D0AB
:1019800002F09CFF401B6428F5D9032078E14F4BFF
:101990005B6813F4800FA6D14C4B1B6813F0020F49
:1019A00003D0E368012B40F06881484A136823F0B4
:1019B000F803216943EAC1031360236813F0080F99
:1019C00046D0636983B3414A536F43F001035367C1
:1019D00002F074FF05463D4B5B6F13F0020F37D1E9
:1019E00002F06CFF401B0228F5D9032048E1374A7A
:1019F000136823F0F803216943EAC1031360DCE7AD
:101A0000324A136823F00103136002F057FF0546C2
:101A10002E4B1B6813F0020FCFD002F04FFF401B7C
:101A20000228F5D903202BE1284A536F23F0010344
:101A3000536702F043FF0546244B5B6F13F0020F20
:101A400006D002F03BFF401B0228F5D9032017E126
:101A5000236813F0040F7DD01C4B1B6C13F0805FC8
:101A60001ED11A4B1A6C42F080521A641B6C03F0A0
:101A700080530193019B0125154B1B6813F4807F54
:101A800010D0A368012B25D0002B3BD10F4B1A6F30
:101A900022F001021A671A6F22F004021A671EE090
:101AA0000025E9E70A4A136843F48073136002F0E3
:101AB00005FF0646064B1B6813F4807FE1D102F058
:101AC000FDFE801B6428F5D90320D9E000380240D0
:101AD00000700040724A136F43F001031367A3685C
:101AE00033B302F0EBFE06466D4B1B6F13F0020F93
:101AF0002FD102F0E3FE801B41F288339842F3D9E4
:101B00000320BDE0052B09D0654B1A6F22F00102BE
:101B10001A671A6F22F004021A67E0E7604B1A6F27
:101B200042F004021A671A6F42F001021A67D6E700
:101B300002F0C4FE06465A4B1B6F13F0020F08D08A
:101B400002F0BCFE801B41F288339842F3D9032097
:101B500096E0FDB9A369002B00F09180504A92688D
:101B600002F00C02082A59D0022B19D04C4A1368F3
:101B700023F08073136002F0A1FE0446484B1B68FB
:101B800013F0007F48D002F099FE001B0228F5D91F
:101B9000032075E0424A136C23F080531364D9E7A5
:101BA0003F4A136823F08073136002F087FE0546F6
:101BB0003B4B1B6813F0007F06D002F07FFE401BFA
:101BC0000228F5D903205BE0E369226A1343626AC5
:101BD00043EA8213A26A5208013A43EA0243E26AE4
:101BE00043EA0263226B43EA02732D4A536013688F
:101BF00043F08073136002F061FE0446284B1B68BB
:101C000013F0007F06D102F059FE001B0228F5D91F
:101C1000032035E0002033E0002031E0204A526804
:101C2000012B2FD002F48003E1698B422CD102F00A
:101C30003F03216A8B4229D1616A47F6C073134082
:101C4000B3EB811F24D102F44031A36A5B08013B4E
:101C5000B1EB034F1ED102F07063E16AB3EB016F89
:101C60001AD102F0E042236BB2EB037F16D10020C1
:101C700006E001207047012002E0012000E0002082
:101C800002B070BD0120FBE70120F9E70120F7E772
:101C90000120F5E70120F3E70120F1E70120EFE75C
:101CA0000038024070B588B00C461546F8B9204E91
:101CB000336B43F001033363336B03F00103019390
:101CC000019B4FF480730393022304930323069331
:101CD00000230593079303A9164800F07DF9B36824
:101CE00023F0EC6325431D43B56008B070BD104E72
:101CF000336B43F004033363336B03F00403029349
:101D0000029B4FF40073039302230493032306936F
:101D100000230593079303A9074800F05DF9B36812
:101D200023F0784344EAC5041C43B460DDE700BFF8
:101D300000380240000002400008024008B5264B6F
:101D40009B6803F00C03042B41D0082B41D1224B9C
:101D50005A6802F03F025B6813F4800F12D01E4BEA
:101D60005968C1F388111D480023A1FB0001FEF74B
:101D70009FFA194B5B68C3F3014301335B00B0FB6F
:101D8000F3F008BD144B5868C0F388104FEA401CAC
:101D9000BCEB000C6EEB0E0E4FEA8E1343EA9C6315
:101DA0004FEA8C11B1EB0C0163EB0E03DB0043EA4D
:101DB0005173C90011EB000C43F100039902002399
:101DC0004FEA8C2041EA9C51FEF772FAD1E70348B2
:101DD000D7E70348D5E700BF0038024040787D01CF
:101DE0000024F400002800F0A08070B50D460446E1
:101DF000524B1B6803F00F038B420BD24F4A136800
:101E000023F00F030B431360136803F00F038B429F
:101E100040F08D80236813F0020F17D013F0040FE9
:101E200004D0474A936843F4E0539360236813F067
:101E3000080F04D0424A936843F460439360404AD9
:101E4000936823F0F003A1680B439360236813F0B9
:101E5000010F31D06368012B20D0022B25D0384AE6
:101E6000126812F0020F64D035498A6822F003022A
:101E700013438B6002F022FD0646314B9B6803F052
:101E80000C036268B3EB820F16D002F017FD801BC3
:101E900041F288339842F0D9032045E0284A12687D
:101EA00012F4003FE0D101203EE0254A126812F012
:101EB000007FD9D1012037E0204B1B6803F00F03CE
:101EC000AB420AD91D4A136823F00F032B4313605A
:101ED000136803F00F03AB422DD1236813F0040FF6
:101EE00006D0174A936823F4E053E1680B439360EC
:101EF000236813F0080F07D0114A936823F4604356
:101F0000216943EAC1039360FFF718FF0C4B9B68FC
:101F1000C3F303130B4AD35CD8400B4B18600B4B35
:101F20001868FEF725FA002070BD012070470120D7
:101F3000FAE70120F8E70120F6E700BF003C024085
:101F40000038024044D100080000002008000020B2
:101F5000014B1868704700BF0000002008B5FFF76C
:101F6000F7FF044B9B68C3F38223034AD35CD8403A
:101F700008BD00BF003802403CD1000808B5FFF79B
:101F8000E7FF044B9B68C3F34233034AD35CD8405A
:101F900008BD00BF003802403CD100080F23036099
:101FA0000B4B9A6802F0030242609A6802F0F0025A
:101FB00082609A6802F4E052C2609B68DB0803F416
:101FC000E0530361034B1B6803F00F030B60704782
:101FD00000380240003C024000230F2B00F2F48046
:101FE00070B582B066E085684FEA430E032404FAB8
:101FF0000EF425EA0405CC6804FA0EF42C43846040
:10200000446824EA02044A68C2F300129A40224358
:1020100042605DE0DC08083450F8242003F0070536
:10202000AD004FF00F0E0EFA05FE22EA0E0E0A6901
:10203000AA4042EA0E0240F824205DE0092200E0B6
:10204000002202FA0EF22A430234604D45F82420A1
:102050005F4A94686FEA0C0224EA0C054E6816F495
:10206000801F01D04CEA0405594CA560E46802EADF
:1020700004054E6816F4001F01D04CEA0405544CC8
:10208000E560646802EA04054E6816F4003F01D07A
:102090004CEA04054E4C6560246822404D6815F4F6
:1020A000803F01D04CEA0402494C226001330F2BDF
:1020B00000F2888001229A400C6804EA020C32EA9D
:1020C0000404F3D14C6804F00304013C012C8AD9C8
:1020D0004A6802F00302032A09D0C4685D000322A3
:1020E000AA4024EA02048A68AA402243C2604A68DD
:1020F00002F00302022A8DD004684FEA430E032245
:1021000002FA0EF224EA02044A6802F0030202FA1A
:102110000EF2224302604A6812F4403FC6D02D4AB4
:10212000546C44F480445464526C02F48042019232
:10213000019A9C08A51C254A52F8255003F0030E6D
:102140004FEA8E0E0F2202FA0EF225EA0205224A0B
:1021500090423FF475AF02F58062904222D002F5C2
:102160008062904220D002F5806290421ED002F53B
:10217000806290421CD002F5806290421AD002F533
:102180008062904218D002F58062904216D002F52B
:102190008062904214D002F5806290423FF44EAFCC
:1021A0000A224EE701224CE702224AE7032248E7CF
:1021B000042246E7052244E7062242E7072240E7D9
:1021C00008223EE702B070BD704700BF00380140F2
:1021D000003C0140003802400000024000230F2B69
:1021E00000F29B80F0B52DE0092500E0002505FAFE
:1021F0000CF5A54275D004685D004FF0030C0CFA95
:1022000005FC24EA0C0404604FEAD30E0EF1080E1C
:1022100050F82E4003F00706B6000F25B54024EA1B
:10222000050440F82E40C46824EA0C04C4604468E5
:1022300024EA02024260826822EA0C0282600133D0
:102240000F2B69D801229A4002EA010632EA010402
:10225000F5D14FEA930E0EF10205304C54F82540AB
:1022600003F0030C4FEA8C0C0F2505FA0CF73C40E9
:102270002B4DA842BAD005F58065A84221D005F5BE
:102280008065A8421FD005F58065A8421DD005F5E0
:102290008065A8421BD005F58065A84219D005F5D8
:1022A0008065A84217D005F58065A84215D005F5D0
:1022B0008065A84213D005F58065A84294D00A2510
:1022C00095E7012593E7022591E703258FE704258C
:1022D0008DE705258BE7062589E7072587E708258C
:1022E00085E7104C256825EA06052560656825EA1E
:1022F00006056560E56825EA0605E560A56825EA46
:102300000605A560054E0EF1020456F8245025EA94
:10231000070546F824506EE7F0BD704700380140CD
:1023200000000240003C01400AB18161704709048D
:102330008161704703689A6912F0020F01D0002290
:102340009A6203689A6912F0010F03D19A6942F008
:1023500001029A61704710B4019CC1F3090141EA7E
:1023600002411943214321F0004102685368640D82
:1023700004F4806444F07F7444F4583444F47F746B
:1023800044F0030423EA04030B4353605DF8044B59
:1023900070472DE9F041044603689E6916F0100667
:1023A0007ED00D4690461022DA610026374623681B
:1023B000986910F0200F32D18FBBB5F1FF3FF6D0F6
:1023C00002F07CFAA0EB0800A84201D8002DEED163
:1023D00021684A6802F4804294F84230DBB288698E
:1023E00010F4004F04D0203B18BF012302B973B989
:1023F00023689B6913F0200FD9D102F05FFAA0EB9C
:1024000008001928F4D946F020060127CFE74B68C9
:1024100043F480434B6002F051FA8046E8E70FB97D
:102420002022DA6146F0040601252268936913F43C
:10243000807F05D046F001064FF48071D1610125FF
:1024400013F4806F06D046F0080622684FF48061CE
:10245000D161012513F4007F24D046F002062368E1
:102460004FF40072DA6101252046FFF763FF22680E
:10247000536823F0FF7323F48B3323F4FF7323F0AB
:1024800001035360636C33436364202384F8413059
:10249000002384F8423084F840302846BDE8F081BB
:1024A0000025C2E7002DF8D0DEE770B504460D46E2
:1024B000164623689B6913F0020F22D13246294643
:1024C0002046FFF766FFF0B9B5F1FF3FF1D002F00B
:1024D000F5F9801BA84201D8002DEAD123689B6939
:1024E00013F0020FE5D1636C43F0200363642023F3
:1024F00084F84130002384F8423084F840300120D1
:1025000000E0002070BD0120FCE72DE9F8430546FE
:10251000884617461E46DDF820902B689C6938EAED
:1025200004040CBF01230023BB4227D14A46314695
:102530002846FFF72EFF20BBB6F1FF3FEDD002F09B
:10254000BDF9A0EB0900B04201D8002EE5D12B68FF
:102550009B6938EA03030CBF01230023BB42DCD193
:102560006B6C43F020036B64202385F8413000231B
:1025700085F8423085F84030012000E00020BDE8B9
:10258000F8830120FBE700002DE9F04182B004460A
:1025900090461D46089E099F194B00934FF080738B
:1025A000EAB2FFF7D8FE3A4631462046FFF77DFFF4
:1025B000F8B9012D0ED123685FFA88F29A6200976C
:1025C0003346002280212046FFF79FFFA8B902B0C2
:1025D000BDE8F08123684FEA18229A623A463146F4
:1025E0002046FFF762FF30B923685FFA88F29A62EB
:1025F000E5E70120EBE70120E9E70120E7E700BF7D
:10260000002000802DE9F04182B0044690461D462E
:10261000089E099F184B00930023EAB2FFF79BFE28
:102620003A4631462046FFF740FFF8B9012D0ED15A
:1026300023685FFA88F29A620097334600224021AD
:102640002046FFF762FFA8B902B0BDE8F081236819
:102650004FEA18229A623A4631462046FFF725FF94
:1026600030B923685FFA88F29A62E5E70120EBE768
:102670000120E9E70120E7E70020008070B504466B
:102680000D46164604E023689B6913F0200F12D014
:1026900023689B6913F0200F1BD132462946204640
:1026A000FFF777FEB8B902F009F9801BA842EAD813
:1026B000002DEDD1E7E7636C43F020036364202332
:1026C00084F84130002384F8423084F840300120FF
:1026D00000E0002070BD0120FCE7000000285DD074
:1026E00010B5044690F84130002B46D0242384F8DE
:1026F00041302268136823F0010313606368226885
:1027000023F0706313612268936823F4004393609D
:10271000E368012B36D0A368226843F40443936036
:10272000E368022B34D02268536823F400635360BB
:10273000226851681A4B0B4353602268D36823F414
:102740000043D360236962691343A169226843EAA5
:102750000123D360E369216A22680B431360226876
:10276000136843F00103136000206064202384F8A1
:102770004130206384F8420010BD80F84030FEF7FD
:102780003FFAB3E7A368226843F400439360C7E7C6
:102790002268536843F400635360C9E7012070471F
:1027A00000800002A8B110B50446242380F841300F
:1027B0000268136823F001031360FEF767FA002034
:1027C000606484F84100206384F8420084F840008B
:1027D00010BD012070472DE9F04F83B00D46BDF8C4
:1027E00034A00E9F90F84110202940F0BC80044690
:1027F000914698460C9BBAF1000F18BF002B16D0DB
:1028000090F84030012B00F0B2804FF0010B80F8BF
:1028100040B002F053F80646009019235A464FF490
:1028200000412046FFF771FE30B101209CE04FF4DB
:1028300000734364012097E0212384F84130402352
:1028400084F84230002363640C9A6262A4F82AA0E0
:1028500063630196009743464A4629462046FFF7A0
:1028600093FE70B9638D9BB2FF2B0FD9FF22228597
:10287000002300934FF0807329462046FFF76BFD3D
:1028800021E0002384F8403058466DE0628D92B21A
:102890002285002300934FF00073D2B229462046D0
:1028A000FFF759FD0FE0628D92B22285002300935D
:1028B0004FF00073D2B229462046FFF74CFD638DDE
:1028C0009BB2002B33D0324639462046FFF7EDFD50
:1028D00000284ED1626A236812789A62636A0133D3
:1028E0006362638D9BB2013B9BB26385238D013B89
:1028F0009BB22385628D92B2002AE0D0002BDED1FC
:1029000000963B46002280212046FFF7FEFD90BB4B
:10291000638D9BB2FF2BC6D9FF2222850023009333
:102920004FF0807329462046FFF715FDC7E7324672
:1029300039462046FFF7A2FEF8B923682022DA6163
:1029400021684B6823F0FF7323F48B3323F4FF7368
:1029500023F001034B6084F84120002384F84230C7
:1029600084F8403000E0022003B0BDE8F08F022080
:10297000FAE70120F8E70120F6E70120F4E700007C
:102980002DE9F04F83B00D46BDF834A00E9F90F8AE
:102990004110202940F0BD800446914698460C9B8A
:1029A000BAF1000F18BF002B16D090F84030012B61
:1029B00000F0B3804FF0010B80F840B001F07EFFD3
:1029C0000646009019235A464FF400412046FFF76F
:1029D0009CFD30B101209DE04FF400734364012061
:1029E00098E0222384F84130402384F842300023C9
:1029F00063640C9A6262A4F82AA06363019600974C
:102A000043464A4629462046FFF7FCFD70B9638DD0
:102A10009BB2FF2B0FD901222285444B00934FF02C
:102A2000807329462046FFF796FC21E0002384F8B6
:102A3000403058466EE0628D92B222853B4B009347
:102A40004FF00073D2B229462046FFF784FC0FE016
:102A5000628D92B22285002300934FF00073D2B2B0
:102A600029462046FFF777FC638D9BB2002B34D0BC
:102A700000963B46002204212046FFF746FD002831
:102A80004DD123685A6A636A1A70636A01336362BC
:102A9000228D013A92B22285638D9BB2013B9BB29B
:102AA0006385638D9BB2002BDED0002ADCD10096BB
:102AB0003B4680212046FFF728FD90BB638D9BB2EB
:102AC000FF2BC5D901222285002300934FF080738C
:102AD00029462046FFF73FFCC6E7324639462046E6
:102AE000FFF7CCFDF8B923682022DA6121684B6832
:102AF00023F0FF7323F48B3323F4FF7323F00103DC
:102B00004B6084F84120002384F8423084F8403040
:102B100000E0022003B0BDE8F08F0220FAE70120B8
:102B2000F8E70120F6E70120F4E700BF0024008069
:102B300090F8410070472DE9F04383B0D0F8008051
:102B400001EBC10300EB83039A6A5B6A9A4254D893
:102B500007460C469B1A01EBC10200EB8202D269C8
:102B60009A4200D31A4602F103094FEA990915E087
:102B700006F103094FEA9909BB7904EBC40507EB99
:102B80008505296A0093B3B2E2B2404602F0E1F94A
:102B90002B6A33442B62AB6A3344AB6208EB4413B9
:102BA00003F510639B699BB24B4512D304EBC4033E
:102BB00007EB83039A6A5B6A9A420AD24BB19B1A6B
:102BC00004EBC40207EB8202D6699E42D0D31E46B4
:102BD000CEE704EBC40307EB83077A6ABB6A9A4229
:102BE0000FD804F00F040122A240D8F8343823EAA9
:102BF0000203C8F83438002000E0012003B0BDE82B
:102C0000F0830020FAE730B583B0002800F082801E
:102C10000446056890F89534C3B1032384F89534CD
:102C2000B5F1A04F17D0206801F048FF237C8DF844
:102C30000030231D0ECB206801F086FE70B1022308
:102C400084F895340125284603B030BD80F89434CB
:102C500008F00EFAE1E70023A371E4E70021206801
:102C600002F08DFB0246B8B903462079984218D984
:102C700003EBC30104EB8101012048750B75CB8583
:102C800000200876C861086203EBC30104EB8101F0
:102C900048620133DBB2E8E7022384F8953401256A
:102CA000D1E7904217D902EBC20304EB8303002162
:102CB00083F8551283F8542283F85812C3F85C1233
:102CC000C3F8601202EBC20304EB8303C3F864127F
:102CD0000132D2B2E5E7237C8DF80030231D0ECB04
:102CE000206801F041FF054658B9002363740123B1
:102CF00084F89534237B012B08D0206802F0FEFA7B
:102D0000A1E7022384F8953401259CE7204601F0D1
:102D10008FF9F2E7012596E790F89434012B0ED055
:102D200010B50446012380F89434006801F0C0FE19
:102D3000206802F0D5FA002084F8940410BD022027
:102D40007047000070B504460D460068066C00EB45
:102D5000411303F530639A68A179012911D03849EC
:102D60008E4256D03DB905EBC50304EB8303D3F87F
:102D70006432002B5ED0E9B2204608F02DFA002024
:102D800070BD12F0080F09D02E498E42F7D912F407
:102D9000004FF4D04FF400429A60F0E712F0200F99
:102DA00002D020229A60EAE712F0280FE7D12549E5
:102DB0008E4206D912F4004F03D04FF400429A60BD
:102DC000DDE705EBC50204EB8202D2F874121B6941
:102DD000C3F31203CB1AC2F868327DB905EBC50202
:102DE00004EB8202D2F864226AB105EBC50204EB5F
:102DF0008202D2F860121944C2F86012E9B2204689
:102E000008F0EAF9BBE704F29C42012102F0F6FA6D
:102E1000F4E712F4004F03D04FF400429A60AEE79B
:102E200012F0200F01D020229A60E9B2204608F06B
:102E3000D3F9A4E704F29C42002102F0DFFA9AE7FA
:102E40000A31544F0A30544F38B5044603681D6C9C
:102E500003EB4113D3F8081B0E4A954207D903F53B
:102E6000306311F4004F02D04FF400429A602046C4
:102E700008F0AAF9074B9D4202D9A379012B01D092
:102E8000002038BD04F29C420121206802F0B6FA0D
:102E9000F6E700BF0A30544F90F89434012B0CD061
:102EA00010B50446012380F894344174006802F0A0
:102EB00007FA002084F8940410BD0220704738B54A
:102EC00005468C4611F0800F2BD101F00F0E0EEB52
:102ED000CE04A40004F514740444211D0EEBCE0EA0
:102EE00000EB8E0E00208EF855020CF00F0C81F8CE
:102EF00000C0C2F30A028A600B714A780AB1A1F8D5
:102F00001AC0022B1CD095F89434012B1BD001233E
:102F100085F89434286801F001FF002085F89404B6
:102F200038BD01F00F0000EBC001890010312944C9
:102F3000043100EBC00005EB800001244475D4E7A8
:102F400000234B71DFE70220EAE710B504460A468A
:102F500011F0800F20D101F00F0000EBC0039B00A7
:102F600003F514732344191D00EBC00004EB80002B
:102F7000002380F8553202F00F020A7094F894345E
:102F8000012B18D0012384F89434206801F012FF3B
:102F9000002084F8940410BD01F00F0000EBC00382
:102FA0009B0010332344191D00EBC00004EB80008C
:102FB00001234375DFE70220EDE710B5144601F069
:102FC0000F0C0CEBCC01890001F5147101440431A4
:102FD0000CEBCC0E00EB8E0ECEF86022CEF86432F5
:102FE0000023CEF868328EF855328EF854C28279BA
:102FF000012A04D0006801F0C3FF002010BDCEF804
:103000007042F7E701F00F0101EBC10100EB810015
:10301000D0F86802704710B5144601F00F0C0CEBA5
:10302000CC0189001031014404310CEBCC0E00EBD3
:103030008E0ECEF82020CEF824300023CEF8283093
:1030400001238EF815308EF814C082799A4204D08C
:10305000006801F095FF002010BDCEF83040F7E782
:1030600038B501F00F050279AA4238D304460B4661
:1030700011F0800F1FD101EBC101890001F514711E
:103080000144043103EBC30300EB8303002283F804
:10309000552201238B700D7094F89434012B20D0AD
:1030A000012384F89434206802F0AFF885B1002041
:1030B00084F8940438BD05EBC50189001031014442
:1030C000043105EBC50300EB830301225A75E0E7E9
:1030D00004F29C42A179206802F090F9E7E7012010
:1030E000E8E70220E6E701F00F0302799A4230D3C5
:1030F00010B5044611F0800F1ED103EBC301890007
:1031000001F514710144043103EBC30200EB8202A8
:10311000002082F8550200228A700B7094F89434D3
:10312000012B18D0012384F89434206802F09AF817
:10313000002084F8940410BD03EBC3018900103112
:103140000144043103EBC30200EB820201205075FD
:10315000E1E7012070470220EDE708B511F0800F8C
:103160000CD101F00F0101EBC101890001F51471CF
:1031700001440431006801F08DFE08BD01F00F012B
:1031800001EBC1018900103101440431F2E72DE95E
:10319000F04F83B004460568284602F0ECF810B101
:1031A00003B0BDE8F08F0646206802F0B5F80028AD
:1031B000F6D005F50067BB68C3F30D23C4F8D4341B
:1031C000206802F0A9F810F0020F04D022685369B9
:1031D00003F002035361206802F09EF810F0100F14
:1031E00016D02268936923F010039361D5F82080EC
:1031F00008F00F0908F4F013B3F5802F6AD0B3F587
:10320000402F00F08D802268936943F01003936192
:10321000206802F081F810F4002F40F093802068BD
:1032200002F07AF810F4802F40F0FC80206802F061
:1032300073F80028C0F27D81206802F06DF810F468
:10324000006F09D0BB6813F0010F40F08A8122683B
:10325000536903F400635361206802F05DF810F0D5
:10326000006F15D02268536903F00063536194F82E
:10327000CC34002B40F07981012184F8CC142368F0
:103280005B6DC3F38303C4F8D034204608F062F8C2
:10329000206802F041F810F4805F40F06A812068F5
:1032A00002F03AF810F4005F40F0B681206802F0B6
:1032B00033F810F0080F40F0C781206802F02CF8B6
:1032C00010F0800F00F0DA81AB6923F08003AB616E
:1032D0000126C3E147F6F07318EA030F93D04FEAD3
:1032E000181A4FEAC903019309EBC90B04EB8B0BC6
:1032F000C8F30A12DBF86012284601F063FFDBF81E
:103300006032CAF30A0A5344CBF86032DBF8683201
:10331000019A4A4404EB82025344C2F8683272E7CD
:10332000082204F29C41284601F04CFF09EBC90336
:1033300004EB8303D3F86822C8F30A184244C3F8A5
:10334000682260E7206801F0EBFF8046B14635E077
:1033500005EB49130122C3F8082B49462046FFF725
:10336000F1FC3CE005EB49130822C3F8082B494661
:103370002046FFF769FD35E009EBC90304EB830341
:1033800093F85732012B41D005EB49130222C3F8C1
:10339000082B1AF0200F04D005EB49132022C3F8A4
:1033A000082B1AF4005F05D005EB49134FF40052C7
:1033B000C3F8082B09F101094FEA5808B8F1000FCA
:1033C0003FF42DAF18F0010FF4D05FFA89FB594696
:1033D000206801F0B5FF824610F0010FB8D11AF055
:1033E000080FBFD11AF0100F04D005EB49131022BB
:1033F000C3F8082B1AF0020FCBD06B6913F0800FC3
:10340000BAD07B6843F480637B60B5E709EBC903FE
:1034100004EB8303002283F857225946204607F025
:103420002BFFB1E7206801F083FF8046B14625E01D
:103430005946204607F0DCFE1AF0080F04D005EBD1
:1034400049130822C3F808291AF0100F04D005EB1D
:1034500049131022C3F808291AF0400F04D005EBD5
:1034600049134022C3F808291AF0020F40D11AF07C
:10347000800F59D109F101094FEA5808B8F1000F3E
:103480003FF4D4AE18F0010FF4D05FFA89FB59462F
:10349000206801F05EFF824610F0010FCCD009F0E9
:1034A0000F02012101FA02F27B6B23EA02037B6324
:1034B00005EB4913C3F80819A3798B42B8D109EB7E
:1034C000C90304EB83031A6AD9690A441A62B9F181
:1034D000000FADD109EBC90304EB83035B6A002B3A
:1034E000A6D104F29C420121206801F087FF9FE7EA
:1034F0004946284601F0E8FA09EBC90304EB8303C7
:10350000DB7D012B05D005EB49130222C3F8082906
:10351000ADE709EBC90304EB83030022DA755946D2
:10352000204607F0AFFEEEE749462046FFF703FBD3
:10353000A0E77B6823F001037B6094F8CC34012B77
:1035400008D0204607F092FE2268536903F000433A
:10355000536171E6002184F8CC14204607F0FAFE8E
:10356000F2E7204607F06AFE71E6204607F066FEA5
:103570008EE67B6823F001037B601021206801F058
:10358000A3FA1AE005EB46134FF67F31C3F808198A
:10359000D3F8002922F40012C3F80029C3F8081B4D
:1035A000D3F8002B22F40012C3F8002BD3F8002B21
:1035B00042F00062C3F8002B01362379B342E1D810
:1035C000FB6943F00113FB61E37BDBB1D7F8843087
:1035D00043F00B03C7F884307B6C43F00B037B6430
:1035E000D5F8003823F4FE63C5F8003804F29C4295
:1035F000A179206801F002FF2268536903F4805327
:1036000053614CE67A6942F22B0313437B613B69B9
:1036100043F00B033B61E3E7206801F0E1FE206823
:1036200001F06AFBE0712668FEF792FC0146E27940
:10363000304601F0CBF9204607F0EBFD22685369D4
:1036400003F40053536131E6204607F0DCFD2268A5
:10365000536903F0080353612FE601362379B3421F
:103660000CD906EBC60304EB830393F85732012B06
:10367000F3D1F1B22046FFF770FDEEE7206801F0CC
:103680004BFE10F4801F25D1206801F045FE10F498
:10369000001F58D0012326E001362379B3421BD9FD
:1036A00005EB4613D3F8002906EBC60304EB8303AE
:1036B0001B7E012BF0D1002AEEDA06EBC60304EBE9
:1036C00083030122DA7566F07F01C9B22046FFF755
:1036D00044FDE1E70126E0E72268536903F4801323
:1036E0005361D1E7013322799A4227D905EB43127E
:1036F000D2F8001B03EBC30204EB820292F85822BB
:10370000012AEFD10029EDDAD4F8D42482EA11425B
:1037100012F0010FE6D103EBC30204EB8202012198
:1037200082F85712AA6942F08002AA616A6912F00F
:10373000800FD7D17B6843F400737B6022685369A4
:1037400003F400135361206801F0E6FD10F0804F90
:1037500010D1206801F0E0FD10F0040F3FF420AD1F
:1037600023685D6815F0040F0DD1226853682B4360
:10377000536015E5204607F08BFD2268536903F07E
:1037800080435361E5E7204607F088FDEDE7000040
:1037900070B54D680368DC68C4F30B4425444FEAF8
:1037A000C21C03EBC213D3F8884004F47044C3F87E
:1037B00088400B680468E668C6F30B4E7344013317
:1037C00004EBC21443EA0543C4F88830CD680368AB
:1037D000DC68C4F30A0405EB040E03EBC213D3F850
:1037E0008C4004F47044C3F88C408B680468E5682E
:1037F000C5F30A052B44013304EBC21443EA0E431C
:10380000C4F88C30036803EBC213D3F8944024F05F
:103810000704C3F89440036803EBC2130C69C3F8B0
:10382000944091F8316091F832508C6991F83030C1
:1038300043EA062343EA0543056805EBC21E43EA53
:103840000463CEF89C300EF1840E036803EBC213C0
:10385000D3F8984024F0FF04C3F89840036803EBC2
:10386000C2134C69C3F89840036803EBC213D3F842
:10387000A050294C2C40C3F8A040CC69036803EB4E
:10388000C2130D6A2C43C3F8A040036803EBC213B4
:103890004A6AC3F8AC200B69072B05D8DFE803F0B0
:1038A0003A32343634040438012503686344D3F8CB
:1038B000B02002F0E022C3F8B0208B6A05FB03F4CD
:1038C0004B680A689B1A05FB03F3033302686244E2
:1038D00043EA0443C2F8B03003686344D3F8B42029
:1038E0006FF30A02C3F8B42003686344CA6AC3F8DA
:1038F000B42003686344D3F8842042F00102C3F883
:10390000842070BD0325D0E70225CEE70225CCE751
:103910000225CAE70425C8E7F8F8FFFF002859D0B8
:1039200010B5044690F8A130002B4ED0022384F845
:10393000A1302268936923F07043936121688A69FA
:103940006368A0680343E0680343206903431343AB
:103950008B616169A369226843EA01439360E1696D
:10396000236A226843EA0143D360616AA36A22683A
:1039700043EA01431361E16A236B226843EA01438E
:10398000536194F8350094F836301B042168CA6AF4
:1039900002F07F42CA622168CA6A43EA002394F8AF
:1039A000340003431343CB622268536B43F0060396
:1039B00053632268936943F0010393610020C4F8C4
:1039C000A400012384F8A13010BD80F8A030FDF7D9
:1039D0007BF8ABE70120704770477047704770B5C0
:1039E000044603689D6B5E6B15F0040F02D016F061
:1039F000040F12D115F0020F02D016F0020F21D1E0
:103A000015F0010F02D016F0010F32D115F0080F9A
:103A100002D016F0080F3DD170BD5A6B22F004029F
:103A20005A6303680422DA63D0F8A43043F0010338
:103A3000C0F8A43080F8A120002380F8A030FFF760
:103A4000CBFFD7E72268536B23F00203536323684D
:103A50000222DA63D4F8A4301343C4F8A430042358
:103A600084F8A130002384F8A0302046FFF7B4FF8B
:103A7000C6E72268536B23F00103536322680123D6
:103A8000D36384F8A130002384F8A0302046FFF7E8
:103A9000A4FFBBE72268536B23F00803536323683A
:103AA0000822DA63012384F8A130002384F8A030CF
:103AB0002046FFF793FFAFE7F8B590F8A030012B51
:103AC0002CD004460D461646012780F8A07002232C
:103AD00080F8A1304FF0340C0CFB020C0CF1380CC8
:103AE0008E46BEE80F00ACE80F00BEE80F00ACE861
:103AF0000F00BEE80F00ACE80F00DEF80030CCF895
:103B00000030324629462046FFF742FE23685F62B6
:103B100084F8A170002084F8A000F8BD0220FCE722
:103B20007047000090F83D30012B3AD1022380F815
:103B30003D300268D36843F00103D36003681B4A39
:103B4000B3F1804F18BF93421DD0A2F57C4293423F
:103B500019D002F58062934215D002F5806293423B
:103B600011D002F5784293420DD002F57052934283
:103B700009D0A2F59432934205D01A6842F00102AE
:103B80001A60002070479968094A0A40062A18BF3F
:103B9000B2F5803F07D01A6842F001021A60002097
:103BA0007047012070470020704700BF00000140AF
:103BB00007000100704770477047704770B50446B2
:103BC0000368DE681D6915F0020F10D016F0020FB1
:103BD0000DD06FF002021A610123037703689B691D
:103BE00013F0030F64D0FFF7E6FF0023237715F0EF
:103BF000040F12D016F0040F0FD023686FF00402E8
:103C00001A610223237723689B6913F4407F55D000
:103C10002046FFF7D0FF0023237715F0080F12D0BE
:103C200016F0080F0FD023686FF008021A61042302
:103C300023772368DB6913F0030F46D02046FFF794
:103C4000BAFF0023237715F0100F12D016F0100FD3
:103C50000FD023686FF010021A61082323772368BE
:103C6000DB6913F4407F37D02046FFF7A4FF002321
:103C7000237715F0010F02D016F0010F33D115F4A0
:103C8000025F02D016F0800F35D115F4807F02D08C
:103C900016F0800F37D115F0400F02D016F0400F0C
:103CA00039D115F0200F02D016F0200F3BD170BD96
:103CB000FFF780FF2046FFF77FFF96E72046FFF7DC
:103CC00079FF2046FFF778FFA5E72046FFF772FF50
:103CD0002046FFF771FFB4E72046FFF76BFF204651
:103CE000FFF76AFFC3E723686FF001021A612046FD
:103CF000FDF7AAFBC3E723686FF402521A6120465E
:103D000000F0ABF9C1E723686FF480721A612046B6
:103D100000F0A4F9BFE723686FF040021A61204663
:103D2000FFF74BFFBDE723686FF020021A612046C2
:103D300000F092F9BBE7000070B403683C4A90427F
:103D400014BF00220122B0F1804F14BF144642F08C
:103D50000104ACB9374DA84214BF00250125364EE9
:103D6000B0420DD065B905F1804505F58235A84210
:103D700014BF0025012506F50066B04200D01DB134
:103D800023F070034D682B43002C33D1294CA04203
:103D900014BF00240124284DA8422BD054BB04F1A9
:103DA000804404F58234A04214BF0024012405F5A8
:103DB0000065A8421ED0ECB9204CA04214BF0024DC
:103DC000012405F59A35A84214D09CB91C4CA04298
:103DD00014BF0024012405F50065A8420AD04CB99F
:103DE000184CA04214BF00240124A5F59635A84222
:103DF00000D01CB123F44073CC68234323F080032C
:103E00004C6923438C68C4620C6884620E4CA042E7
:103E100008BF42F001020AB10A690263026842F077
:103E20000402026001224261036070BC704700BF5F
:103E30000000014000080040000400400044014030
:103E400000180040002000400004014060B310B59D
:103E5000044690F83D3013B3022384F83D302146E8
:103E600051F8040BFFF768FF012384F8483084F809
:103E70003E3084F83F3084F8403084F8413084F894
:103E8000423084F8433084F8443084F8453084F874
:103E9000463084F8473084F83D30002010BD80F86B
:103EA0003C30FFF73DFED7E701207047002838D0AF
:103EB00010B50446437F1BB30223637723791BBBF2
:103EC0002368194A5A612268936823F018039360A3
:103ED000637913BB23684FF0FF321A61226893683D
:103EE00023F0600361690B4393602268936823F0B9
:103EF0008003A1690B43936001236377002010BD09
:103F00000377FDF797FCD7E7E268A168204602F047
:103F1000C1F80028DCD00120F1E7236822691A618A
:103F2000DCE70120704700BFB71DC104034690F8CD
:103F30004120202A23D190F84020012A21D00122BB
:103F400080F84020242280F841200068026822F096
:103F5000010202601868026822F480520260186848
:103F600002680A43026019680A6842F001020A60A6
:103F7000202283F84120002083F84000704702206F
:103F8000704702207047034690F84120202A21D133
:103F900090F84020012A1FD0012280F840202422DE
:103FA00080F841200068026822F00102026018686F
:103FB000026822F4706242EA0122026019680A680B
:103FC00042F001020A60202283F84120002083F899
:103FD00040007047022070470220704710B4046808
:103FE000606A31B940EA0240A06200205DF8044BEB
:103FF00070478C46A36A00EB1340002308E003F1EE
:10400000400104EB8101496800EB11400133DBB250
:104010000CF1FF318B42F2D340EA02400CF13F0138
:1040200004EB81046060E0E7036859620020704798
:10403000034602680121C0F8D814002083F8CC049C
:10404000936943F000639361516D024B0B435365D9
:10405000704700BF0300001070477047704742EA86
:10406000811242EA0322009B42EA0342C266704781
:104070002DE9F843054689461746984600F01EFC90
:1040800006462C68636F13F0010F07D100F016FC91
:10409000801BB0F57A7FF4D9032008E047EA891342
:1040A00043EA0823089A43EA0243E3660020BDE896
:1040B000F8830000002800F0068170B584B00D463A
:1040C0000446437C1BB303236374002300932268DC
:1040D000D2F8303443F08073C2F830342368D3F818
:1040E000303403F080730093009B00F0E7FB06463A
:1040F0002368D3F80C2412F4805F0BD100F0DEFBB0
:10410000801BB0F57A7FF3D9032004B070BDFCF7B3
:1041100093FCD8E7D3F830146C4A0A40C3F8302433
:104120002168D1F8302428686B68DB0243EA8003F9
:10413000A86843EA00431343C1F8303400230193D5
:104140002268D2F8303443F00103C2F830342368D7
:10415000D3F8303403F001030193019B012000F0F8
:10416000B3FB00F0ABFB06462368D3F80C2412F433
:10417000807F07D100F0A2FB801BB0F57A7FF3D9D6
:104180000320C2E7002202925A6842F001025A60FC
:1041900023685A6802F001020292029A9A6822F099
:1041A000FF029A6022689368A1680B4393602268BB
:1041B000D2F8A03043F00203C2F8A0302268D2F84F
:1041C000A03043F00403C2F8A0302268D2F8A43033
:1041D00023F00303C2F8A4302268D2F8A430E168C7
:1041E0000B43C2F8A43000F069FB06462368D3F8FD
:1041F000A43013F0030F10D02368D3F8B03003F0CD
:104200009403942B1AD000F059FB831BB3F57A7FEB
:10421000F2D900232374032077E72368D3F8B03062
:1042200003F01403142B09D000F048FB801BB0F5F9
:104230007A7FF2D900232374032066E76B6803B901
:104240000123234A02FB03F3AA6802F0030293400E
:104250002A6846F2A81101FB02F2B3FBF2F32168CF
:10426000D1F8182422F03F02C1F818242168D1F8AF
:1042700018241343C1F8183423680020C3F8C4007D
:104280002368C3F8C800A06103902268536823F034
:104290000103536023685A6802F001020392039AF3
:1042A000D3F8942022F00302C3F894202268D2F8B5
:1042B000943061680B4343F00103C2F894306061AD
:1042C0000123637421E70120704700BF0386FCFFD0
:1042D00000093D0000284AD030B585B004460323CC
:1042E0004374002500950268D2F8043423F00803D3
:1042F000C2F804340368D3F8042402F008020092E0
:10430000009A01955A6822F001025A6003685A68BF
:1043100002F001020192019AD3F8A02022F00602D5
:10432000C3F8A02002950268D2F8303423F00103CC
:10433000C2F830340368D3F8302402F0010202924C
:10434000029A0395D3F8302422F08072C3F8302407
:104350000368D3F8303403F080730393039BFCF7B6
:104360009DFB656165742574284605B030BD01204C
:1043700070470000027C012A00F0238130B403461C
:10438000012202740068426B22F001024263186845
:10439000D0F8002422F00102C0F800241868826BD3
:1043A00022F0030282631868826BCC682243826326
:1043B0001868C26B6FF30D02C2631868C26B0C6998
:1043C0002243C2631868026C7F4C22400264186862
:1043D000026C4D692A4302641868426C22404264B0
:1043E0001868426C8C69224342641868C26822F0E3
:1043F0000302C2601868C2680C682243C260186871
:10440000426922F0070242611C6860694A6A0D6ACB
:104410002A43CD692A43024362611868026922F087
:104420000F020261186802694C6822430261186831
:10443000D0F8002422F00E02C0F800241868D0F84A
:1044400000244C6842EA4402C0F800244A68032A67
:1044500000F0AC801868826C5C4C22408264186862
:10446000826C8D6A2A4382641868C26C2240C264DE
:104470001868C26CCC6A2243C2641868026D6FF37C
:104480000E0202651868026D0C6B224302651C68FF
:10449000626D4F48024062651C68626D4D6B2A4335
:1044A00062651C68A26D0240A2651C68A26D8D6BDE
:1044B0002A43A2651C68E26D0240E2651868C26D7D
:1044C000CC6B2243C2651868026E6FF30D02026660
:1044D0001868026E0C6C224302661868826B22F424
:1044E000004282631868826B4C6C224382631868B6
:1044F000826922F47F028261186882698C6C42EAC8
:10450000044282611868826922F0FF0282611868A1
:104510008269CC6C224382611868826B22F400525B
:1045200082631868826B0C6D224382631868826B09
:1045300022F4805282631868826B4C6D224382633E
:104540001868826B22F4006282631868826B8C6D3B
:10455000224382631868826B22F480628263186847
:10456000826BCC6D224382631868826B22F40072E6
:1045700082631868826B0C6E224382631868826BB8
:1045800022F4807282631868826B4C6E22438263CD
:104590001868826B22F4804282631868826B896E8D
:1045A0000A4382630020187430BC7047186802699F
:1045B00022F480720261186802698C6822430261E9
:1045C00048E70220704700BF00E0FFFF00F0FFFF58
:1045D00000FCFFFF037C012B0ED001230374026853
:1045E000D36A23F01F03D3620268D36A0B43D362FA
:1045F000002303741846704702207047027C012A8A
:1046000021D082B003460122027400200090196874
:104610004A6842F001024A601A68516801F00101DB
:10462000009100990190D2F8041441F00801C2F8F9
:1046300004141A68D2F8042402F008020192019AC4
:10464000187402B0704702207047027C012A21D002
:1046500082B00346012202740020009019684A6863
:1046600022F001024A601A68516801F001010091CC
:1046700000990190D2F8041421F00801C2F8041442
:104680001A68D2F8042402F008020192019A187400
:1046900002B070470220704710B582B00446007C1B
:1046A00001280AD001202074049800902046FFF7CA
:1046B000DFFC0023237402B010BD0220FBE72DE9CC
:1046C000F04782B01D460A9EDDF82C80037C012B4A
:1046D00053D004468A4617460123037400F0EEF8CF
:1046E00081462268536F13F0010F0AD100F0E6F8FB
:1046F000A0EB0900B0F57A7FF3D9002323740320DF
:1047000038E0AC46032D28BF4FF0030C002305E032
:1047100018F803100133D80081400E436345F7D3E6
:104720001667A5EB0C0608EB0C000FE010F80CE088
:104730004FEACC020EFA02FE43EA0E030CF1010C22
:104740008C45F3D322681367761A084436B1314694
:10475000042E28BF042100239C46F1E76B1CC3F301
:1047600007220092DBB23A4651462068FFF777FCF9
:104770000020207402B0BDE8F0870220FAE72DE99E
:10478000F04182B01C46089F037C012B7DD0064679
:104790008846154601230374022C2CD8142F4CD0C4
:1047A00036D8042F41D0062F51D100230093099B06
:1047B0003A4641463068FFF752FC00F07FF8074662
:1047C000002C5DDD3368596F11F0100143D000F00B
:1047D00075F8C01BB0F57A7F4ED833685A6F12F067
:1047E000400FEDD1D3F8C03013F0200FE8D00023F4
:1047F0003374012046E0C4F307230093E3B2372269
:10480000FFF736FC0028C9D000233374012039E0BB
:10481000242F1CD10A9B5B7800930A9B1B783A4695
:1048200041463068FFF71BFCC7E7002300933A4678
:1048300041463068FFF713FCBFE7002300930A9B53
:104840001B783A4641463068FFF709FCB5E700237C
:104850003374012016E01A6F2346042C28BF04236A
:1048600007E04FEAC10C22FA0CFC05F801CB013C31
:1048700001319942F5D3AAE700233374032001E004
:104880000020307402B0BDE8F0810220FAE708B5DC
:10489000032001F047FB0020FBF76AFDFCF708FF4F
:1048A000002008BD034A1168034B1B780B441360BA
:1048B000704700BF2410002004000020014B18683E
:1048C000704700BF2410002038B50446FFF7F6FFFC
:1048D0000546B4F1FF3F02D0044B1B781C44FFF7A0
:1048E000EDFF401BA042FAD338BD00BF04000020FA
:1048F00082B000230193019B01330193019BB3F12B
:10490000706F1CD80369002BF5DA0A23019302E0CB
:10491000019B013B0193019B002BF9D1036943F0FB
:1049200001030361019B01330193019BB3F1706F9C
:1049300008D8036913F0010FF4D1002000E0032030
:1049400002B070470320FBE784B010B5044603A80B
:1049500080E80E009DF81130012B1FD1A36B23F4CA
:104960008033A363E268184B1340E360E36823F4E9
:104970004013E3609DF81830012B0AD02046FFF762
:10498000B7FF9DF80E30012B14D0BDE8104004B0E5
:104990007047E36843F48013E360EFE7E36843F0B4
:1049A0004003E3602046FFF7A3FFA36B43F480338B
:1049B000A363E6E7A36843F00603A360A36843F09C
:1049C0002003A360E1E700BFBFFFBDFF022A0AD0BA
:1049D0000922C36823F47053C360C36843EA822387
:1049E000C36000207047204B0B44204A934229D9D2
:1049F0001F4B0B441F4A934226D91F4B0B441F4A9F
:104A0000934223D91E4B0B441E4A934220D31E4B84
:104A10000B441E4A93421DD91D4B0B441D4A934221
:104A20001AD31D4B0B441D4A934217D31C4B0B4406
:104A30001C4A934214D31C4B0B441C4A934211D280
:104A40000722C6E70F22C4E70E22C2E70D22C0E705
:104A50000C22BEE70B22BCE70A22BAE70922B8E71C
:104A60000822B6E70622B4E7405327FFFF340C00C4
:104A7000401E1BFF3F420F0000DC0BFF7F4F120068
:104A8000808CF9FE20D6130060B6E5FE5FE31600C9
:104A900000D3CEFE40771B00C05BB3FEC091210067
:104AA00000CA91FE20753800E05459FEE09C410098
:104AB000836843F00103836000207047836823F01C
:104AC000010383600020704782B000230193019BA3
:104AD00001330193019BB3F1706F15D80369002B6B
:104AE000F5DA00230193890141F020010161019B66
:104AF00001330193019BB3F1706F08D8036913F080
:104B0000200FF4D1002000E0032002B07047032002
:104B1000FBE782B000230193019B01330193019BCA
:104B2000B3F1706F13D80369002BF5DA00230193FA
:104B300010230361019B01330193019BB3F1706F5B
:104B400008D8036913F0100FF4D1002000E003200F
:104B500002B070470320FBE7D0F800381943C0F8D3
:104B6000001800207047000084B0F8B5044607A87C
:104B700080E80E00002306E003F1400204EB82020D
:104B80000021516001330E2BF6D99DF8266006BB3B
:104B9000D4F8043843F00203C4F80438A36B23F4B8
:104BA0000013A363236843F040032360236843F0AA
:104BB000800323600023C4F8003E9DF82130012BC0
:104BC00011D19DF81F304BB900212046FFF7C4FFDB
:104BD0000DE0A36B43F40013A363EBE70121204630
:104BE000FFF7BAFF03E003212046FFF7B5FF1021CE
:104BF0002046FFF769FF054600B101252046FFF773
:104C000088FF00B1012504F5006C0023CCF81030BA
:104C1000CCF81430CCF81C300DE04FF09040C2F8C6
:104C2000000902E00020C2F8000900220A614FF6E4
:104C30007F328A6001339DF81C1099420ED904EB33
:104C4000431202F51061D2F800090028EADA002BBD
:104C5000E3D14FF00060C2F80009E6E700230AE064
:104C6000BBB14FF09047C2F8007B002202614FF6C3
:104C70007F3282600133994210D904EB431202F56E
:104C80003060D2F8007B002FEADB0027C2F8007BFF
:104C9000EBE74FF00067C2F8007BE6E7DCF8103086
:104CA00023F48073CCF810300023A3616FF08043AD
:104CB00063619DF81E301BB9A36943F01003A36123
:104CC000A2690B4B1343A3619DF822301BB1A3696A
:104CD00043F00803A361012E04D02846BDE8F84044
:104CE00004B07047A269034B1343A361F5E700BF0B
:104CF00000383C8004000040D0F8083803F0060378
:104D0000022B04D0062B04D02BB9002070470220C0
:104D10007047022070470F207047000010B591F8CF
:104D200000C04B78012B21D000F5006ED0F81C3864
:104D30000CF00F040122A24043EA0243C0F81C38E1
:104D400000EB4C10D0F8003B13F4004F0CD1D0F81E
:104D5000002B8B68C3F30A03097943EA81431A43A2
:104D6000134B1343C0F8003B002010BDD0F81C28A3
:104D70000CF00F0E03FA0EF39BB21343C0F81C386D
:104D800000EB4C10D0F8003913F4004FECD1D0F800
:104D900000298B68C3F30A03097943EA814343EA94
:104DA0008C531A43024B1343C0F80039DCE700BFB1
:104DB0000080001030B40B784A78012A26D000EB2E
:104DC0004313D3F8002B002A52DBD0F83C480A7872
:104DD00002F00F024FF0010C0CFA02F224EA024238
:104DE000C0F83C28D0F81C28097801F00F010CFA13
:104DF00001FC22EA0C42C0F81C28D3F8001B234A0D
:104E00000A40C3F8002B002030BC704700EB43136E
:104E1000D3F80029002A1EDBD0F83C580A7802F0AB
:104E20000F02012404FA02F292B225EA0202C0F84B
:104E30003C28D0F81C28097801F00F018C40A4B25E
:104E400022EA0402C0F81C28D3F80019104A0A40CC
:104E5000C3F80029D7E7D3F8002942F00062C3F86D
:104E60000029D3F8002942F08042C3F80029D3E793
:104E7000D3F8002B42F00062C3F8002BD3F8002BCC
:104E800042F08042C3F8002B9FE700BF0078F3EFA9
:104E9000007833EC10B483B00246002301934878C5
:104EA00001280BD00B7802EB4313D3F8000B00283A
:104EB0002DDB002003B05DF8044B70470B7802EB4C
:104EC0004313D3F80049002C01DB0020F2E7D3F8AC
:104ED000004944F00064C3F800490B7802EB431327
:104EE000D3F8004944F08044C3F80049019B0133E2
:104EF0000193019C42F210739C42DBD80B7802EBC9
:104F00004313D3F80039002BF0DB0020D2E7D3F8AD
:104F1000000B40F00060C3F8000B0B7802EB43136A
:104F2000D3F8000B40F08040C3F8000B019B013325
:104F30000193019842F21073984208D80B7802EB63
:104F40004313D3F8003B002BF0DB0020B2E7012035
:104F5000B0E710B59DF8084084B903334FEA930ECB
:104F60004FF0000C08E000EB023303F5805351F8DA
:104F7000044B1C600CF1010CF445F4D3002010BD6F
:104F8000F0B583B00C784B78012B2DD000EB441C8E
:104F90000CF530631D696FF312051D611D696FF318
:104FA000DC451D61002C40F0CE800C690CB18C6892
:104FB0000C618C680C621D69C4F312042C431C61E3
:104FC0001C6944F400241C61012A00F0DF800B7985
:104FD000012B00F0E180DCF8003B43F00443CCF807
:104FE000003B002003B0F0BD0B6973BB00EB441322
:104FF000D3F810596FF3DC45C3F81059D3F81059A2
:1050000045F40025C3F81059D3F810596FF3120571
:10501000C3F81059012A54D000EB4414D4F80039D5
:1050200043F00443C4F800390B79012B72D00B69AB
:10503000002BD6D0D0F83438097801F00F010122C6
:105040008A401343C0F83438CBE700EB441303F530
:1050500010631D696FF312051D611D696FF3DC4557
:105060001D6184B90E698D68AE4200D90D611D695C
:1050700045F400251D611D690E69C6F3120C45EA51
:105080000C051D61C6E70D698E683544013DB5FB11
:10509000F6F51E691FFA85FC494F07EAC5453543F9
:1050A0001D610D79012DE6D11D6925F0C0451D61F9
:1050B0001D694FEA4C7C0CF0C04C45EA0C051D61A3
:1050C000D9E7CB691BB100EB4412C2F814390B7954
:1050D000012B08D000EB4414D4F8003943F004430A
:1050E000C4F800397DE7D0F8083813F4807F08D180
:1050F00000EB4412D2F8003943F00053C2F80039F3
:10510000E8E700EB4412D2F8003943F08053C2F8CC
:105110000039DFE7D0F8083813F4807F0CD1D4F8D9
:10512000003943F00053C4F8003900920B8A0A7822
:10513000C968FFF70EFF54E7D4F8003943F08053F5
:10514000C4F80039F1E70C6954B91C698D68C5F3DE
:1051500012052C431C611C6944F400241C6133E7D4
:105160008D682C44013CB4FBF5F4A4B204FB05F5B6
:105170000D621D69124E06EAC4442C431C611C6971
:105180000D6AC5F312052C431C611DE7CA68002A8D
:105190003FF41DAF5A611AE7D0F8083813F4807F46
:1051A00006D1DCF8003B43F00053CCF8003B12E79B
:1051B000DCF8003B43F08053CCF8003B0BE700BF2A
:1051C0000000F81F10B5844608464FEA920E02F020
:1051D0000302002305E00CF58051096840F8041B28
:1051E00001337345F7D37AB10CF5805CDCF80040ED
:1051F0000021CBB2DB0024FA03F300F8013B0131BC
:10520000013A92B2002AF4D110BD0B784A78012AF3
:1052100014D000EB4310D0F8002B002A06DB2BB192
:10522000D0F8003B23F08043C0F8003BD0F8003BAF
:1052300043F40013C0F8003B0020704700EB43101C
:10524000D0F80029002A06DB2BB1D0F8003923F072
:105250008043C0F80039D0F8003943F40013C0F897
:105260000039E9E70B784A78012A0ED000EB4310A9
:10527000D0F8003B23F40013C0F8003B0B79023B4D
:10528000DBB2012B15D90020704700EB4310D0F89A
:10529000003923F40013C0F800390B79023BDBB26C
:1052A000012BF0D8D0F8003943F08053C0F8003912
:1052B000E9E7D0F8003B43F08053C0F8003BE2E759
:1052C000D0F8003823F4FE63C0F80038D0F8003876
:1052D000090101F4FE610B43C0F80038002070475B
:1052E000D0F8003E23F00303C0F8003ED0F80438A5
:1052F00023F00203C0F8043800207047D0F8003EC5
:1053000023F00303C0F8003ED0F8043843F0020352
:10531000C0F8043800207047426980691040704727
:10532000D0F8183800F50060C0691840000C7047CC
:10533000D0F8183800F50060C069184080B2704796
:1053400000EB4111D1F8082B00F5006040691040D6
:105350007047D0F81028D0F8343801F00F0C23FA39
:105360000CF3DB01DBB2134300EB411000F51060DE
:10537000806818407047406900F00100704738B5F8
:105380000546C36823F0C043C360012913D019BB8D
:10539000C36843F08043C36000240A20FFF794FAF7
:1053A0000A342846FFF7E7FF08B1C72CF5D9C82C07
:1053B00014D0002038BDC36843F00053C3600024FC
:1053C0000A20FFF781FA0A342846FFF7D4FF0128A4
:1053D000EDD0C72CF4D9EAE70120EBE70120E9E79B
:1053E000D0F800396FF30A03C0F80039D0F8043858
:1053F00043F48073C0F804380020704710B4046C84
:10540000154B9C4203D9D0F8003B002B16DB00243F
:10541000C0F8104BD0F8104B44F40024C0F8104BE7
:10542000D0F8104B44F01804C0F8104BD0F8104BD3
:1054300044F0C044C0F8104B012903D000205DF8AF
:10544000044B7047C0F8142BD0F8003B43F0802386
:10545000C0F8003BF2E700BF0A30544F4B6A0BB173
:105460004FF00053C3600B6A0BBB4FF08043836067
:10547000CB69F3B94FF0004343604B6B013B836151
:105480004B6B8A6B1344013B03624B6B8A6B134477
:105490000A6C1344013B83624B6B8A6B13440A6CA6
:1054A0001344CA6B1344013B03630020704700237D
:1054B000DDE70023E0E710B40B68CBB902686FF3B7
:1054C0000E024B688C682343CC6823430C6923434A
:1054D0004C6923438C692343CC6923430C6A2343DF
:1054E000496A0B431343036000205DF8044B704787
:1054F000036823F4F843CA690C6A22434C6A2243C6
:105500001343036042686FF30E024B688C682343B9
:10551000CC6823430C6923434C69234389690B43BB
:1055200013434360E0E7000010B43ABB826802F026
:1055300070420B68013B4C6804F1FF3C43EA0C13DA
:105540008C6804F1FF3C43EA0C23CC6804F1FF3C77
:1055500043EA0C330C6904F1FF3C43EA0C434C6909
:1055600004F1FF3C43EA0C538969013943EA0163C2
:105570001343836000205DF8044B70478368134A2F
:105580001A40CB6803F1FF3C4B69013B1B0543EA22
:105590000C331A438260C26802F070420B68013B10
:1055A0004C6804F1FF3C43EA0C138C6804F1FF3CA7
:1055B00043EA0C230C6904F1FF3C43EA0C4389697C
:1055C000013943EA01631343C360D3E7FF0F0FFFC1
:1055D00010B402696FF315020B684C6823438C68A2
:1055E00004F1FF3C43EA4C13C96843EA41231343E7
:1055F000036100205DF8044B704743696FF34D036E
:1056000043EA41034361002070470000F0B583B0D6
:105610000446066816F001060DD0B54B9A6822F4D0
:1056200000029A609A68416B0A439A60436B002BB0
:1056300000F067810026256815F4002511D0AC4ADA
:10564000D2F88C3023F44013E16B0B43C2F88C305A
:10565000E36BB3F5801F00F05681002B00F05581FD
:105660000025236813F4801F0FD0A14AD2F88C3094
:1056700023F44003216C0B43C2F88C30236CB3F548
:10568000800F00F0448103B90125236813F0807F67
:1056900000D0012613F0200F40F03B81236813F067
:1056A000100F0CD0924BD3F88C2022F08072C3F8EC
:1056B0008C20D3F88C20A16B0A43C3F88C2023687C
:1056C00013F4804F08D08A4AD2F8903023F4403344
:1056D000616E0B43C2F89030236813F4004F08D07A
:1056E000834AD2F8903023F44023A16E0B43C2F8D2
:1056F0009030236813F4803F08D07D4AD2F8903070
:1057000023F44013E16E0B43C2F89030236813F486
:10571000003F08D0764AD2F8903023F44003216F3E
:105720000B43C2F89030236813F0400F08D0704A42
:10573000D2F8903023F00303616C0B43C2F8903031
:10574000236813F0800F08D0694AD2F8903023F014
:105750000C03A16C0B43C2F89030236813F4807FD4
:1057600008D0634AD2F8903023F03003E16C0B4349
:10577000C2F89030236813F4007F08D05C4AD2F856
:10578000903023F0C003216D0B43C2F890302368A2
:1057900013F4806F08D0564AD2F8903023F4407347
:1057A000616D0B43C2F89030236813F4006F08D08A
:1057B0004F4AD2F8903023F44063A16D0B43C2F8F6
:1057C0009030236813F4805F08D0494AD2F89030B3
:1057D00023F44053E16D0B43C2F89030236813F477
:1057E000005F08D0424AD2F8903023F44043216E43
:1057F0000B43C2F89030236813F4800F08D03C4A62
:10580000D2F8903023F08063A16F0B43C2F8903040
:10581000236813F4001F0DD0354AD2F8903023F0DE
:105820000063E16F0B43C2F89030E36FB3F1006F98
:1058300000F0D580236813F0080F00D0012513F481
:10584000802F08D02A4AD2F8903023F04073616F3D
:105850000B43C2F89030236813F4000F09D0244A98
:10586000D2F8903023F08053D4F880100B43C2F864
:105870009030236813F0806F09D01D4AD2F8903021
:1058800023F00053D4F884100B43C2F890302368FF
:1058900013F0006F09D0164AD2F88C3023F0007351
:1058A000D4F888100B43C2F88C30236813F0805F63
:1058B00009D00F4AD2F88C3023F08063D4F88C10D2
:1058C0000B43C2F88C3026B9236813F0007F00F038
:1058D0000681074A136823F080631360FEF7EEFF2A
:1058E0000646034B1B6813F0006F7AD002E000BF3E
:1058F00000380240FEF7E2FF801B6428F1D9032044
:10590000F0E0012697E60126A7E60125A9E6012693
:10591000B9E67F4B1A6C42F080521A641B6C03F09C
:1059200080530193019B7B4A136843F48073136097
:10593000FEF7C4FF0746774B1B6813F4807F06D140
:10594000FEF7BCFFC01B6428F5D90320CAE0704BEA
:105950001B6F13F4407315D0226B02F440729A420D
:1059600010D06B4B1A6F22F44072196F41F48031E2
:105970001967196F21F4803119671A671B6F13F0CB
:10598000010F12D1236B03F44072B2F5407F1DD09A
:105990005F4A936823F4F81393605D490B6F226BA1
:1059A000C2F30B0213430B6778E6FEF787FF074647
:1059B000574B1B6F13F0020FE4D1FEF77FFFC01BA4
:1059C00041F288339842F3D903208BE05048826833
:1059D00022F4F812504919400A438260DDE701259C
:1059E00028E7236813F0010F13D0636B8BB9484A83
:1059F000D2F88430D2F88410606803F4403343EA6C
:105A0000801301F070610B43A16843EA0173C2F88F
:105A10008430236813F4002F03D0E26BB2F5801FAB
:105A200006D013F4801F1ED0236CB3F5800F1AD15B
:105A3000374AD2F88430D2F88410606803F44033D7
:105A400043EA8013E06843EA006301F0E0410B435E
:105A5000C2F88430D2F88C3023F01F03616A013918
:105A60000B43C2F88C30236813F0807F11D0284A92
:105A7000D2F88400D2F88410666823691B0443EAD4
:105A8000861300F07060034301F0E0410B43C2F85D
:105A90008430236813F0007F0DD0626823691B04F3
:105AA00043EA8213E26843EA0263A26843EA0273AC
:105AB000174AC2F88430164A136843F080631360B3
:105AC000FEF7FCFE0646124B1B6813F0006F06D172
:105AD000FEF7F4FE801B6428F5D9032002E0012DB7
